{"contracts/MarketplaceTracker.sol":{"MarketplaceTracker":{"abi":[{"inputs":[],"name":"addRentSC","outputs":[],"stateMutability":"nonpayable","type":"function"},{"inputs":[],"name":"getRentSCs","outputs":[{"components":[{"internalType":"address","name":"rentHolderSC","type":"address"},{"internalType":"address","name":"nftOwner","type":"address"},{"internalType":"address","name":"nftAddress","type":"address"},{"internalType":"uint256","name":"nftId","type":"uint256"},{"internalType":"uint256","name":"pricePerDay","type":"uint256"},{"internalType":"uint256","name":"ownerPenalty","type":"uint256"},{"internalType":"uint256","name":"renterPenalty","type":"uint256"},{"internalType":"uint256","name":"expirationDate","type":"uint256"},{"internalType":"address","name":"currRenter","type":"address"},{"internalType":"uint256","name":"currRentEndDate","type":"uint256"}],"internalType":"struct IRentHolder.relevantRentInfo[]","name":"","type":"tuple[]"}],"stateMutability":"view","type":"function"},{"inputs":[],"name":"removeRentSC","outputs":[],"stateMutability":"nonpayable","type":"function"},{"inputs":[{"internalType":"uint256","name":"","type":"uint256"}],"name":"rentSCs","outputs":[{"internalType":"address","name":"","type":"address"}],"stateMutability":"view","type":"function"}],"evm":{"bytecode":{"linkReferences":{},"object":"608060405234801561001057600080fd5b50610aaa806100206000396000f3fe608060405234801561001057600080fd5b506004361061004c5760003560e01c80633c39206814610051578063d2ff766414610081578063d93151021461008b578063edfa2256146100a9575b600080fd5b61006b60048036038101906100669190610530565b6100b3565b604051610078919061059e565b60405180910390f35b6100896100f2565b005b610093610281565b6040516100a09190610753565b60405180910390f35b6100b16103db565b005b600081815481106100c357600080fd5b906000526020600020016000915054906101000a900473ffffffffffffffffffffffffffffffffffffffff1681565b60005b60008054905081101561027e573373ffffffffffffffffffffffffffffffffffffffff166000828154811061012d5761012c610775565b5b9060005260206000200160009054906101000a900473ffffffffffffffffffffffffffffffffffffffff1673ffffffffffffffffffffffffffffffffffffffff160361026b576000600160008054905061018791906107d3565b8154811061019857610197610775565b5b9060005260206000200160009054906101000a900473ffffffffffffffffffffffffffffffffffffffff16600082815481106101d7576101d6610775565b5b9060005260206000200160006101000a81548173ffffffffffffffffffffffffffffffffffffffff021916908373ffffffffffffffffffffffffffffffffffffffff160217905550600080548061023157610230610807565b5b6001900381819060005260206000200160006101000a81549073ffffffffffffffffffffffffffffffffffffffff0219169055905561027e565b808061027690610836565b9150506100f5565b50565b60606000808054905067ffffffffffffffff8111156102a3576102a261087e565b5b6040519080825280602002602001820160405280156102dc57816020015b6102c9610440565b8152602001906001900390816102c15790505b50905060005b6000805490508110156103d357600080828154811061030457610303610775565b5b9060005260206000200160009054906101000a900473ffffffffffffffffffffffffffffffffffffffff1673ffffffffffffffffffffffffffffffffffffffff1663ea3a2aec6040518163ffffffff1660e01b815260040161014060405180830381865afa15801561037a573d6000803e3d6000fd5b505050506040513d601f19601f8201168201806040525081019061039e9190610a46565b9050808383815181106103b4576103b3610775565b5b60200260200101819052505080806103cb90610836565b9150506102e2565b508091505090565b6000339080600181540180825580915050600190039060005260206000200160009091909190916101000a81548173ffffffffffffffffffffffffffffffffffffffff021916908373ffffffffffffffffffffffffffffffffffffffff160217905550565b604051806101400160405280600073ffffffffffffffffffffffffffffffffffffffff168152602001600073ffffffffffffffffffffffffffffffffffffffff168152602001600073ffffffffffffffffffffffffffffffffffffffff1681526020016000815260200160008152602001600081526020016000815260200160008152602001600073ffffffffffffffffffffffffffffffffffffffff168152602001600081525090565b6000604051905090565b600080fd5b6000819050919050565b61050d816104fa565b811461051857600080fd5b50565b60008135905061052a81610504565b92915050565b600060208284031215610546576105456104f5565b5b60006105548482850161051b565b91505092915050565b600073ffffffffffffffffffffffffffffffffffffffff82169050919050565b60006105888261055d565b9050919050565b6105988161057d565b82525050565b60006020820190506105b3600083018461058f565b92915050565b600081519050919050565b600082825260208201905092915050565b6000819050602082019050919050565b6105ee8161057d565b82525050565b6105fd816104fa565b82525050565b6101408201600082015161061a60008501826105e5565b50602082015161062d60208501826105e5565b50604082015161064060408501826105e5565b50606082015161065360608501826105f4565b50608082015161066660808501826105f4565b5060a082015161067960a08501826105f4565b5060c082015161068c60c08501826105f4565b5060e082015161069f60e08501826105f4565b506101008201516106b46101008501826105e5565b506101208201516106c96101208501826105f4565b50505050565b60006106db8383610603565b6101408301905092915050565b6000602082019050919050565b6000610700826105b9565b61070a81856105c4565b9350610715836105d5565b8060005b8381101561074657815161072d88826106cf565b9750610738836106e8565b925050600181019050610719565b5085935050505092915050565b6000602082019050818103600083015261076d81846106f5565b905092915050565b7f4e487b7100000000000000000000000000000000000000000000000000000000600052603260045260246000fd5b7f4e487b7100000000000000000000000000000000000000000000000000000000600052601160045260246000fd5b60006107de826104fa565b91506107e9836104fa565b9250828203905081811115610801576108006107a4565b5b92915050565b7f4e487b7100000000000000000000000000000000000000000000000000000000600052603160045260246000fd5b6000610841826104fa565b91507fffffffffffffffffffffffffffffffffffffffffffffffffffffffffffffffff8203610873576108726107a4565b5b600182019050919050565b7f4e487b7100000000000000000000000000000000000000000000000000000000600052604160045260246000fd5b600080fd5b6000601f19601f8301169050919050565b6108cc826108b2565b810181811067ffffffffffffffff821117156108eb576108ea61087e565b5b80604052505050565b60006108fe6104eb565b905061090a82826108c3565b919050565b6109188161057d565b811461092357600080fd5b50565b6000815190506109358161090f565b92915050565b60008151905061094a81610504565b92915050565b60006101408284031215610967576109666108ad565b5b6109726101406108f4565b9050600061098284828501610926565b600083015250602061099684828501610926565b60208301525060406109aa84828501610926565b60408301525060606109be8482850161093b565b60608301525060806109d28482850161093b565b60808301525060a06109e68482850161093b565b60a08301525060c06109fa8482850161093b565b60c08301525060e0610a0e8482850161093b565b60e083015250610100610a2384828501610926565b61010083015250610120610a398482850161093b565b6101208301525092915050565b60006101408284031215610a5d57610a5c6104f5565b5b6000610a6b84828501610950565b9150509291505056fea2646970667358221220621698f992876ebc06040785520f6d185ff2a7e431bdea224df51ed672e049f464736f6c63430008110033","opcodes":"PUSH1 0x80 PUSH1 0x40 MSTORE CALLVALUE DUP1 ISZERO PUSH2 0x10 JUMPI PUSH1 0x0 DUP1 REVERT JUMPDEST POP PUSH2 0xAAA DUP1 PUSH2 0x20 PUSH1 0x0 CODECOPY PUSH1 0x0 RETURN INVALID PUSH1 0x80 PUSH1 0x40 MSTORE CALLVALUE DUP1 ISZERO PUSH2 0x10 JUMPI PUSH1 0x0 DUP1 REVERT JUMPDEST POP PUSH1 0x4 CALLDATASIZE LT PUSH2 0x4C JUMPI PUSH1 0x0 CALLDATALOAD PUSH1 0xE0 SHR DUP1 PUSH4 0x3C392068 EQ PUSH2 0x51 JUMPI DUP1 PUSH4 0xD2FF7664 EQ PUSH2 0x81 JUMPI DUP1 PUSH4 0xD9315102 EQ PUSH2 0x8B JUMPI DUP1 PUSH4 0xEDFA2256 EQ PUSH2 0xA9 JUMPI JUMPDEST PUSH1 0x0 DUP1 REVERT JUMPDEST PUSH2 0x6B PUSH1 0x4 DUP1 CALLDATASIZE SUB DUP2 ADD SWAP1 PUSH2 0x66 SWAP2 SWAP1 PUSH2 0x530 JUMP JUMPDEST PUSH2 0xB3 JUMP JUMPDEST PUSH1 0x40 MLOAD PUSH2 0x78 SWAP2 SWAP1 PUSH2 0x59E JUMP JUMPDEST PUSH1 0x40 MLOAD DUP1 SWAP2 SUB SWAP1 RETURN JUMPDEST PUSH2 0x89 PUSH2 0xF2 JUMP JUMPDEST STOP JUMPDEST PUSH2 0x93 PUSH2 0x281 JUMP JUMPDEST PUSH1 0x40 MLOAD PUSH2 0xA0 SWAP2 SWAP1 PUSH2 0x753 JUMP JUMPDEST PUSH1 0x40 MLOAD DUP1 SWAP2 SUB SWAP1 RETURN JUMPDEST PUSH2 0xB1 PUSH2 0x3DB JUMP JUMPDEST STOP JUMPDEST PUSH1 0x0 DUP2 DUP2 SLOAD DUP2 LT PUSH2 0xC3 JUMPI PUSH1 0x0 DUP1 REVERT JUMPDEST SWAP1 PUSH1 0x0 MSTORE PUSH1 0x20 PUSH1 0x0 KECCAK256 ADD PUSH1 0x0 SWAP2 POP SLOAD SWAP1 PUSH2 0x100 EXP SWAP1 DIV PUSH20 0xFFFFFFFFFFFFFFFFFFFFFFFFFFFFFFFFFFFFFFFF AND DUP2 JUMP JUMPDEST PUSH1 0x0 JUMPDEST PUSH1 0x0 DUP1 SLOAD SWAP1 POP DUP2 LT ISZERO PUSH2 0x27E JUMPI CALLER PUSH20 0xFFFFFFFFFFFFFFFFFFFFFFFFFFFFFFFFFFFFFFFF AND PUSH1 0x0 DUP3 DUP2 SLOAD DUP2 LT PUSH2 0x12D JUMPI PUSH2 0x12C PUSH2 0x775 JUMP JUMPDEST JUMPDEST SWAP1 PUSH1 0x0 MSTORE PUSH1 0x20 PUSH1 0x0 KECCAK256 ADD PUSH1 0x0 SWAP1 SLOAD SWAP1 PUSH2 0x100 EXP SWAP1 DIV PUSH20 0xFFFFFFFFFFFFFFFFFFFFFFFFFFFFFFFFFFFFFFFF AND PUSH20 0xFFFFFFFFFFFFFFFFFFFFFFFFFFFFFFFFFFFFFFFF AND SUB PUSH2 0x26B JUMPI PUSH1 0x0 PUSH1 0x1 PUSH1 0x0 DUP1 SLOAD SWAP1 POP PUSH2 0x187 SWAP2 SWAP1 PUSH2 0x7D3 JUMP JUMPDEST DUP2 SLOAD DUP2 LT PUSH2 0x198 JUMPI PUSH2 0x197 PUSH2 0x775 JUMP JUMPDEST JUMPDEST SWAP1 PUSH1 0x0 MSTORE PUSH1 0x20 PUSH1 0x0 KECCAK256 ADD PUSH1 0x0 SWAP1 SLOAD SWAP1 PUSH2 0x100 EXP SWAP1 DIV PUSH20 0xFFFFFFFFFFFFFFFFFFFFFFFFFFFFFFFFFFFFFFFF AND PUSH1 0x0 DUP3 DUP2 SLOAD DUP2 LT PUSH2 0x1D7 JUMPI PUSH2 0x1D6 PUSH2 0x775 JUMP JUMPDEST JUMPDEST SWAP1 PUSH1 0x0 MSTORE PUSH1 0x20 PUSH1 0x0 KECCAK256 ADD PUSH1 0x0 PUSH2 0x100 EXP DUP2 SLOAD DUP2 PUSH20 0xFFFFFFFFFFFFFFFFFFFFFFFFFFFFFFFFFFFFFFFF MUL NOT AND SWAP1 DUP4 PUSH20 0xFFFFFFFFFFFFFFFFFFFFFFFFFFFFFFFFFFFFFFFF AND MUL OR SWAP1 SSTORE POP PUSH1 0x0 DUP1 SLOAD DUP1 PUSH2 0x231 JUMPI PUSH2 0x230 PUSH2 0x807 JUMP JUMPDEST JUMPDEST PUSH1 0x1 SWAP1 SUB DUP2 DUP2 SWAP1 PUSH1 0x0 MSTORE PUSH1 0x20 PUSH1 0x0 KECCAK256 ADD PUSH1 0x0 PUSH2 0x100 EXP DUP2 SLOAD SWAP1 PUSH20 0xFFFFFFFFFFFFFFFFFFFFFFFFFFFFFFFFFFFFFFFF MUL NOT AND SWAP1 SSTORE SWAP1 SSTORE PUSH2 0x27E JUMP JUMPDEST DUP1 DUP1 PUSH2 0x276 SWAP1 PUSH2 0x836 JUMP JUMPDEST SWAP2 POP POP PUSH2 0xF5 JUMP JUMPDEST POP JUMP JUMPDEST PUSH1 0x60 PUSH1 0x0 DUP1 DUP1 SLOAD SWAP1 POP PUSH8 0xFFFFFFFFFFFFFFFF DUP2 GT ISZERO PUSH2 0x2A3 JUMPI PUSH2 0x2A2 PUSH2 0x87E JUMP JUMPDEST JUMPDEST PUSH1 0x40 MLOAD SWAP1 DUP1 DUP3 MSTORE DUP1 PUSH1 0x20 MUL PUSH1 0x20 ADD DUP3 ADD PUSH1 0x40 MSTORE DUP1 ISZERO PUSH2 0x2DC JUMPI DUP2 PUSH1 0x20 ADD JUMPDEST PUSH2 0x2C9 PUSH2 0x440 JUMP JUMPDEST DUP2 MSTORE PUSH1 0x20 ADD SWAP1 PUSH1 0x1 SWAP1 SUB SWAP1 DUP2 PUSH2 0x2C1 JUMPI SWAP1 POP JUMPDEST POP SWAP1 POP PUSH1 0x0 JUMPDEST PUSH1 0x0 DUP1 SLOAD SWAP1 POP DUP2 LT ISZERO PUSH2 0x3D3 JUMPI PUSH1 0x0 DUP1 DUP3 DUP2 SLOAD DUP2 LT PUSH2 0x304 JUMPI PUSH2 0x303 PUSH2 0x775 JUMP JUMPDEST JUMPDEST SWAP1 PUSH1 0x0 MSTORE PUSH1 0x20 PUSH1 0x0 KECCAK256 ADD PUSH1 0x0 SWAP1 SLOAD SWAP1 PUSH2 0x100 EXP SWAP1 DIV PUSH20 0xFFFFFFFFFFFFFFFFFFFFFFFFFFFFFFFFFFFFFFFF AND PUSH20 0xFFFFFFFFFFFFFFFFFFFFFFFFFFFFFFFFFFFFFFFF AND PUSH4 0xEA3A2AEC PUSH1 0x40 MLOAD DUP2 PUSH4 0xFFFFFFFF AND PUSH1 0xE0 SHL DUP2 MSTORE PUSH1 0x4 ADD PUSH2 0x140 PUSH1 0x40 MLOAD DUP1 DUP4 SUB DUP2 DUP7 GAS STATICCALL ISZERO DUP1 ISZERO PUSH2 0x37A JUMPI RETURNDATASIZE PUSH1 0x0 DUP1 RETURNDATACOPY RETURNDATASIZE PUSH1 0x0 REVERT JUMPDEST POP POP POP POP PUSH1 0x40 MLOAD RETURNDATASIZE PUSH1 0x1F NOT PUSH1 0x1F DUP3 ADD AND DUP3 ADD DUP1 PUSH1 0x40 MSTORE POP DUP2 ADD SWAP1 PUSH2 0x39E SWAP2 SWAP1 PUSH2 0xA46 JUMP JUMPDEST SWAP1 POP DUP1 DUP4 DUP4 DUP2 MLOAD DUP2 LT PUSH2 0x3B4 JUMPI PUSH2 0x3B3 PUSH2 0x775 JUMP JUMPDEST JUMPDEST PUSH1 0x20 MUL PUSH1 0x20 ADD ADD DUP2 SWAP1 MSTORE POP POP DUP1 DUP1 PUSH2 0x3CB SWAP1 PUSH2 0x836 JUMP JUMPDEST SWAP2 POP POP PUSH2 0x2E2 JUMP JUMPDEST POP DUP1 SWAP2 POP POP SWAP1 JUMP JUMPDEST PUSH1 0x0 CALLER SWAP1 DUP1 PUSH1 0x1 DUP2 SLOAD ADD DUP1 DUP3 SSTORE DUP1 SWAP2 POP POP PUSH1 0x1 SWAP1 SUB SWAP1 PUSH1 0x0 MSTORE PUSH1 0x20 PUSH1 0x0 KECCAK256 ADD PUSH1 0x0 SWAP1 SWAP2 SWAP1 SWAP2 SWAP1 SWAP2 PUSH2 0x100 EXP DUP2 SLOAD DUP2 PUSH20 0xFFFFFFFFFFFFFFFFFFFFFFFFFFFFFFFFFFFFFFFF MUL NOT AND SWAP1 DUP4 PUSH20 0xFFFFFFFFFFFFFFFFFFFFFFFFFFFFFFFFFFFFFFFF AND MUL OR SWAP1 SSTORE POP JUMP JUMPDEST PUSH1 0x40 MLOAD DUP1 PUSH2 0x140 ADD PUSH1 0x40 MSTORE DUP1 PUSH1 0x0 PUSH20 0xFFFFFFFFFFFFFFFFFFFFFFFFFFFFFFFFFFFFFFFF AND DUP2 MSTORE PUSH1 0x20 ADD PUSH1 0x0 PUSH20 0xFFFFFFFFFFFFFFFFFFFFFFFFFFFFFFFFFFFFFFFF AND DUP2 MSTORE PUSH1 0x20 ADD PUSH1 0x0 PUSH20 0xFFFFFFFFFFFFFFFFFFFFFFFFFFFFFFFFFFFFFFFF AND DUP2 MSTORE PUSH1 0x20 ADD PUSH1 0x0 DUP2 MSTORE PUSH1 0x20 ADD PUSH1 0x0 DUP2 MSTORE PUSH1 0x20 ADD PUSH1 0x0 DUP2 MSTORE PUSH1 0x20 ADD PUSH1 0x0 DUP2 MSTORE PUSH1 0x20 ADD PUSH1 0x0 DUP2 MSTORE PUSH1 0x20 ADD PUSH1 0x0 PUSH20 0xFFFFFFFFFFFFFFFFFFFFFFFFFFFFFFFFFFFFFFFF AND DUP2 MSTORE PUSH1 0x20 ADD PUSH1 0x0 DUP2 MSTORE POP SWAP1 JUMP JUMPDEST PUSH1 0x0 PUSH1 0x40 MLOAD SWAP1 POP SWAP1 JUMP JUMPDEST PUSH1 0x0 DUP1 REVERT JUMPDEST PUSH1 0x0 DUP2 SWAP1 POP SWAP2 SWAP1 POP JUMP JUMPDEST PUSH2 0x50D DUP2 PUSH2 0x4FA JUMP JUMPDEST DUP2 EQ PUSH2 0x518 JUMPI PUSH1 0x0 DUP1 REVERT JUMPDEST POP JUMP JUMPDEST PUSH1 0x0 DUP2 CALLDATALOAD SWAP1 POP PUSH2 0x52A DUP2 PUSH2 0x504 JUMP JUMPDEST SWAP3 SWAP2 POP POP JUMP JUMPDEST PUSH1 0x0 PUSH1 0x20 DUP3 DUP5 SUB SLT ISZERO PUSH2 0x546 JUMPI PUSH2 0x545 PUSH2 0x4F5 JUMP JUMPDEST JUMPDEST PUSH1 0x0 PUSH2 0x554 DUP5 DUP3 DUP6 ADD PUSH2 0x51B JUMP JUMPDEST SWAP2 POP POP SWAP3 SWAP2 POP POP JUMP JUMPDEST PUSH1 0x0 PUSH20 0xFFFFFFFFFFFFFFFFFFFFFFFFFFFFFFFFFFFFFFFF DUP3 AND SWAP1 POP SWAP2 SWAP1 POP JUMP JUMPDEST PUSH1 0x0 PUSH2 0x588 DUP3 PUSH2 0x55D JUMP JUMPDEST SWAP1 POP SWAP2 SWAP1 POP JUMP JUMPDEST PUSH2 0x598 DUP2 PUSH2 0x57D JUMP JUMPDEST DUP3 MSTORE POP POP JUMP JUMPDEST PUSH1 0x0 PUSH1 0x20 DUP3 ADD SWAP1 POP PUSH2 0x5B3 PUSH1 0x0 DUP4 ADD DUP5 PUSH2 0x58F JUMP JUMPDEST SWAP3 SWAP2 POP POP JUMP JUMPDEST PUSH1 0x0 DUP2 MLOAD SWAP1 POP SWAP2 SWAP1 POP JUMP JUMPDEST PUSH1 0x0 DUP3 DUP3 MSTORE PUSH1 0x20 DUP3 ADD SWAP1 POP SWAP3 SWAP2 POP POP JUMP JUMPDEST PUSH1 0x0 DUP2 SWAP1 POP PUSH1 0x20 DUP3 ADD SWAP1 POP SWAP2 SWAP1 POP JUMP JUMPDEST PUSH2 0x5EE DUP2 PUSH2 0x57D JUMP JUMPDEST DUP3 MSTORE POP POP JUMP JUMPDEST PUSH2 0x5FD DUP2 PUSH2 0x4FA JUMP JUMPDEST DUP3 MSTORE POP POP JUMP JUMPDEST PUSH2 0x140 DUP3 ADD PUSH1 0x0 DUP3 ADD MLOAD PUSH2 0x61A PUSH1 0x0 DUP6 ADD DUP3 PUSH2 0x5E5 JUMP JUMPDEST POP PUSH1 0x20 DUP3 ADD MLOAD PUSH2 0x62D PUSH1 0x20 DUP6 ADD DUP3 PUSH2 0x5E5 JUMP JUMPDEST POP PUSH1 0x40 DUP3 ADD MLOAD PUSH2 0x640 PUSH1 0x40 DUP6 ADD DUP3 PUSH2 0x5E5 JUMP JUMPDEST POP PUSH1 0x60 DUP3 ADD MLOAD PUSH2 0x653 PUSH1 0x60 DUP6 ADD DUP3 PUSH2 0x5F4 JUMP JUMPDEST POP PUSH1 0x80 DUP3 ADD MLOAD PUSH2 0x666 PUSH1 0x80 DUP6 ADD DUP3 PUSH2 0x5F4 JUMP JUMPDEST POP PUSH1 0xA0 DUP3 ADD MLOAD PUSH2 0x679 PUSH1 0xA0 DUP6 ADD DUP3 PUSH2 0x5F4 JUMP JUMPDEST POP PUSH1 0xC0 DUP3 ADD MLOAD PUSH2 0x68C PUSH1 0xC0 DUP6 ADD DUP3 PUSH2 0x5F4 JUMP JUMPDEST POP PUSH1 0xE0 DUP3 ADD MLOAD PUSH2 0x69F PUSH1 0xE0 DUP6 ADD DUP3 PUSH2 0x5F4 JUMP JUMPDEST POP PUSH2 0x100 DUP3 ADD MLOAD PUSH2 0x6B4 PUSH2 0x100 DUP6 ADD DUP3 PUSH2 0x5E5 JUMP JUMPDEST POP PUSH2 0x120 DUP3 ADD MLOAD PUSH2 0x6C9 PUSH2 0x120 DUP6 ADD DUP3 PUSH2 0x5F4 JUMP JUMPDEST POP POP POP POP JUMP JUMPDEST PUSH1 0x0 PUSH2 0x6DB DUP4 DUP4 PUSH2 0x603 JUMP JUMPDEST PUSH2 0x140 DUP4 ADD SWAP1 POP SWAP3 SWAP2 POP POP JUMP JUMPDEST PUSH1 0x0 PUSH1 0x20 DUP3 ADD SWAP1 POP SWAP2 SWAP1 POP JUMP JUMPDEST PUSH1 0x0 PUSH2 0x700 DUP3 PUSH2 0x5B9 JUMP JUMPDEST PUSH2 0x70A DUP2 DUP6 PUSH2 0x5C4 JUMP JUMPDEST SWAP4 POP PUSH2 0x715 DUP4 PUSH2 0x5D5 JUMP JUMPDEST DUP1 PUSH1 0x0 JUMPDEST DUP4 DUP2 LT ISZERO PUSH2 0x746 JUMPI DUP2 MLOAD PUSH2 0x72D DUP9 DUP3 PUSH2 0x6CF JUMP JUMPDEST SWAP8 POP PUSH2 0x738 DUP4 PUSH2 0x6E8 JUMP JUMPDEST SWAP3 POP POP PUSH1 0x1 DUP2 ADD SWAP1 POP PUSH2 0x719 JUMP JUMPDEST POP DUP6 SWAP4 POP POP POP POP SWAP3 SWAP2 POP POP JUMP JUMPDEST PUSH1 0x0 PUSH1 0x20 DUP3 ADD SWAP1 POP DUP2 DUP2 SUB PUSH1 0x0 DUP4 ADD MSTORE PUSH2 0x76D DUP2 DUP5 PUSH2 0x6F5 JUMP JUMPDEST SWAP1 POP SWAP3 SWAP2 POP POP JUMP JUMPDEST PUSH32 0x4E487B7100000000000000000000000000000000000000000000000000000000 PUSH1 0x0 MSTORE PUSH1 0x32 PUSH1 0x4 MSTORE PUSH1 0x24 PUSH1 0x0 REVERT JUMPDEST PUSH32 0x4E487B7100000000000000000000000000000000000000000000000000000000 PUSH1 0x0 MSTORE PUSH1 0x11 PUSH1 0x4 MSTORE PUSH1 0x24 PUSH1 0x0 REVERT JUMPDEST PUSH1 0x0 PUSH2 0x7DE DUP3 PUSH2 0x4FA JUMP JUMPDEST SWAP2 POP PUSH2 0x7E9 DUP4 PUSH2 0x4FA JUMP JUMPDEST SWAP3 POP DUP3 DUP3 SUB SWAP1 POP DUP2 DUP2 GT ISZERO PUSH2 0x801 JUMPI PUSH2 0x800 PUSH2 0x7A4 JUMP JUMPDEST JUMPDEST SWAP3 SWAP2 POP POP JUMP JUMPDEST PUSH32 0x4E487B7100000000000000000000000000000000000000000000000000000000 PUSH1 0x0 MSTORE PUSH1 0x31 PUSH1 0x4 MSTORE PUSH1 0x24 PUSH1 0x0 REVERT JUMPDEST PUSH1 0x0 PUSH2 0x841 DUP3 PUSH2 0x4FA JUMP JUMPDEST SWAP2 POP PUSH32 0xFFFFFFFFFFFFFFFFFFFFFFFFFFFFFFFFFFFFFFFFFFFFFFFFFFFFFFFFFFFFFFFF DUP3 SUB PUSH2 0x873 JUMPI PUSH2 0x872 PUSH2 0x7A4 JUMP JUMPDEST JUMPDEST PUSH1 0x1 DUP3 ADD SWAP1 POP SWAP2 SWAP1 POP JUMP JUMPDEST PUSH32 0x4E487B7100000000000000000000000000000000000000000000000000000000 PUSH1 0x0 MSTORE PUSH1 0x41 PUSH1 0x4 MSTORE PUSH1 0x24 PUSH1 0x0 REVERT JUMPDEST PUSH1 0x0 DUP1 REVERT JUMPDEST PUSH1 0x0 PUSH1 0x1F NOT PUSH1 0x1F DUP4 ADD AND SWAP1 POP SWAP2 SWAP1 POP JUMP JUMPDEST PUSH2 0x8CC DUP3 PUSH2 0x8B2 JUMP JUMPDEST DUP2 ADD DUP2 DUP2 LT PUSH8 0xFFFFFFFFFFFFFFFF DUP3 GT OR ISZERO PUSH2 0x8EB JUMPI PUSH2 0x8EA PUSH2 0x87E JUMP JUMPDEST JUMPDEST DUP1 PUSH1 0x40 MSTORE POP POP POP JUMP JUMPDEST PUSH1 0x0 PUSH2 0x8FE PUSH2 0x4EB JUMP JUMPDEST SWAP1 POP PUSH2 0x90A DUP3 DUP3 PUSH2 0x8C3 JUMP JUMPDEST SWAP2 SWAP1 POP JUMP JUMPDEST PUSH2 0x918 DUP2 PUSH2 0x57D JUMP JUMPDEST DUP2 EQ PUSH2 0x923 JUMPI PUSH1 0x0 DUP1 REVERT JUMPDEST POP JUMP JUMPDEST PUSH1 0x0 DUP2 MLOAD SWAP1 POP PUSH2 0x935 DUP2 PUSH2 0x90F JUMP JUMPDEST SWAP3 SWAP2 POP POP JUMP JUMPDEST PUSH1 0x0 DUP2 MLOAD SWAP1 POP PUSH2 0x94A DUP2 PUSH2 0x504 JUMP JUMPDEST SWAP3 SWAP2 POP POP JUMP JUMPDEST PUSH1 0x0 PUSH2 0x140 DUP3 DUP5 SUB SLT ISZERO PUSH2 0x967 JUMPI PUSH2 0x966 PUSH2 0x8AD JUMP JUMPDEST JUMPDEST PUSH2 0x972 PUSH2 0x140 PUSH2 0x8F4 JUMP JUMPDEST SWAP1 POP PUSH1 0x0 PUSH2 0x982 DUP5 DUP3 DUP6 ADD PUSH2 0x926 JUMP JUMPDEST PUSH1 0x0 DUP4 ADD MSTORE POP PUSH1 0x20 PUSH2 0x996 DUP5 DUP3 DUP6 ADD PUSH2 0x926 JUMP JUMPDEST PUSH1 0x20 DUP4 ADD MSTORE POP PUSH1 0x40 PUSH2 0x9AA DUP5 DUP3 DUP6 ADD PUSH2 0x926 JUMP JUMPDEST PUSH1 0x40 DUP4 ADD MSTORE POP PUSH1 0x60 PUSH2 0x9BE DUP5 DUP3 DUP6 ADD PUSH2 0x93B JUMP JUMPDEST PUSH1 0x60 DUP4 ADD MSTORE POP PUSH1 0x80 PUSH2 0x9D2 DUP5 DUP3 DUP6 ADD PUSH2 0x93B JUMP JUMPDEST PUSH1 0x80 DUP4 ADD MSTORE POP PUSH1 0xA0 PUSH2 0x9E6 DUP5 DUP3 DUP6 ADD PUSH2 0x93B JUMP JUMPDEST PUSH1 0xA0 DUP4 ADD MSTORE POP PUSH1 0xC0 PUSH2 0x9FA DUP5 DUP3 DUP6 ADD PUSH2 0x93B JUMP JUMPDEST PUSH1 0xC0 DUP4 ADD MSTORE POP PUSH1 0xE0 PUSH2 0xA0E DUP5 DUP3 DUP6 ADD PUSH2 0x93B JUMP JUMPDEST PUSH1 0xE0 DUP4 ADD MSTORE POP PUSH2 0x100 PUSH2 0xA23 DUP5 DUP3 DUP6 ADD PUSH2 0x926 JUMP JUMPDEST PUSH2 0x100 DUP4 ADD MSTORE POP PUSH2 0x120 PUSH2 0xA39 DUP5 DUP3 DUP6 ADD PUSH2 0x93B JUMP JUMPDEST PUSH2 0x120 DUP4 ADD MSTORE POP SWAP3 SWAP2 POP POP JUMP JUMPDEST PUSH1 0x0 PUSH2 0x140 DUP3 DUP5 SUB SLT ISZERO PUSH2 0xA5D JUMPI PUSH2 0xA5C PUSH2 0x4F5 JUMP JUMPDEST JUMPDEST PUSH1 0x0 PUSH2 0xA6B DUP5 DUP3 DUP6 ADD PUSH2 0x950 JUMP JUMPDEST SWAP2 POP POP SWAP3 SWAP2 POP POP JUMP INVALID LOG2 PUSH5 0x6970667358 0x22 SLT KECCAK256 PUSH3 0x1698F9 SWAP3 DUP8 PUSH15 0xBC06040785520F6D185FF2A7E431BD 0xEA 0x22 0x4D CREATE2 0x1E 0xD6 PUSH19 0xE049F464736F6C634300081100330000000000 "},"methodIdentifiers":{"addRentSC()":"edfa2256","getRentSCs()":"d9315102","removeRentSC()":"d2ff7664","rentSCs(uint256)":"3c392068"}}}}}