{
  "address": "0x5FbDB2315678afecb367f032d93F642f64180aa3",
  "abi": [
    {
      "inputs": [],
      "stateMutability": "nonpayable",
      "type": "constructor"
    },
    {
      "inputs": [],
      "name": "CounterStrikeNFT__MaxSupplyReached",
      "type": "error"
    },
    {
      "inputs": [],
      "name": "CounterStrikeNFT__NFTAlreadyMinted",
      "type": "error"
    },
    {
      "inputs": [],
      "name": "CounterStrikeNFT__NeedToPayUp",
      "type": "error"
    },
    {
      "anonymous": false,
      "inputs": [
        {
          "indexed": true,
          "internalType": "address",
          "name": "owner",
          "type": "address"
        },
        {
          "indexed": true,
          "internalType": "address",
          "name": "approved",
          "type": "address"
        },
        {
          "indexed": true,
          "internalType": "uint256",
          "name": "tokenId",
          "type": "uint256"
        }
      ],
      "name": "Approval",
      "type": "event"
    },
    {
      "anonymous": false,
      "inputs": [
        {
          "indexed": true,
          "internalType": "address",
          "name": "owner",
          "type": "address"
        },
        {
          "indexed": true,
          "internalType": "address",
          "name": "operator",
          "type": "address"
        },
        {
          "indexed": false,
          "internalType": "bool",
          "name": "approved",
          "type": "bool"
        }
      ],
      "name": "ApprovalForAll",
      "type": "event"
    },
    {
      "anonymous": false,
      "inputs": [
        {
          "indexed": false,
          "internalType": "uint256",
          "name": "_fromTokenId",
          "type": "uint256"
        },
        {
          "indexed": false,
          "internalType": "uint256",
          "name": "_toTokenId",
          "type": "uint256"
        }
      ],
      "name": "BatchMetadataUpdate",
      "type": "event"
    },
    {
      "anonymous": false,
      "inputs": [
        {
          "indexed": false,
          "internalType": "uint256",
          "name": "_tokenId",
          "type": "uint256"
        }
      ],
      "name": "MetadataUpdate",
      "type": "event"
    },
    {
      "anonymous": false,
      "inputs": [
        {
          "indexed": true,
          "internalType": "address",
          "name": "previousOwner",
          "type": "address"
        },
        {
          "indexed": true,
          "internalType": "address",
          "name": "newOwner",
          "type": "address"
        }
      ],
      "name": "OwnershipTransferred",
      "type": "event"
    },
    {
      "anonymous": false,
      "inputs": [
        {
          "indexed": true,
          "internalType": "address",
          "name": "from",
          "type": "address"
        },
        {
          "indexed": true,
          "internalType": "address",
          "name": "to",
          "type": "address"
        },
        {
          "indexed": true,
          "internalType": "uint256",
          "name": "tokenId",
          "type": "uint256"
        }
      ],
      "name": "Transfer",
      "type": "event"
    },
    {
      "inputs": [
        {
          "internalType": "address",
          "name": "to",
          "type": "address"
        },
        {
          "internalType": "uint256",
          "name": "tokenId",
          "type": "uint256"
        }
      ],
      "name": "approve",
      "outputs": [],
      "stateMutability": "nonpayable",
      "type": "function"
    },
    {
      "inputs": [
        {
          "internalType": "address",
          "name": "owner",
          "type": "address"
        }
      ],
      "name": "balanceOf",
      "outputs": [
        {
          "internalType": "uint256",
          "name": "",
          "type": "uint256"
        }
      ],
      "stateMutability": "view",
      "type": "function"
    },
    {
      "inputs": [],
      "name": "count",
      "outputs": [
        {
          "internalType": "uint256",
          "name": "",
          "type": "uint256"
        }
      ],
      "stateMutability": "view",
      "type": "function"
    },
    {
      "inputs": [
        {
          "internalType": "uint256",
          "name": "tokenId",
          "type": "uint256"
        }
      ],
      "name": "getApproved",
      "outputs": [
        {
          "internalType": "address",
          "name": "",
          "type": "address"
        }
      ],
      "stateMutability": "view",
      "type": "function"
    },
    {
      "inputs": [
        {
          "internalType": "address",
          "name": "owner",
          "type": "address"
        },
        {
          "internalType": "address",
          "name": "operator",
          "type": "address"
        }
      ],
      "name": "isApprovedForAll",
      "outputs": [
        {
          "internalType": "bool",
          "name": "",
          "type": "bool"
        }
      ],
      "stateMutability": "view",
      "type": "function"
    },
    {
      "inputs": [
        {
          "internalType": "string",
          "name": "uri",
          "type": "string"
        }
      ],
      "name": "isContentOwned",
      "outputs": [
        {
          "internalType": "bool",
          "name": "",
          "type": "bool"
        }
      ],
      "stateMutability": "view",
      "type": "function"
    },
    {
      "inputs": [],
      "name": "name",
      "outputs": [
        {
          "internalType": "string",
          "name": "",
          "type": "string"
        }
      ],
      "stateMutability": "view",
      "type": "function"
    },
    {
      "inputs": [],
      "name": "owner",
      "outputs": [
        {
          "internalType": "address",
          "name": "",
          "type": "address"
        }
      ],
      "stateMutability": "view",
      "type": "function"
    },
    {
      "inputs": [
        {
          "internalType": "uint256",
          "name": "tokenId",
          "type": "uint256"
        }
      ],
      "name": "ownerOf",
      "outputs": [
        {
          "internalType": "address",
          "name": "",
          "type": "address"
        }
      ],
      "stateMutability": "view",
      "type": "function"
    },
    {
      "inputs": [
        {
          "internalType": "address",
          "name": "recipient",
          "type": "address"
        }
      ],
      "name": "payToMint",
      "outputs": [
        {
          "internalType": "uint256",
          "name": "",
          "type": "uint256"
        }
      ],
      "stateMutability": "payable",
      "type": "function"
    },
    {
      "inputs": [],
      "name": "renounceOwnership",
      "outputs": [],
      "stateMutability": "nonpayable",
      "type": "function"
    },
    {
      "inputs": [
        {
          "internalType": "address",
          "name": "recipient",
          "type": "address"
        }
      ],
      "name": "safeMint",
      "outputs": [
        {
          "internalType": "uint256",
          "name": "",
          "type": "uint256"
        }
      ],
      "stateMutability": "nonpayable",
      "type": "function"
    },
    {
      "inputs": [
        {
          "internalType": "address",
          "name": "from",
          "type": "address"
        },
        {
          "internalType": "address",
          "name": "to",
          "type": "address"
        },
        {
          "internalType": "uint256",
          "name": "tokenId",
          "type": "uint256"
        }
      ],
      "name": "safeTransferFrom",
      "outputs": [],
      "stateMutability": "nonpayable",
      "type": "function"
    },
    {
      "inputs": [
        {
          "internalType": "address",
          "name": "from",
          "type": "address"
        },
        {
          "internalType": "address",
          "name": "to",
          "type": "address"
        },
        {
          "internalType": "uint256",
          "name": "tokenId",
          "type": "uint256"
        },
        {
          "internalType": "bytes",
          "name": "data",
          "type": "bytes"
        }
      ],
      "name": "safeTransferFrom",
      "outputs": [],
      "stateMutability": "nonpayable",
      "type": "function"
    },
    {
      "inputs": [
        {
          "internalType": "address",
          "name": "operator",
          "type": "address"
        },
        {
          "internalType": "bool",
          "name": "approved",
          "type": "bool"
        }
      ],
      "name": "setApprovalForAll",
      "outputs": [],
      "stateMutability": "nonpayable",
      "type": "function"
    },
    {
      "inputs": [
        {
          "internalType": "bytes4",
          "name": "interfaceId",
          "type": "bytes4"
        }
      ],
      "name": "supportsInterface",
      "outputs": [
        {
          "internalType": "bool",
          "name": "",
          "type": "bool"
        }
      ],
      "stateMutability": "view",
      "type": "function"
    },
    {
      "inputs": [],
      "name": "symbol",
      "outputs": [
        {
          "internalType": "string",
          "name": "",
          "type": "string"
        }
      ],
      "stateMutability": "view",
      "type": "function"
    },
    {
      "inputs": [
        {
          "internalType": "uint256",
          "name": "tokenId",
          "type": "uint256"
        }
      ],
      "name": "tokenURI",
      "outputs": [
        {
          "internalType": "string",
          "name": "",
          "type": "string"
        }
      ],
      "stateMutability": "view",
      "type": "function"
    },
    {
      "inputs": [
        {
          "internalType": "address",
          "name": "from",
          "type": "address"
        },
        {
          "internalType": "address",
          "name": "to",
          "type": "address"
        },
        {
          "internalType": "uint256",
          "name": "tokenId",
          "type": "uint256"
        }
      ],
      "name": "transferFrom",
      "outputs": [],
      "stateMutability": "nonpayable",
      "type": "function"
    },
    {
      "inputs": [
        {
          "internalType": "address",
          "name": "newOwner",
          "type": "address"
        }
      ],
      "name": "transferOwnership",
      "outputs": [],
      "stateMutability": "nonpayable",
      "type": "function"
    },
    {
      "inputs": [],
      "name": "withdraw",
      "outputs": [],
      "stateMutability": "nonpayable",
      "type": "function"
    }
  ],
  "transactionHash": "0x8de3c370f97dcd4aefd6301b62e1e78af2a6e8b882d4ea636600c21687769cb1",
  "args": [],
  "numDeployments": 1,
  "solcInputHash": "0a5a3a4e251c4b4cc6b0696d8d0813d8",
  "bytecode": "0x60806040523480156200001157600080fd5b506040518060400160405280600d81526020017f436f756e746572537472696b65000000000000000000000000000000000000008152506040518060400160405280600481526020017f4353474f0000000000000000000000000000000000000000000000000000000081525081600090816200008f919062000412565b508060019081620000a1919062000412565b505050620000c4620000b8620000ca60201b60201c565b620000d260201b60201c565b620004f9565b600033905090565b6000600760009054906101000a900473ffffffffffffffffffffffffffffffffffffffff16905081600760006101000a81548173ffffffffffffffffffffffffffffffffffffffff021916908373ffffffffffffffffffffffffffffffffffffffff1602179055508173ffffffffffffffffffffffffffffffffffffffff168173ffffffffffffffffffffffffffffffffffffffff167f8be0079c531659141344cd1fd0a4f28419497f9722a3daafe3b4186f6b6457e060405160405180910390a35050565b600081519050919050565b7f4e487b7100000000000000000000000000000000000000000000000000000000600052604160045260246000fd5b7f4e487b7100000000000000000000000000000000000000000000000000000000600052602260045260246000fd5b600060028204905060018216806200021a57607f821691505b60208210810362000230576200022f620001d2565b5b50919050565b60008190508160005260206000209050919050565b60006020601f8301049050919050565b600082821b905092915050565b6000600883026200029a7fffffffffffffffffffffffffffffffffffffffffffffffffffffffffffffffff826200025b565b620002a686836200025b565b95508019841693508086168417925050509392505050565b6000819050919050565b6000819050919050565b6000620002f3620002ed620002e784620002be565b620002c8565b620002be565b9050919050565b6000819050919050565b6200030f83620002d2565b620003276200031e82620002fa565b84845462000268565b825550505050565b600090565b6200033e6200032f565b6200034b81848462000304565b505050565b5b8181101562000373576200036760008262000334565b60018101905062000351565b5050565b601f821115620003c2576200038c8162000236565b62000397846200024b565b81016020851015620003a7578190505b620003bf620003b6856200024b565b83018262000350565b50505b505050565b600082821c905092915050565b6000620003e760001984600802620003c7565b1980831691505092915050565b6000620004028383620003d4565b9150826002028217905092915050565b6200041d8262000198565b67ffffffffffffffff811115620004395762000438620001a3565b5b62000445825462000201565b6200045282828562000377565b600060209050601f8311600181146200048a576000841562000475578287015190505b620004818582620003f4565b865550620004f1565b601f1984166200049a8662000236565b60005b82811015620004c4578489015182556001820191506020850194506020810190506200049d565b86831015620004e45784890151620004e0601f891682620003d4565b8355505b6001600288020188555050505b505050505050565b61354480620005096000396000f3fe60806040526004361061012a5760003560e01c80636352211e116100ab5780639f1cabc61161006f5780639f1cabc6146103e5578063a22cb46514610422578063b88d4fde1461044b578063c87b56dd14610474578063e985e9c5146104b1578063f2fde38b146104ee5761012a565b80636352211e146102fe57806370a082311461033b578063715018a6146103785780638da5cb5b1461038f57806395d89b41146103ba5761012a565b806323b872dd116100f257806323b872dd146102285780633ccfd60b1461025157806340d097c31461026857806342842e0e146102a5578063585b3282146102ce5761012a565b806301ffc9a71461012f57806306661abd1461016c57806306fdde0314610197578063081812fc146101c2578063095ea7b3146101ff575b600080fd5b34801561013b57600080fd5b50610156600480360381019061015191906121d3565b610517565b604051610163919061221b565b60405180910390f35b34801561017857600080fd5b50610181610529565b60405161018e919061224f565b60405180910390f35b3480156101a357600080fd5b506101ac61053a565b6040516101b991906122fa565b60405180910390f35b3480156101ce57600080fd5b506101e960048036038101906101e49190612348565b6105cc565b6040516101f691906123b6565b60405180910390f35b34801561020b57600080fd5b50610226600480360381019061022191906123fd565b610612565b005b34801561023457600080fd5b5061024f600480360381019061024a919061243d565b610729565b005b34801561025d57600080fd5b50610266610789565b005b34801561027457600080fd5b5061028f600480360381019061028a9190612490565b6107e0565b60405161029c919061224f565b60405180910390f35b3480156102b157600080fd5b506102cc60048036038101906102c7919061243d565b610933565b005b6102e860048036038101906102e39190612490565b610953565b6040516102f5919061224f565b60405180910390f35b34801561030a57600080fd5b5061032560048036038101906103209190612348565b610ade565b60405161033291906123b6565b60405180910390f35b34801561034757600080fd5b50610362600480360381019061035d9190612490565b610b64565b60405161036f919061224f565b60405180910390f35b34801561038457600080fd5b5061038d610c1b565b005b34801561039b57600080fd5b506103a4610c2f565b6040516103b191906123b6565b60405180910390f35b3480156103c657600080fd5b506103cf610c59565b6040516103dc91906122fa565b60405180910390f35b3480156103f157600080fd5b5061040c600480360381019061040791906125f2565b610ceb565b604051610419919061221b565b60405180910390f35b34801561042e57600080fd5b5061044960048036038101906104449190612667565b610d26565b005b34801561045757600080fd5b50610472600480360381019061046d9190612748565b610d3c565b005b34801561048057600080fd5b5061049b60048036038101906104969190612348565b610d9e565b6040516104a891906122fa565b60405180910390f35b3480156104bd57600080fd5b506104d860048036038101906104d391906127cb565b610db0565b6040516104e5919061221b565b60405180910390f35b3480156104fa57600080fd5b5061051560048036038101906105109190612490565b610e44565b005b600061052282610ec7565b9050919050565b60006105356008610f28565b905090565b6060600080546105499061283a565b80601f01602080910402602001604051908101604052809291908181526020018280546105759061283a565b80156105c25780601f10610597576101008083540402835291602001916105c2565b820191906000526020600020905b8154815290600101906020018083116105a557829003601f168201915b5050505050905090565b60006105d782610f36565b6004600083815260200190815260200160002060009054906101000a900473ffffffffffffffffffffffffffffffffffffffff169050919050565b600061061d82610ade565b90508073ffffffffffffffffffffffffffffffffffffffff168373ffffffffffffffffffffffffffffffffffffffff160361068d576040517f08c379a0000000000000000000000000000000000000000000000000000000008152600401610684906128dd565b60405180910390fd5b8073ffffffffffffffffffffffffffffffffffffffff166106ac610f81565b73ffffffffffffffffffffffffffffffffffffffff1614806106db57506106da816106d5610f81565b610db0565b5b61071a576040517f08c379a00000000000000000000000000000000000000000000000000000000081526004016107119061296f565b60405180910390fd5b6107248383610f89565b505050565b61073a610734610f81565b82611042565b610779576040517f08c379a000000000000000000000000000000000000000000000000000000000815260040161077090612a01565b60405180910390fd5b6107848383836110d7565b505050565b6107916113d0565b60004790503373ffffffffffffffffffffffffffffffffffffffff166108fc829081150290604051600060405180830381858888f193505050501580156107dc573d6000803e3d6000fd5b5050565b60006107ea6113d0565b60006107f66008610f28565b9050600061080f60018361080a9190612a50565b61144e565b60405160200161081f9190612b58565b6040516020818303038152906040529050602682111561086b576040517f8a74cb8d00000000000000000000000000000000000000000000000000000000815260040160405180910390fd5b600160098260405161087d9190612b85565b908152602001604051809103902060009054906101000a900460ff1660ff16036108d3576040517ffe51936e00000000000000000000000000000000000000000000000000000000815260040160405180910390fd5b6108dd600861151c565b60016009826040516108ef9190612b85565b908152602001604051809103902060006101000a81548160ff021916908360ff16021790555061091f8483611532565b6109298282611550565b8192505050919050565b61094e83838360405180602001604052806000815250610d3c565b505050565b6000806109606008610f28565b905060006109796001836109749190612a50565b61144e565b6040516020016109899190612b58565b604051602081830303815290604052905060268211156109d5576040517f8a74cb8d00000000000000000000000000000000000000000000000000000000815260040160405180910390fd5b60016009826040516109e79190612b85565b908152602001604051809103902060009054906101000a900460ff1660ff1603610a3d576040517ffe51936e00000000000000000000000000000000000000000000000000000000815260040160405180910390fd5b662386f26fc10000341015610a7e576040517f4784383d00000000000000000000000000000000000000000000000000000000815260040160405180910390fd5b610a88600861151c565b6001600982604051610a9a9190612b85565b908152602001604051809103902060006101000a81548160ff021916908360ff160217905550610aca84836115f4565b610ad48282611550565b8192505050919050565b600080610aea83611811565b9050600073ffffffffffffffffffffffffffffffffffffffff168173ffffffffffffffffffffffffffffffffffffffff1603610b5b576040517f08c379a0000000000000000000000000000000000000000000000000000000008152600401610b5290612be8565b60405180910390fd5b80915050919050565b60008073ffffffffffffffffffffffffffffffffffffffff168273ffffffffffffffffffffffffffffffffffffffff1603610bd4576040517f08c379a0000000000000000000000000000000000000000000000000000000008152600401610bcb90612c7a565b60405180910390fd5b600360008373ffffffffffffffffffffffffffffffffffffffff1673ffffffffffffffffffffffffffffffffffffffff168152602001908152602001600020549050919050565b610c236113d0565b610c2d600061184e565b565b6000600760009054906101000a900473ffffffffffffffffffffffffffffffffffffffff16905090565b606060018054610c689061283a565b80601f0160208091040260200160405190810160405280929190818152602001828054610c949061283a565b8015610ce15780601f10610cb657610100808354040283529160200191610ce1565b820191906000526020600020905b815481529060010190602001808311610cc457829003601f168201915b5050505050905090565b60006001600983604051610cff9190612b85565b908152602001604051809103902060009054906101000a900460ff1660ff16149050919050565b610d38610d31610f81565b8383611914565b5050565b610d4d610d47610f81565b83611042565b610d8c576040517f08c379a0000000000000000000000000000000000000000000000000000000008152600401610d8390612a01565b60405180910390fd5b610d9884848484611a80565b50505050565b6060610da982611adc565b9050919050565b6000600560008473ffffffffffffffffffffffffffffffffffffffff1673ffffffffffffffffffffffffffffffffffffffff16815260200190815260200160002060008373ffffffffffffffffffffffffffffffffffffffff1673ffffffffffffffffffffffffffffffffffffffff16815260200190815260200160002060009054906101000a900460ff16905092915050565b610e4c6113d0565b600073ffffffffffffffffffffffffffffffffffffffff168173ffffffffffffffffffffffffffffffffffffffff1603610ebb576040517f08c379a0000000000000000000000000000000000000000000000000000000008152600401610eb290612d0c565b60405180910390fd5b610ec48161184e565b50565b6000634906490660e01b7bffffffffffffffffffffffffffffffffffffffffffffffffffffffff1916827bffffffffffffffffffffffffffffffffffffffffffffffffffffffff19161480610f215750610f2082611bee565b5b9050919050565b600081600001549050919050565b610f3f81611cd0565b610f7e576040517f08c379a0000000000000000000000000000000000000000000000000000000008152600401610f7590612be8565b60405180910390fd5b50565b600033905090565b816004600083815260200190815260200160002060006101000a81548173ffffffffffffffffffffffffffffffffffffffff021916908373ffffffffffffffffffffffffffffffffffffffff160217905550808273ffffffffffffffffffffffffffffffffffffffff16610ffc83610ade565b73ffffffffffffffffffffffffffffffffffffffff167f8c5be1e5ebec7d5bd14f71427d1e84f3dd0314c0f7b2291e5b200ac8c7c3b92560405160405180910390a45050565b60008061104e83610ade565b90508073ffffffffffffffffffffffffffffffffffffffff168473ffffffffffffffffffffffffffffffffffffffff161480611090575061108f8185610db0565b5b806110ce57508373ffffffffffffffffffffffffffffffffffffffff166110b6846105cc565b73ffffffffffffffffffffffffffffffffffffffff16145b91505092915050565b8273ffffffffffffffffffffffffffffffffffffffff166110f782610ade565b73ffffffffffffffffffffffffffffffffffffffff161461114d576040517f08c379a000000000000000000000000000000000000000000000000000000000815260040161114490612d9e565b60405180910390fd5b600073ffffffffffffffffffffffffffffffffffffffff168273ffffffffffffffffffffffffffffffffffffffff16036111bc576040517f08c379a00000000000000000000000000000000000000000000000000000000081526004016111b390612e30565b60405180910390fd5b6111c98383836001611d11565b8273ffffffffffffffffffffffffffffffffffffffff166111e982610ade565b73ffffffffffffffffffffffffffffffffffffffff161461123f576040517f08c379a000000000000000000000000000000000000000000000000000000000815260040161123690612d9e565b60405180910390fd5b6004600082815260200190815260200160002060006101000a81549073ffffffffffffffffffffffffffffffffffffffff02191690556001600360008573ffffffffffffffffffffffffffffffffffffffff1673ffffffffffffffffffffffffffffffffffffffff168152602001908152602001600020600082825403925050819055506001600360008473ffffffffffffffffffffffffffffffffffffffff1673ffffffffffffffffffffffffffffffffffffffff16815260200190815260200160002060008282540192505081905550816002600083815260200190815260200160002060006101000a81548173ffffffffffffffffffffffffffffffffffffffff021916908373ffffffffffffffffffffffffffffffffffffffff160217905550808273ffffffffffffffffffffffffffffffffffffffff168473ffffffffffffffffffffffffffffffffffffffff167fddf252ad1be2c89b69c2b068fc378daa952ba7f163c4a11628f55a4df523b3ef60405160405180910390a46113cb8383836001611d17565b505050565b6113d8610f81565b73ffffffffffffffffffffffffffffffffffffffff166113f6610c2f565b73ffffffffffffffffffffffffffffffffffffffff161461144c576040517f08c379a000000000000000000000000000000000000000000000000000000000815260040161144390612e9c565b60405180910390fd5b565b60606000600161145d84611d1d565b01905060008167ffffffffffffffff81111561147c5761147b6124c7565b5b6040519080825280601f01601f1916602001820160405280156114ae5781602001600182028036833780820191505090505b509050600082602001820190505b600115611511578080600190039150507f3031323334353637383961626364656600000000000000000000000000000000600a86061a8153600a858161150557611504612ebc565b5b049450600085036114bc575b819350505050919050565b6001816000016000828254019250508190555050565b61154c828260405180602001604052806000815250611e70565b5050565b61155982611cd0565b611598576040517f08c379a000000000000000000000000000000000000000000000000000000000815260040161158f90612f5d565b60405180910390fd5b806006600084815260200190815260200160002090816115b89190613129565b507ff8e1a15aba9398e019f0b49df1a4fde98ee17ae345cb5f6b5e2c27f5033e8ce7826040516115e8919061224f565b60405180910390a15050565b600073ffffffffffffffffffffffffffffffffffffffff168273ffffffffffffffffffffffffffffffffffffffff1603611663576040517f08c379a000000000000000000000000000000000000000000000000000000000815260040161165a90613247565b60405180910390fd5b61166c81611cd0565b156116ac576040517f08c379a00000000000000000000000000000000000000000000000000000000081526004016116a3906132b3565b60405180910390fd5b6116ba600083836001611d11565b6116c381611cd0565b15611703576040517f08c379a00000000000000000000000000000000000000000000000000000000081526004016116fa906132b3565b60405180910390fd5b6001600360008473ffffffffffffffffffffffffffffffffffffffff1673ffffffffffffffffffffffffffffffffffffffff16815260200190815260200160002060008282540192505081905550816002600083815260200190815260200160002060006101000a81548173ffffffffffffffffffffffffffffffffffffffff021916908373ffffffffffffffffffffffffffffffffffffffff160217905550808273ffffffffffffffffffffffffffffffffffffffff16600073ffffffffffffffffffffffffffffffffffffffff167fddf252ad1be2c89b69c2b068fc378daa952ba7f163c4a11628f55a4df523b3ef60405160405180910390a461180d600083836001611d17565b5050565b60006002600083815260200190815260200160002060009054906101000a900473ffffffffffffffffffffffffffffffffffffffff169050919050565b6000600760009054906101000a900473ffffffffffffffffffffffffffffffffffffffff16905081600760006101000a81548173ffffffffffffffffffffffffffffffffffffffff021916908373ffffffffffffffffffffffffffffffffffffffff1602179055508173ffffffffffffffffffffffffffffffffffffffff168173ffffffffffffffffffffffffffffffffffffffff167f8be0079c531659141344cd1fd0a4f28419497f9722a3daafe3b4186f6b6457e060405160405180910390a35050565b8173ffffffffffffffffffffffffffffffffffffffff168373ffffffffffffffffffffffffffffffffffffffff1603611982576040517f08c379a00000000000000000000000000000000000000000000000000000000081526004016119799061331f565b60405180910390fd5b80600560008573ffffffffffffffffffffffffffffffffffffffff1673ffffffffffffffffffffffffffffffffffffffff16815260200190815260200160002060008473ffffffffffffffffffffffffffffffffffffffff1673ffffffffffffffffffffffffffffffffffffffff16815260200190815260200160002060006101000a81548160ff0219169083151502179055508173ffffffffffffffffffffffffffffffffffffffff168373ffffffffffffffffffffffffffffffffffffffff167f17307eab39ab6107e8899845ad3d59bd9653f200f220920489ca2b5937696c3183604051611a73919061221b565b60405180910390a3505050565b611a8b8484846110d7565b611a9784848484611ecb565b611ad6576040517f08c379a0000000000000000000000000000000000000000000000000000000008152600401611acd906133b1565b60405180910390fd5b50505050565b6060611ae782610f36565b6000600660008481526020019081526020016000208054611b079061283a565b80601f0160208091040260200160405190810160405280929190818152602001828054611b339061283a565b8015611b805780601f10611b5557610100808354040283529160200191611b80565b820191906000526020600020905b815481529060010190602001808311611b6357829003601f168201915b505050505090506000611b91612052565b90506000815103611ba6578192505050611be9565b600082511115611bdb578082604051602001611bc39291906133d1565b60405160208183030381529060405292505050611be9565b611be484612072565b925050505b919050565b60007f80ac58cd000000000000000000000000000000000000000000000000000000007bffffffffffffffffffffffffffffffffffffffffffffffffffffffff1916827bffffffffffffffffffffffffffffffffffffffffffffffffffffffff19161480611cb957507f5b5e139f000000000000000000000000000000000000000000000000000000007bffffffffffffffffffffffffffffffffffffffffffffffffffffffff1916827bffffffffffffffffffffffffffffffffffffffffffffffffffffffff1916145b80611cc95750611cc8826120da565b5b9050919050565b60008073ffffffffffffffffffffffffffffffffffffffff16611cf283611811565b73ffffffffffffffffffffffffffffffffffffffff1614159050919050565b50505050565b50505050565b600080600090507a184f03e93ff9f4daa797ed6e38ed64bf6a1f0100000000000000008310611d7b577a184f03e93ff9f4daa797ed6e38ed64bf6a1f0100000000000000008381611d7157611d70612ebc565b5b0492506040810190505b6d04ee2d6d415b85acef81000000008310611db8576d04ee2d6d415b85acef81000000008381611dae57611dad612ebc565b5b0492506020810190505b662386f26fc100008310611de757662386f26fc100008381611ddd57611ddc612ebc565b5b0492506010810190505b6305f5e1008310611e10576305f5e1008381611e0657611e05612ebc565b5b0492506008810190505b6127108310611e35576127108381611e2b57611e2a612ebc565b5b0492506004810190505b60648310611e585760648381611e4e57611e4d612ebc565b5b0492506002810190505b600a8310611e67576001810190505b80915050919050565b611e7a83836115f4565b611e876000848484611ecb565b611ec6576040517f08c379a0000000000000000000000000000000000000000000000000000000008152600401611ebd906133b1565b60405180910390fd5b505050565b6000611eec8473ffffffffffffffffffffffffffffffffffffffff16612144565b15612045578373ffffffffffffffffffffffffffffffffffffffff1663150b7a02611f15610f81565b8786866040518563ffffffff1660e01b8152600401611f37949392919061344a565b6020604051808303816000875af1925050508015611f7357506040513d601f19601f82011682018060405250810190611f7091906134ab565b60015b611ff5573d8060008114611fa3576040519150601f19603f3d011682016040523d82523d6000602084013e611fa8565b606091505b506000815103611fed576040517f08c379a0000000000000000000000000000000000000000000000000000000008152600401611fe4906133b1565b60405180910390fd5b805181602001fd5b63150b7a0260e01b7bffffffffffffffffffffffffffffffffffffffffffffffffffffffff1916817bffffffffffffffffffffffffffffffffffffffffffffffffffffffff19161491505061204a565b600190505b949350505050565b60606040518060600160405280603681526020016134d960369139905090565b606061207d82610f36565b6000612087612052565b905060008151116120a757604051806020016040528060008152506120d2565b806120b18461144e565b6040516020016120c29291906133d1565b6040516020818303038152906040525b915050919050565b60007f01ffc9a7000000000000000000000000000000000000000000000000000000007bffffffffffffffffffffffffffffffffffffffffffffffffffffffff1916827bffffffffffffffffffffffffffffffffffffffffffffffffffffffff1916149050919050565b6000808273ffffffffffffffffffffffffffffffffffffffff163b119050919050565b6000604051905090565b600080fd5b600080fd5b60007fffffffff0000000000000000000000000000000000000000000000000000000082169050919050565b6121b08161217b565b81146121bb57600080fd5b50565b6000813590506121cd816121a7565b92915050565b6000602082840312156121e9576121e8612171565b5b60006121f7848285016121be565b91505092915050565b60008115159050919050565b61221581612200565b82525050565b6000602082019050612230600083018461220c565b92915050565b6000819050919050565b61224981612236565b82525050565b60006020820190506122646000830184612240565b92915050565b600081519050919050565b600082825260208201905092915050565b60005b838110156122a4578082015181840152602081019050612289565b60008484015250505050565b6000601f19601f8301169050919050565b60006122cc8261226a565b6122d68185612275565b93506122e6818560208601612286565b6122ef816122b0565b840191505092915050565b6000602082019050818103600083015261231481846122c1565b905092915050565b61232581612236565b811461233057600080fd5b50565b6000813590506123428161231c565b92915050565b60006020828403121561235e5761235d612171565b5b600061236c84828501612333565b91505092915050565b600073ffffffffffffffffffffffffffffffffffffffff82169050919050565b60006123a082612375565b9050919050565b6123b081612395565b82525050565b60006020820190506123cb60008301846123a7565b92915050565b6123da81612395565b81146123e557600080fd5b50565b6000813590506123f7816123d1565b92915050565b6000806040838503121561241457612413612171565b5b6000612422858286016123e8565b925050602061243385828601612333565b9150509250929050565b60008060006060848603121561245657612455612171565b5b6000612464868287016123e8565b9350506020612475868287016123e8565b925050604061248686828701612333565b9150509250925092565b6000602082840312156124a6576124a5612171565b5b60006124b4848285016123e8565b91505092915050565b600080fd5b600080fd5b7f4e487b7100000000000000000000000000000000000000000000000000000000600052604160045260246000fd5b6124ff826122b0565b810181811067ffffffffffffffff8211171561251e5761251d6124c7565b5b80604052505050565b6000612531612167565b905061253d82826124f6565b919050565b600067ffffffffffffffff82111561255d5761255c6124c7565b5b612566826122b0565b9050602081019050919050565b82818337600083830152505050565b600061259561259084612542565b612527565b9050828152602081018484840111156125b1576125b06124c2565b5b6125bc848285612573565b509392505050565b600082601f8301126125d9576125d86124bd565b5b81356125e9848260208601612582565b91505092915050565b60006020828403121561260857612607612171565b5b600082013567ffffffffffffffff81111561262657612625612176565b5b612632848285016125c4565b91505092915050565b61264481612200565b811461264f57600080fd5b50565b6000813590506126618161263b565b92915050565b6000806040838503121561267e5761267d612171565b5b600061268c858286016123e8565b925050602061269d85828601612652565b9150509250929050565b600067ffffffffffffffff8211156126c2576126c16124c7565b5b6126cb826122b0565b9050602081019050919050565b60006126eb6126e6846126a7565b612527565b905082815260208101848484011115612707576127066124c2565b5b612712848285612573565b509392505050565b600082601f83011261272f5761272e6124bd565b5b813561273f8482602086016126d8565b91505092915050565b6000806000806080858703121561276257612761612171565b5b6000612770878288016123e8565b9450506020612781878288016123e8565b935050604061279287828801612333565b925050606085013567ffffffffffffffff8111156127b3576127b2612176565b5b6127bf8782880161271a565b91505092959194509250565b600080604083850312156127e2576127e1612171565b5b60006127f0858286016123e8565b9250506020612801858286016123e8565b9150509250929050565b7f4e487b7100000000000000000000000000000000000000000000000000000000600052602260045260246000fd5b6000600282049050600182168061285257607f821691505b6020821081036128655761286461280b565b5b50919050565b7f4552433732313a20617070726f76616c20746f2063757272656e74206f776e6560008201527f7200000000000000000000000000000000000000000000000000000000000000602082015250565b60006128c7602183612275565b91506128d28261286b565b604082019050919050565b600060208201905081810360008301526128f6816128ba565b9050919050565b7f4552433732313a20617070726f76652063616c6c6572206973206e6f7420746f60008201527f6b656e206f776e6572206f7220617070726f76656420666f7220616c6c000000602082015250565b6000612959603d83612275565b9150612964826128fd565b604082019050919050565b600060208201905081810360008301526129888161294c565b9050919050565b7f4552433732313a2063616c6c6572206973206e6f7420746f6b656e206f776e6560008201527f72206f7220617070726f76656400000000000000000000000000000000000000602082015250565b60006129eb602d83612275565b91506129f68261298f565b604082019050919050565b60006020820190508181036000830152612a1a816129de565b9050919050565b7f4e487b7100000000000000000000000000000000000000000000000000000000600052601160045260246000fd5b6000612a5b82612236565b9150612a6683612236565b9250828201905080821115612a7e57612a7d612a21565b5b92915050565b600081905092915050565b7f736b696e00000000000000000000000000000000000000000000000000000000600082015250565b6000612ac5600483612a84565b9150612ad082612a8f565b600482019050919050565b6000612ae68261226a565b612af08185612a84565b9350612b00818560208601612286565b80840191505092915050565b7f2e6a736f6e000000000000000000000000000000000000000000000000000000600082015250565b6000612b42600583612a84565b9150612b4d82612b0c565b600582019050919050565b6000612b6382612ab8565b9150612b6f8284612adb565b9150612b7a82612b35565b915081905092915050565b6000612b918284612adb565b915081905092915050565b7f4552433732313a20696e76616c696420746f6b656e2049440000000000000000600082015250565b6000612bd2601883612275565b9150612bdd82612b9c565b602082019050919050565b60006020820190508181036000830152612c0181612bc5565b9050919050565b7f4552433732313a2061646472657373207a65726f206973206e6f74206120766160008201527f6c6964206f776e65720000000000000000000000000000000000000000000000602082015250565b6000612c64602983612275565b9150612c6f82612c08565b604082019050919050565b60006020820190508181036000830152612c9381612c57565b9050919050565b7f4f776e61626c653a206e6577206f776e657220697320746865207a65726f206160008201527f6464726573730000000000000000000000000000000000000000000000000000602082015250565b6000612cf6602683612275565b9150612d0182612c9a565b604082019050919050565b60006020820190508181036000830152612d2581612ce9565b9050919050565b7f4552433732313a207472616e736665722066726f6d20696e636f72726563742060008201527f6f776e6572000000000000000000000000000000000000000000000000000000602082015250565b6000612d88602583612275565b9150612d9382612d2c565b604082019050919050565b60006020820190508181036000830152612db781612d7b565b9050919050565b7f4552433732313a207472616e7366657220746f20746865207a65726f2061646460008201527f7265737300000000000000000000000000000000000000000000000000000000602082015250565b6000612e1a602483612275565b9150612e2582612dbe565b604082019050919050565b60006020820190508181036000830152612e4981612e0d565b9050919050565b7f4f776e61626c653a2063616c6c6572206973206e6f7420746865206f776e6572600082015250565b6000612e86602083612275565b9150612e9182612e50565b602082019050919050565b60006020820190508181036000830152612eb581612e79565b9050919050565b7f4e487b7100000000000000000000000000000000000000000000000000000000600052601260045260246000fd5b7f45524337323155524953746f726167653a2055524920736574206f66206e6f6e60008201527f6578697374656e7420746f6b656e000000000000000000000000000000000000602082015250565b6000612f47602e83612275565b9150612f5282612eeb565b604082019050919050565b60006020820190508181036000830152612f7681612f3a565b9050919050565b60008190508160005260206000209050919050565b60006020601f8301049050919050565b600082821b905092915050565b600060088302612fdf7fffffffffffffffffffffffffffffffffffffffffffffffffffffffffffffffff82612fa2565b612fe98683612fa2565b95508019841693508086168417925050509392505050565b6000819050919050565b600061302661302161301c84612236565b613001565b612236565b9050919050565b6000819050919050565b6130408361300b565b61305461304c8261302d565b848454612faf565b825550505050565b600090565b61306961305c565b613074818484613037565b505050565b5b818110156130985761308d600082613061565b60018101905061307a565b5050565b601f8211156130dd576130ae81612f7d565b6130b784612f92565b810160208510156130c6578190505b6130da6130d285612f92565b830182613079565b50505b505050565b600082821c905092915050565b6000613100600019846008026130e2565b1980831691505092915050565b600061311983836130ef565b9150826002028217905092915050565b6131328261226a565b67ffffffffffffffff81111561314b5761314a6124c7565b5b613155825461283a565b61316082828561309c565b600060209050601f8311600181146131935760008415613181578287015190505b61318b858261310d565b8655506131f3565b601f1984166131a186612f7d565b60005b828110156131c9578489015182556001820191506020850194506020810190506131a4565b868310156131e657848901516131e2601f8916826130ef565b8355505b6001600288020188555050505b505050505050565b7f4552433732313a206d696e7420746f20746865207a65726f2061646472657373600082015250565b6000613231602083612275565b915061323c826131fb565b602082019050919050565b6000602082019050818103600083015261326081613224565b9050919050565b7f4552433732313a20746f6b656e20616c7265616479206d696e74656400000000600082015250565b600061329d601c83612275565b91506132a882613267565b602082019050919050565b600060208201905081810360008301526132cc81613290565b9050919050565b7f4552433732313a20617070726f766520746f2063616c6c657200000000000000600082015250565b6000613309601983612275565b9150613314826132d3565b602082019050919050565b60006020820190508181036000830152613338816132fc565b9050919050565b7f4552433732313a207472616e7366657220746f206e6f6e20455243373231526560008201527f63656976657220696d706c656d656e7465720000000000000000000000000000602082015250565b600061339b603283612275565b91506133a68261333f565b604082019050919050565b600060208201905081810360008301526133ca8161338e565b9050919050565b60006133dd8285612adb565b91506133e98284612adb565b91508190509392505050565b600081519050919050565b600082825260208201905092915050565b600061341c826133f5565b6134268185613400565b9350613436818560208601612286565b61343f816122b0565b840191505092915050565b600060808201905061345f60008301876123a7565b61346c60208301866123a7565b6134796040830185612240565b818103606083015261348b8184613411565b905095945050505050565b6000815190506134a5816121a7565b92915050565b6000602082840312156134c1576134c0612171565b5b60006134cf84828501613496565b9150509291505056fe697066733a2f2f516d5868776146544c56595a4c72334b6b7173636e457650766d4467715733573848673972483931644b434368592fa264697066735822122085db04f8710d4b6a5091344f998b89cca5b834b9cb51e41e930410e5a455a3a464736f6c63430008110033",
  "devdoc": {
    "author": "Rodrigo Fernandes",
    "kind": "dev",
    "methods": {
      "approve(address,uint256)": {
        "details": "See {IERC721-approve}."
      },
      "balanceOf(address)": {
        "details": "See {IERC721-balanceOf}."
      },
      "count()": {
        "returns": {
          "_0": "the total number of NFTs minted"
        }
      },
      "getApproved(uint256)": {
        "details": "See {IERC721-getApproved}."
      },
      "isApprovedForAll(address,address)": {
        "details": "See {IERC721-isApprovedForAll}."
      },
      "isContentOwned(string)": {
        "params": {
          "uri": "the URI to be checked"
        },
        "returns": {
          "_0": "boolean variable that is true if the URI is already owned by a NFT, false otherwise"
        }
      },
      "name()": {
        "details": "See {IERC721Metadata-name}."
      },
      "owner()": {
        "details": "Returns the address of the current owner."
      },
      "ownerOf(uint256)": {
        "details": "See {IERC721-ownerOf}."
      },
      "payToMint(address)": {
        "params": {
          "recipient": "the address of the recipient of the NFT"
        },
        "returns": {
          "_0": "the id of the newly minted NFT"
        }
      },
      "renounceOwnership()": {
        "details": "Leaves the contract without owner. It will not be possible to call `onlyOwner` functions. Can only be called by the current owner. NOTE: Renouncing ownership will leave the contract without an owner, thereby disabling any functionality that is only available to the owner."
      },
      "safeMint(address)": {
        "params": {
          "recipient": "the address of the recipient of the NFT"
        },
        "returns": {
          "_0": "the id of the newly minted NFT"
        }
      },
      "safeTransferFrom(address,address,uint256)": {
        "details": "See {IERC721-safeTransferFrom}."
      },
      "safeTransferFrom(address,address,uint256,bytes)": {
        "details": "See {IERC721-safeTransferFrom}."
      },
      "setApprovalForAll(address,bool)": {
        "details": "See {IERC721-setApprovalForAll}."
      },
      "supportsInterface(bytes4)": {
        "params": {
          "interfaceId": "the ID of the interface that is being checked"
        }
      },
      "symbol()": {
        "details": "See {IERC721Metadata-symbol}."
      },
      "tokenURI(uint256)": {
        "params": {
          "tokenId": "the id of the NFT whose URI is to be returned"
        }
      },
      "transferFrom(address,address,uint256)": {
        "details": "See {IERC721-transferFrom}."
      },
      "transferOwnership(address)": {
        "details": "Transfers ownership of the contract to a new account (`newOwner`). Can only be called by the current owner."
      }
    },
    "title": "A simple NFT collection Counter Strike skins",
    "version": 1
  },
  "userdoc": {
    "kind": "user",
    "methods": {
      "count()": {
        "notice": "This function is used to get the total number of NFTs minted"
      },
      "isContentOwned(string)": {
        "notice": "This function is used to check if a given URI is already owned by a NFT"
      },
      "payToMint(address)": {
        "notice": "This function is used to mint a new NFT"
      },
      "safeMint(address)": {
        "notice": "This function is used to mint a new NFT for free and can only be called by the owner of the contract"
      },
      "supportsInterface(bytes4)": {
        "notice": "This function is used to check if a given interface is supported by the contract"
      },
      "tokenURI(uint256)": {
        "notice": "This function is used to get the URI of a given NFT"
      },
      "withdraw()": {
        "notice": "This function is used to withdraw the funds of the contract and can only be called by the owner of the contract"
      }
    },
    "notice": "This contract is meant to support the NFT collection of Counter Strike skins",
    "version": 1
  },
  "storageLayout": {
    "storage": [
      {
        "astId": 166,
        "contract": "contracts/CounterStrikeNFT.sol:CounterStrikeNFT",
        "label": "_name",
        "offset": 0,
        "slot": "0",
        "type": "t_string_storage"
      },
      {
        "astId": 168,
        "contract": "contracts/CounterStrikeNFT.sol:CounterStrikeNFT",
        "label": "_symbol",
        "offset": 0,
        "slot": "1",
        "type": "t_string_storage"
      },
      {
        "astId": 172,
        "contract": "contracts/CounterStrikeNFT.sol:CounterStrikeNFT",
        "label": "_owners",
        "offset": 0,
        "slot": "2",
        "type": "t_mapping(t_uint256,t_address)"
      },
      {
        "astId": 176,
        "contract": "contracts/CounterStrikeNFT.sol:CounterStrikeNFT",
        "label": "_balances",
        "offset": 0,
        "slot": "3",
        "type": "t_mapping(t_address,t_uint256)"
      },
      {
        "astId": 180,
        "contract": "contracts/CounterStrikeNFT.sol:CounterStrikeNFT",
        "label": "_tokenApprovals",
        "offset": 0,
        "slot": "4",
        "type": "t_mapping(t_uint256,t_address)"
      },
      {
        "astId": 186,
        "contract": "contracts/CounterStrikeNFT.sol:CounterStrikeNFT",
        "label": "_operatorApprovals",
        "offset": 0,
        "slot": "5",
        "type": "t_mapping(t_address,t_mapping(t_address,t_bool))"
      },
      {
        "astId": 1217,
        "contract": "contracts/CounterStrikeNFT.sol:CounterStrikeNFT",
        "label": "_tokenURIs",
        "offset": 0,
        "slot": "6",
        "type": "t_mapping(t_uint256,t_string_storage)"
      },
      {
        "astId": 7,
        "contract": "contracts/CounterStrikeNFT.sol:CounterStrikeNFT",
        "label": "_owner",
        "offset": 0,
        "slot": "7",
        "type": "t_address"
      },
      {
        "astId": 3399,
        "contract": "contracts/CounterStrikeNFT.sol:CounterStrikeNFT",
        "label": "_tokenIdCounter",
        "offset": 0,
        "slot": "8",
        "type": "t_struct(Counter)1742_storage"
      },
      {
        "astId": 3403,
        "contract": "contracts/CounterStrikeNFT.sol:CounterStrikeNFT",
        "label": "s_existingURIs",
        "offset": 0,
        "slot": "9",
        "type": "t_mapping(t_string_memory_ptr,t_uint8)"
      }
    ],
    "types": {
      "t_address": {
        "encoding": "inplace",
        "label": "address",
        "numberOfBytes": "20"
      },
      "t_bool": {
        "encoding": "inplace",
        "label": "bool",
        "numberOfBytes": "1"
      },
      "t_mapping(t_address,t_bool)": {
        "encoding": "mapping",
        "key": "t_address",
        "label": "mapping(address => bool)",
        "numberOfBytes": "32",
        "value": "t_bool"
      },
      "t_mapping(t_address,t_mapping(t_address,t_bool))": {
        "encoding": "mapping",
        "key": "t_address",
        "label": "mapping(address => mapping(address => bool))",
        "numberOfBytes": "32",
        "value": "t_mapping(t_address,t_bool)"
      },
      "t_mapping(t_address,t_uint256)": {
        "encoding": "mapping",
        "key": "t_address",
        "label": "mapping(address => uint256)",
        "numberOfBytes": "32",
        "value": "t_uint256"
      },
      "t_mapping(t_string_memory_ptr,t_uint8)": {
        "encoding": "mapping",
        "key": "t_string_memory_ptr",
        "label": "mapping(string => uint8)",
        "numberOfBytes": "32",
        "value": "t_uint8"
      },
      "t_mapping(t_uint256,t_address)": {
        "encoding": "mapping",
        "key": "t_uint256",
        "label": "mapping(uint256 => address)",
        "numberOfBytes": "32",
        "value": "t_address"
      },
      "t_mapping(t_uint256,t_string_storage)": {
        "encoding": "mapping",
        "key": "t_uint256",
        "label": "mapping(uint256 => string)",
        "numberOfBytes": "32",
        "value": "t_string_storage"
      },
      "t_string_memory_ptr": {
        "encoding": "bytes",
        "label": "string",
        "numberOfBytes": "32"
      },
      "t_string_storage": {
        "encoding": "bytes",
        "label": "string",
        "numberOfBytes": "32"
      },
      "t_struct(Counter)1742_storage": {
        "encoding": "inplace",
        "label": "struct Counters.Counter",
        "members": [
          {
            "astId": 1741,
            "contract": "contracts/CounterStrikeNFT.sol:CounterStrikeNFT",
            "label": "_value",
            "offset": 0,
            "slot": "0",
            "type": "t_uint256"
          }
        ],
        "numberOfBytes": "32"
      },
      "t_uint256": {
        "encoding": "inplace",
        "label": "uint256",
        "numberOfBytes": "32"
      },
      "t_uint8": {
        "encoding": "inplace",
        "label": "uint8",
        "numberOfBytes": "1"
      }
    }
  }
}