{
  "address": "0x5FbDB2315678afecb367f032d93F642f64180aa3",
  "abi": [
    {
      "inputs": [],
      "stateMutability": "nonpayable",
      "type": "constructor"
    },
    {
      "inputs": [],
      "name": "CounterStrikeNFT__MaxSupplyReached",
      "type": "error"
    },
    {
      "inputs": [],
      "name": "CounterStrikeNFT__NFTAlreadyMinted",
      "type": "error"
    },
    {
      "inputs": [],
      "name": "CounterStrikeNFT__NeedToPayUp",
      "type": "error"
    },
    {
      "anonymous": false,
      "inputs": [
        {
          "indexed": true,
          "internalType": "address",
          "name": "owner",
          "type": "address"
        },
        {
          "indexed": true,
          "internalType": "address",
          "name": "approved",
          "type": "address"
        },
        {
          "indexed": true,
          "internalType": "uint256",
          "name": "tokenId",
          "type": "uint256"
        }
      ],
      "name": "Approval",
      "type": "event"
    },
    {
      "anonymous": false,
      "inputs": [
        {
          "indexed": true,
          "internalType": "address",
          "name": "owner",
          "type": "address"
        },
        {
          "indexed": true,
          "internalType": "address",
          "name": "operator",
          "type": "address"
        },
        {
          "indexed": false,
          "internalType": "bool",
          "name": "approved",
          "type": "bool"
        }
      ],
      "name": "ApprovalForAll",
      "type": "event"
    },
    {
      "anonymous": false,
      "inputs": [
        {
          "indexed": false,
          "internalType": "uint256",
          "name": "_fromTokenId",
          "type": "uint256"
        },
        {
          "indexed": false,
          "internalType": "uint256",
          "name": "_toTokenId",
          "type": "uint256"
        }
      ],
      "name": "BatchMetadataUpdate",
      "type": "event"
    },
    {
      "anonymous": false,
      "inputs": [
        {
          "indexed": false,
          "internalType": "uint256",
          "name": "_tokenId",
          "type": "uint256"
        }
      ],
      "name": "MetadataUpdate",
      "type": "event"
    },
    {
      "anonymous": false,
      "inputs": [
        {
          "indexed": true,
          "internalType": "address",
          "name": "previousOwner",
          "type": "address"
        },
        {
          "indexed": true,
          "internalType": "address",
          "name": "newOwner",
          "type": "address"
        }
      ],
      "name": "OwnershipTransferred",
      "type": "event"
    },
    {
      "anonymous": false,
      "inputs": [
        {
          "indexed": true,
          "internalType": "address",
          "name": "from",
          "type": "address"
        },
        {
          "indexed": true,
          "internalType": "address",
          "name": "to",
          "type": "address"
        },
        {
          "indexed": true,
          "internalType": "uint256",
          "name": "tokenId",
          "type": "uint256"
        }
      ],
      "name": "Transfer",
      "type": "event"
    },
    {
      "inputs": [
        {
          "internalType": "address",
          "name": "to",
          "type": "address"
        },
        {
          "internalType": "uint256",
          "name": "tokenId",
          "type": "uint256"
        }
      ],
      "name": "approve",
      "outputs": [],
      "stateMutability": "nonpayable",
      "type": "function"
    },
    {
      "inputs": [
        {
          "internalType": "address",
          "name": "owner",
          "type": "address"
        }
      ],
      "name": "balanceOf",
      "outputs": [
        {
          "internalType": "uint256",
          "name": "",
          "type": "uint256"
        }
      ],
      "stateMutability": "view",
      "type": "function"
    },
    {
      "inputs": [],
      "name": "count",
      "outputs": [
        {
          "internalType": "uint256",
          "name": "",
          "type": "uint256"
        }
      ],
      "stateMutability": "view",
      "type": "function"
    },
    {
      "inputs": [
        {
          "internalType": "uint256",
          "name": "tokenId",
          "type": "uint256"
        }
      ],
      "name": "getApproved",
      "outputs": [
        {
          "internalType": "address",
          "name": "",
          "type": "address"
        }
      ],
      "stateMutability": "view",
      "type": "function"
    },
    {
      "inputs": [
        {
          "internalType": "address",
          "name": "owner",
          "type": "address"
        },
        {
          "internalType": "address",
          "name": "operator",
          "type": "address"
        }
      ],
      "name": "isApprovedForAll",
      "outputs": [
        {
          "internalType": "bool",
          "name": "",
          "type": "bool"
        }
      ],
      "stateMutability": "view",
      "type": "function"
    },
    {
      "inputs": [
        {
          "internalType": "string",
          "name": "uri",
          "type": "string"
        }
      ],
      "name": "isContentOwned",
      "outputs": [
        {
          "internalType": "bool",
          "name": "",
          "type": "bool"
        }
      ],
      "stateMutability": "view",
      "type": "function"
    },
    {
      "inputs": [],
      "name": "name",
      "outputs": [
        {
          "internalType": "string",
          "name": "",
          "type": "string"
        }
      ],
      "stateMutability": "view",
      "type": "function"
    },
    {
      "inputs": [],
      "name": "owner",
      "outputs": [
        {
          "internalType": "address",
          "name": "",
          "type": "address"
        }
      ],
      "stateMutability": "view",
      "type": "function"
    },
    {
      "inputs": [
        {
          "internalType": "uint256",
          "name": "tokenId",
          "type": "uint256"
        }
      ],
      "name": "ownerOf",
      "outputs": [
        {
          "internalType": "address",
          "name": "",
          "type": "address"
        }
      ],
      "stateMutability": "view",
      "type": "function"
    },
    {
      "inputs": [
        {
          "internalType": "address",
          "name": "recipient",
          "type": "address"
        }
      ],
      "name": "payToMint",
      "outputs": [
        {
          "internalType": "uint256",
          "name": "",
          "type": "uint256"
        }
      ],
      "stateMutability": "payable",
      "type": "function"
    },
    {
      "inputs": [],
      "name": "renounceOwnership",
      "outputs": [],
      "stateMutability": "nonpayable",
      "type": "function"
    },
    {
      "inputs": [
        {
          "internalType": "address",
          "name": "to",
          "type": "address"
        },
        {
          "internalType": "string",
          "name": "uri",
          "type": "string"
        }
      ],
      "name": "safeMint",
      "outputs": [],
      "stateMutability": "nonpayable",
      "type": "function"
    },
    {
      "inputs": [
        {
          "internalType": "address",
          "name": "from",
          "type": "address"
        },
        {
          "internalType": "address",
          "name": "to",
          "type": "address"
        },
        {
          "internalType": "uint256",
          "name": "tokenId",
          "type": "uint256"
        }
      ],
      "name": "safeTransferFrom",
      "outputs": [],
      "stateMutability": "nonpayable",
      "type": "function"
    },
    {
      "inputs": [
        {
          "internalType": "address",
          "name": "from",
          "type": "address"
        },
        {
          "internalType": "address",
          "name": "to",
          "type": "address"
        },
        {
          "internalType": "uint256",
          "name": "tokenId",
          "type": "uint256"
        },
        {
          "internalType": "bytes",
          "name": "data",
          "type": "bytes"
        }
      ],
      "name": "safeTransferFrom",
      "outputs": [],
      "stateMutability": "nonpayable",
      "type": "function"
    },
    {
      "inputs": [
        {
          "internalType": "address",
          "name": "operator",
          "type": "address"
        },
        {
          "internalType": "bool",
          "name": "approved",
          "type": "bool"
        }
      ],
      "name": "setApprovalForAll",
      "outputs": [],
      "stateMutability": "nonpayable",
      "type": "function"
    },
    {
      "inputs": [
        {
          "internalType": "bytes4",
          "name": "interfaceId",
          "type": "bytes4"
        }
      ],
      "name": "supportsInterface",
      "outputs": [
        {
          "internalType": "bool",
          "name": "",
          "type": "bool"
        }
      ],
      "stateMutability": "view",
      "type": "function"
    },
    {
      "inputs": [],
      "name": "symbol",
      "outputs": [
        {
          "internalType": "string",
          "name": "",
          "type": "string"
        }
      ],
      "stateMutability": "view",
      "type": "function"
    },
    {
      "inputs": [
        {
          "internalType": "uint256",
          "name": "tokenId",
          "type": "uint256"
        }
      ],
      "name": "tokenURI",
      "outputs": [
        {
          "internalType": "string",
          "name": "",
          "type": "string"
        }
      ],
      "stateMutability": "view",
      "type": "function"
    },
    {
      "inputs": [
        {
          "internalType": "address",
          "name": "from",
          "type": "address"
        },
        {
          "internalType": "address",
          "name": "to",
          "type": "address"
        },
        {
          "internalType": "uint256",
          "name": "tokenId",
          "type": "uint256"
        }
      ],
      "name": "transferFrom",
      "outputs": [],
      "stateMutability": "nonpayable",
      "type": "function"
    },
    {
      "inputs": [
        {
          "internalType": "address",
          "name": "newOwner",
          "type": "address"
        }
      ],
      "name": "transferOwnership",
      "outputs": [],
      "stateMutability": "nonpayable",
      "type": "function"
    },
    {
      "inputs": [],
      "name": "withdraw",
      "outputs": [],
      "stateMutability": "nonpayable",
      "type": "function"
    }
  ],
  "transactionHash": "0x10b9d09614fd88edc89463a3e3acfb911840f8a49985baebd802ac0a377f45c4",
  "args": [],
  "numDeployments": 1,
  "solcInputHash": "bed75019ef1685aaab07681c3ffaebf0",
  "bytecode": "0x60806040523480156200001157600080fd5b506040518060400160405280600d81526020017f436f756e746572537472696b65000000000000000000000000000000000000008152506040518060400160405280600481526020017f4353474f0000000000000000000000000000000000000000000000000000000081525081600090816200008f919062000412565b508060019081620000a1919062000412565b505050620000c4620000b8620000ca60201b60201c565b620000d260201b60201c565b620004f9565b600033905090565b6000600760009054906101000a900473ffffffffffffffffffffffffffffffffffffffff16905081600760006101000a81548173ffffffffffffffffffffffffffffffffffffffff021916908373ffffffffffffffffffffffffffffffffffffffff1602179055508173ffffffffffffffffffffffffffffffffffffffff168173ffffffffffffffffffffffffffffffffffffffff167f8be0079c531659141344cd1fd0a4f28419497f9722a3daafe3b4186f6b6457e060405160405180910390a35050565b600081519050919050565b7f4e487b7100000000000000000000000000000000000000000000000000000000600052604160045260246000fd5b7f4e487b7100000000000000000000000000000000000000000000000000000000600052602260045260246000fd5b600060028204905060018216806200021a57607f821691505b60208210810362000230576200022f620001d2565b5b50919050565b60008190508160005260206000209050919050565b60006020601f8301049050919050565b600082821b905092915050565b6000600883026200029a7fffffffffffffffffffffffffffffffffffffffffffffffffffffffffffffffff826200025b565b620002a686836200025b565b95508019841693508086168417925050509392505050565b6000819050919050565b6000819050919050565b6000620002f3620002ed620002e784620002be565b620002c8565b620002be565b9050919050565b6000819050919050565b6200030f83620002d2565b620003276200031e82620002fa565b84845462000268565b825550505050565b600090565b6200033e6200032f565b6200034b81848462000304565b505050565b5b8181101562000373576200036760008262000334565b60018101905062000351565b5050565b601f821115620003c2576200038c8162000236565b62000397846200024b565b81016020851015620003a7578190505b620003bf620003b6856200024b565b83018262000350565b50505b505050565b600082821c905092915050565b6000620003e760001984600802620003c7565b1980831691505092915050565b6000620004028383620003d4565b9150826002028217905092915050565b6200041d8262000198565b67ffffffffffffffff811115620004395762000438620001a3565b5b62000445825462000201565b6200045282828562000377565b600060209050601f8311600181146200048a576000841562000475578287015190505b620004818582620003f4565b865550620004f1565b601f1984166200049a8662000236565b60005b82811015620004c4578489015182556001820191506020850194506020810190506200049d565b86831015620004e45784890151620004e0601f891682620003d4565b8355505b6001600288020188555050505b505050505050565b6134aa80620005096000396000f3fe60806040526004361061012a5760003560e01c806370a08231116100ab578063a22cb4651161006f578063a22cb465146103e5578063b88d4fde1461040e578063c87b56dd14610437578063d204c45e14610474578063e985e9c51461049d578063f2fde38b146104da5761012a565b806370a08231146102fe578063715018a61461033b5780638da5cb5b1461035257806395d89b411461037d5780639f1cabc6146103a85761012a565b806323b872dd116100f257806323b872dd146102285780633ccfd60b1461025157806342842e0e14610268578063585b3282146102915780636352211e146102c15761012a565b806301ffc9a71461012f57806306661abd1461016c57806306fdde0314610197578063081812fc146101c2578063095ea7b3146101ff575b600080fd5b34801561013b57600080fd5b50610156600480360381019061015191906120dd565b610503565b6040516101639190612125565b60405180910390f35b34801561017857600080fd5b50610181610515565b60405161018e9190612159565b60405180910390f35b3480156101a357600080fd5b506101ac610526565b6040516101b99190612204565b60405180910390f35b3480156101ce57600080fd5b506101e960048036038101906101e49190612252565b6105b8565b6040516101f691906122c0565b60405180910390f35b34801561020b57600080fd5b5061022660048036038101906102219190612307565b6105fe565b005b34801561023457600080fd5b5061024f600480360381019061024a9190612347565b610715565b005b34801561025d57600080fd5b50610266610775565b005b34801561027457600080fd5b5061028f600480360381019061028a9190612347565b6107cc565b005b6102ab60048036038101906102a6919061239a565b6107ec565b6040516102b89190612159565b60405180910390f35b3480156102cd57600080fd5b506102e860048036038101906102e39190612252565b610977565b6040516102f591906122c0565b60405180910390f35b34801561030a57600080fd5b506103256004803603810190610320919061239a565b6109fd565b6040516103329190612159565b60405180910390f35b34801561034757600080fd5b50610350610ab4565b005b34801561035e57600080fd5b50610367610ac8565b60405161037491906122c0565b60405180910390f35b34801561038957600080fd5b50610392610af2565b60405161039f9190612204565b60405180910390f35b3480156103b457600080fd5b506103cf60048036038101906103ca91906124fc565b610b84565b6040516103dc9190612125565b60405180910390f35b3480156103f157600080fd5b5061040c60048036038101906104079190612571565b610bbf565b005b34801561041a57600080fd5b5061043560048036038101906104309190612652565b610bd5565b005b34801561044357600080fd5b5061045e60048036038101906104599190612252565b610c37565b60405161046b9190612204565b60405180910390f35b34801561048057600080fd5b5061049b600480360381019061049691906126d5565b610c49565b005b3480156104a957600080fd5b506104c460048036038101906104bf9190612731565b610cba565b6040516104d19190612125565b60405180910390f35b3480156104e657600080fd5b5061050160048036038101906104fc919061239a565b610d4e565b005b600061050e82610dd1565b9050919050565b60006105216008610e32565b905090565b606060008054610535906127a0565b80601f0160208091040260200160405190810160405280929190818152602001828054610561906127a0565b80156105ae5780601f10610583576101008083540402835291602001916105ae565b820191906000526020600020905b81548152906001019060200180831161059157829003601f168201915b5050505050905090565b60006105c382610e40565b6004600083815260200190815260200160002060009054906101000a900473ffffffffffffffffffffffffffffffffffffffff169050919050565b600061060982610977565b90508073ffffffffffffffffffffffffffffffffffffffff168373ffffffffffffffffffffffffffffffffffffffff1603610679576040517f08c379a000000000000000000000000000000000000000000000000000000000815260040161067090612843565b60405180910390fd5b8073ffffffffffffffffffffffffffffffffffffffff16610698610e8b565b73ffffffffffffffffffffffffffffffffffffffff1614806106c757506106c6816106c1610e8b565b610cba565b5b610706576040517f08c379a00000000000000000000000000000000000000000000000000000000081526004016106fd906128d5565b60405180910390fd5b6107108383610e93565b505050565b610726610720610e8b565b82610f4c565b610765576040517f08c379a000000000000000000000000000000000000000000000000000000000815260040161075c90612967565b60405180910390fd5b610770838383610fe1565b505050565b61077d6112da565b60004790503373ffffffffffffffffffffffffffffffffffffffff166108fc829081150290604051600060405180830381858888f193505050501580156107c8573d6000803e3d6000fd5b5050565b6107e783838360405180602001604052806000815250610bd5565b505050565b6000806107f96008610e32565b9050600061081260018361080d91906129b6565b611358565b6040516020016108229190612abe565b6040516020818303038152906040529050602682111561086e576040517f8a74cb8d00000000000000000000000000000000000000000000000000000000815260040160405180910390fd5b60016009826040516108809190612aeb565b908152602001604051809103902060009054906101000a900460ff1660ff16036108d6576040517ffe51936e00000000000000000000000000000000000000000000000000000000815260040160405180910390fd5b662386f26fc10000341015610917576040517f4784383d00000000000000000000000000000000000000000000000000000000815260040160405180910390fd5b6109216008611426565b60016009826040516109339190612aeb565b908152602001604051809103902060006101000a81548160ff021916908360ff160217905550610963848361143c565b61096d8282611659565b8192505050919050565b600080610983836116fd565b9050600073ffffffffffffffffffffffffffffffffffffffff168173ffffffffffffffffffffffffffffffffffffffff16036109f4576040517f08c379a00000000000000000000000000000000000000000000000000000000081526004016109eb90612b4e565b60405180910390fd5b80915050919050565b60008073ffffffffffffffffffffffffffffffffffffffff168273ffffffffffffffffffffffffffffffffffffffff1603610a6d576040517f08c379a0000000000000000000000000000000000000000000000000000000008152600401610a6490612be0565b60405180910390fd5b600360008373ffffffffffffffffffffffffffffffffffffffff1673ffffffffffffffffffffffffffffffffffffffff168152602001908152602001600020549050919050565b610abc6112da565b610ac6600061173a565b565b6000600760009054906101000a900473ffffffffffffffffffffffffffffffffffffffff16905090565b606060018054610b01906127a0565b80601f0160208091040260200160405190810160405280929190818152602001828054610b2d906127a0565b8015610b7a5780601f10610b4f57610100808354040283529160200191610b7a565b820191906000526020600020905b815481529060010190602001808311610b5d57829003601f168201915b5050505050905090565b60006001600983604051610b989190612aeb565b908152602001604051809103902060009054906101000a900460ff1660ff16149050919050565b610bd1610bca610e8b565b8383611800565b5050565b610be6610be0610e8b565b83610f4c565b610c25576040517f08c379a0000000000000000000000000000000000000000000000000000000008152600401610c1c90612967565b60405180910390fd5b610c318484848461196c565b50505050565b6060610c42826119c8565b9050919050565b610c516112da565b6000610c5d6008610e32565b9050610c696008611426565b610c738382611ada565b610c7d8183611659565b6001600983604051610c8f9190612aeb565b908152602001604051809103902060006101000a81548160ff021916908360ff160217905550505050565b6000600560008473ffffffffffffffffffffffffffffffffffffffff1673ffffffffffffffffffffffffffffffffffffffff16815260200190815260200160002060008373ffffffffffffffffffffffffffffffffffffffff1673ffffffffffffffffffffffffffffffffffffffff16815260200190815260200160002060009054906101000a900460ff16905092915050565b610d566112da565b600073ffffffffffffffffffffffffffffffffffffffff168173ffffffffffffffffffffffffffffffffffffffff1603610dc5576040517f08c379a0000000000000000000000000000000000000000000000000000000008152600401610dbc90612c72565b60405180910390fd5b610dce8161173a565b50565b6000634906490660e01b7bffffffffffffffffffffffffffffffffffffffffffffffffffffffff1916827bffffffffffffffffffffffffffffffffffffffffffffffffffffffff19161480610e2b5750610e2a82611af8565b5b9050919050565b600081600001549050919050565b610e4981611bda565b610e88576040517f08c379a0000000000000000000000000000000000000000000000000000000008152600401610e7f90612b4e565b60405180910390fd5b50565b600033905090565b816004600083815260200190815260200160002060006101000a81548173ffffffffffffffffffffffffffffffffffffffff021916908373ffffffffffffffffffffffffffffffffffffffff160217905550808273ffffffffffffffffffffffffffffffffffffffff16610f0683610977565b73ffffffffffffffffffffffffffffffffffffffff167f8c5be1e5ebec7d5bd14f71427d1e84f3dd0314c0f7b2291e5b200ac8c7c3b92560405160405180910390a45050565b600080610f5883610977565b90508073ffffffffffffffffffffffffffffffffffffffff168473ffffffffffffffffffffffffffffffffffffffff161480610f9a5750610f998185610cba565b5b80610fd857508373ffffffffffffffffffffffffffffffffffffffff16610fc0846105b8565b73ffffffffffffffffffffffffffffffffffffffff16145b91505092915050565b8273ffffffffffffffffffffffffffffffffffffffff1661100182610977565b73ffffffffffffffffffffffffffffffffffffffff1614611057576040517f08c379a000000000000000000000000000000000000000000000000000000000815260040161104e90612d04565b60405180910390fd5b600073ffffffffffffffffffffffffffffffffffffffff168273ffffffffffffffffffffffffffffffffffffffff16036110c6576040517f08c379a00000000000000000000000000000000000000000000000000000000081526004016110bd90612d96565b60405180910390fd5b6110d38383836001611c1b565b8273ffffffffffffffffffffffffffffffffffffffff166110f382610977565b73ffffffffffffffffffffffffffffffffffffffff1614611149576040517f08c379a000000000000000000000000000000000000000000000000000000000815260040161114090612d04565b60405180910390fd5b6004600082815260200190815260200160002060006101000a81549073ffffffffffffffffffffffffffffffffffffffff02191690556001600360008573ffffffffffffffffffffffffffffffffffffffff1673ffffffffffffffffffffffffffffffffffffffff168152602001908152602001600020600082825403925050819055506001600360008473ffffffffffffffffffffffffffffffffffffffff1673ffffffffffffffffffffffffffffffffffffffff16815260200190815260200160002060008282540192505081905550816002600083815260200190815260200160002060006101000a81548173ffffffffffffffffffffffffffffffffffffffff021916908373ffffffffffffffffffffffffffffffffffffffff160217905550808273ffffffffffffffffffffffffffffffffffffffff168473ffffffffffffffffffffffffffffffffffffffff167fddf252ad1be2c89b69c2b068fc378daa952ba7f163c4a11628f55a4df523b3ef60405160405180910390a46112d58383836001611c21565b505050565b6112e2610e8b565b73ffffffffffffffffffffffffffffffffffffffff16611300610ac8565b73ffffffffffffffffffffffffffffffffffffffff1614611356576040517f08c379a000000000000000000000000000000000000000000000000000000000815260040161134d90612e02565b60405180910390fd5b565b60606000600161136784611c27565b01905060008167ffffffffffffffff811115611386576113856123d1565b5b6040519080825280601f01601f1916602001820160405280156113b85781602001600182028036833780820191505090505b509050600082602001820190505b60011561141b578080600190039150507f3031323334353637383961626364656600000000000000000000000000000000600a86061a8153600a858161140f5761140e612e22565b5b049450600085036113c6575b819350505050919050565b6001816000016000828254019250508190555050565b600073ffffffffffffffffffffffffffffffffffffffff168273ffffffffffffffffffffffffffffffffffffffff16036114ab576040517f08c379a00000000000000000000000000000000000000000000000000000000081526004016114a290612e9d565b60405180910390fd5b6114b481611bda565b156114f4576040517f08c379a00000000000000000000000000000000000000000000000000000000081526004016114eb90612f09565b60405180910390fd5b611502600083836001611c1b565b61150b81611bda565b1561154b576040517f08c379a000000000000000000000000000000000000000000000000000000000815260040161154290612f09565b60405180910390fd5b6001600360008473ffffffffffffffffffffffffffffffffffffffff1673ffffffffffffffffffffffffffffffffffffffff16815260200190815260200160002060008282540192505081905550816002600083815260200190815260200160002060006101000a81548173ffffffffffffffffffffffffffffffffffffffff021916908373ffffffffffffffffffffffffffffffffffffffff160217905550808273ffffffffffffffffffffffffffffffffffffffff16600073ffffffffffffffffffffffffffffffffffffffff167fddf252ad1be2c89b69c2b068fc378daa952ba7f163c4a11628f55a4df523b3ef60405160405180910390a4611655600083836001611c21565b5050565b61166282611bda565b6116a1576040517f08c379a000000000000000000000000000000000000000000000000000000000815260040161169890612f9b565b60405180910390fd5b806006600084815260200190815260200160002090816116c19190613167565b507ff8e1a15aba9398e019f0b49df1a4fde98ee17ae345cb5f6b5e2c27f5033e8ce7826040516116f19190612159565b60405180910390a15050565b60006002600083815260200190815260200160002060009054906101000a900473ffffffffffffffffffffffffffffffffffffffff169050919050565b6000600760009054906101000a900473ffffffffffffffffffffffffffffffffffffffff16905081600760006101000a81548173ffffffffffffffffffffffffffffffffffffffff021916908373ffffffffffffffffffffffffffffffffffffffff1602179055508173ffffffffffffffffffffffffffffffffffffffff168173ffffffffffffffffffffffffffffffffffffffff167f8be0079c531659141344cd1fd0a4f28419497f9722a3daafe3b4186f6b6457e060405160405180910390a35050565b8173ffffffffffffffffffffffffffffffffffffffff168373ffffffffffffffffffffffffffffffffffffffff160361186e576040517f08c379a000000000000000000000000000000000000000000000000000000000815260040161186590613285565b60405180910390fd5b80600560008573ffffffffffffffffffffffffffffffffffffffff1673ffffffffffffffffffffffffffffffffffffffff16815260200190815260200160002060008473ffffffffffffffffffffffffffffffffffffffff1673ffffffffffffffffffffffffffffffffffffffff16815260200190815260200160002060006101000a81548160ff0219169083151502179055508173ffffffffffffffffffffffffffffffffffffffff168373ffffffffffffffffffffffffffffffffffffffff167f17307eab39ab6107e8899845ad3d59bd9653f200f220920489ca2b5937696c318360405161195f9190612125565b60405180910390a3505050565b611977848484610fe1565b61198384848484611d7a565b6119c2576040517f08c379a00000000000000000000000000000000000000000000000000000000081526004016119b990613317565b60405180910390fd5b50505050565b60606119d382610e40565b60006006600084815260200190815260200160002080546119f3906127a0565b80601f0160208091040260200160405190810160405280929190818152602001828054611a1f906127a0565b8015611a6c5780601f10611a4157610100808354040283529160200191611a6c565b820191906000526020600020905b815481529060010190602001808311611a4f57829003601f168201915b505050505090506000611a7d611f01565b90506000815103611a92578192505050611ad5565b600082511115611ac7578082604051602001611aaf929190613337565b60405160208183030381529060405292505050611ad5565b611ad084611f21565b925050505b919050565b611af4828260405180602001604052806000815250611f89565b5050565b60007f80ac58cd000000000000000000000000000000000000000000000000000000007bffffffffffffffffffffffffffffffffffffffffffffffffffffffff1916827bffffffffffffffffffffffffffffffffffffffffffffffffffffffff19161480611bc357507f5b5e139f000000000000000000000000000000000000000000000000000000007bffffffffffffffffffffffffffffffffffffffffffffffffffffffff1916827bffffffffffffffffffffffffffffffffffffffffffffffffffffffff1916145b80611bd35750611bd282611fe4565b5b9050919050565b60008073ffffffffffffffffffffffffffffffffffffffff16611bfc836116fd565b73ffffffffffffffffffffffffffffffffffffffff1614159050919050565b50505050565b50505050565b600080600090507a184f03e93ff9f4daa797ed6e38ed64bf6a1f0100000000000000008310611c85577a184f03e93ff9f4daa797ed6e38ed64bf6a1f0100000000000000008381611c7b57611c7a612e22565b5b0492506040810190505b6d04ee2d6d415b85acef81000000008310611cc2576d04ee2d6d415b85acef81000000008381611cb857611cb7612e22565b5b0492506020810190505b662386f26fc100008310611cf157662386f26fc100008381611ce757611ce6612e22565b5b0492506010810190505b6305f5e1008310611d1a576305f5e1008381611d1057611d0f612e22565b5b0492506008810190505b6127108310611d3f576127108381611d3557611d34612e22565b5b0492506004810190505b60648310611d625760648381611d5857611d57612e22565b5b0492506002810190505b600a8310611d71576001810190505b80915050919050565b6000611d9b8473ffffffffffffffffffffffffffffffffffffffff1661204e565b15611ef4578373ffffffffffffffffffffffffffffffffffffffff1663150b7a02611dc4610e8b565b8786866040518563ffffffff1660e01b8152600401611de694939291906133b0565b6020604051808303816000875af1925050508015611e2257506040513d601f19601f82011682018060405250810190611e1f9190613411565b60015b611ea4573d8060008114611e52576040519150601f19603f3d011682016040523d82523d6000602084013e611e57565b606091505b506000815103611e9c576040517f08c379a0000000000000000000000000000000000000000000000000000000008152600401611e9390613317565b60405180910390fd5b805181602001fd5b63150b7a0260e01b7bffffffffffffffffffffffffffffffffffffffffffffffffffffffff1916817bffffffffffffffffffffffffffffffffffffffffffffffffffffffff191614915050611ef9565b600190505b949350505050565b606060405180606001604052806036815260200161343f60369139905090565b6060611f2c82610e40565b6000611f36611f01565b90506000815111611f565760405180602001604052806000815250611f81565b80611f6084611358565b604051602001611f71929190613337565b6040516020818303038152906040525b915050919050565b611f93838361143c565b611fa06000848484611d7a565b611fdf576040517f08c379a0000000000000000000000000000000000000000000000000000000008152600401611fd690613317565b60405180910390fd5b505050565b60007f01ffc9a7000000000000000000000000000000000000000000000000000000007bffffffffffffffffffffffffffffffffffffffffffffffffffffffff1916827bffffffffffffffffffffffffffffffffffffffffffffffffffffffff1916149050919050565b6000808273ffffffffffffffffffffffffffffffffffffffff163b119050919050565b6000604051905090565b600080fd5b600080fd5b60007fffffffff0000000000000000000000000000000000000000000000000000000082169050919050565b6120ba81612085565b81146120c557600080fd5b50565b6000813590506120d7816120b1565b92915050565b6000602082840312156120f3576120f261207b565b5b6000612101848285016120c8565b91505092915050565b60008115159050919050565b61211f8161210a565b82525050565b600060208201905061213a6000830184612116565b92915050565b6000819050919050565b61215381612140565b82525050565b600060208201905061216e600083018461214a565b92915050565b600081519050919050565b600082825260208201905092915050565b60005b838110156121ae578082015181840152602081019050612193565b60008484015250505050565b6000601f19601f8301169050919050565b60006121d682612174565b6121e0818561217f565b93506121f0818560208601612190565b6121f9816121ba565b840191505092915050565b6000602082019050818103600083015261221e81846121cb565b905092915050565b61222f81612140565b811461223a57600080fd5b50565b60008135905061224c81612226565b92915050565b6000602082840312156122685761226761207b565b5b60006122768482850161223d565b91505092915050565b600073ffffffffffffffffffffffffffffffffffffffff82169050919050565b60006122aa8261227f565b9050919050565b6122ba8161229f565b82525050565b60006020820190506122d560008301846122b1565b92915050565b6122e48161229f565b81146122ef57600080fd5b50565b600081359050612301816122db565b92915050565b6000806040838503121561231e5761231d61207b565b5b600061232c858286016122f2565b925050602061233d8582860161223d565b9150509250929050565b6000806000606084860312156123605761235f61207b565b5b600061236e868287016122f2565b935050602061237f868287016122f2565b92505060406123908682870161223d565b9150509250925092565b6000602082840312156123b0576123af61207b565b5b60006123be848285016122f2565b91505092915050565b600080fd5b600080fd5b7f4e487b7100000000000000000000000000000000000000000000000000000000600052604160045260246000fd5b612409826121ba565b810181811067ffffffffffffffff82111715612428576124276123d1565b5b80604052505050565b600061243b612071565b90506124478282612400565b919050565b600067ffffffffffffffff821115612467576124666123d1565b5b612470826121ba565b9050602081019050919050565b82818337600083830152505050565b600061249f61249a8461244c565b612431565b9050828152602081018484840111156124bb576124ba6123cc565b5b6124c684828561247d565b509392505050565b600082601f8301126124e3576124e26123c7565b5b81356124f384826020860161248c565b91505092915050565b6000602082840312156125125761251161207b565b5b600082013567ffffffffffffffff8111156125305761252f612080565b5b61253c848285016124ce565b91505092915050565b61254e8161210a565b811461255957600080fd5b50565b60008135905061256b81612545565b92915050565b600080604083850312156125885761258761207b565b5b6000612596858286016122f2565b92505060206125a78582860161255c565b9150509250929050565b600067ffffffffffffffff8211156125cc576125cb6123d1565b5b6125d5826121ba565b9050602081019050919050565b60006125f56125f0846125b1565b612431565b905082815260208101848484011115612611576126106123cc565b5b61261c84828561247d565b509392505050565b600082601f830112612639576126386123c7565b5b81356126498482602086016125e2565b91505092915050565b6000806000806080858703121561266c5761266b61207b565b5b600061267a878288016122f2565b945050602061268b878288016122f2565b935050604061269c8782880161223d565b925050606085013567ffffffffffffffff8111156126bd576126bc612080565b5b6126c987828801612624565b91505092959194509250565b600080604083850312156126ec576126eb61207b565b5b60006126fa858286016122f2565b925050602083013567ffffffffffffffff81111561271b5761271a612080565b5b612727858286016124ce565b9150509250929050565b600080604083850312156127485761274761207b565b5b6000612756858286016122f2565b9250506020612767858286016122f2565b9150509250929050565b7f4e487b7100000000000000000000000000000000000000000000000000000000600052602260045260246000fd5b600060028204905060018216806127b857607f821691505b6020821081036127cb576127ca612771565b5b50919050565b7f4552433732313a20617070726f76616c20746f2063757272656e74206f776e6560008201527f7200000000000000000000000000000000000000000000000000000000000000602082015250565b600061282d60218361217f565b9150612838826127d1565b604082019050919050565b6000602082019050818103600083015261285c81612820565b9050919050565b7f4552433732313a20617070726f76652063616c6c6572206973206e6f7420746f60008201527f6b656e206f776e6572206f7220617070726f76656420666f7220616c6c000000602082015250565b60006128bf603d8361217f565b91506128ca82612863565b604082019050919050565b600060208201905081810360008301526128ee816128b2565b9050919050565b7f4552433732313a2063616c6c6572206973206e6f7420746f6b656e206f776e6560008201527f72206f7220617070726f76656400000000000000000000000000000000000000602082015250565b6000612951602d8361217f565b915061295c826128f5565b604082019050919050565b6000602082019050818103600083015261298081612944565b9050919050565b7f4e487b7100000000000000000000000000000000000000000000000000000000600052601160045260246000fd5b60006129c182612140565b91506129cc83612140565b92508282019050808211156129e4576129e3612987565b5b92915050565b600081905092915050565b7f736b696e00000000000000000000000000000000000000000000000000000000600082015250565b6000612a2b6004836129ea565b9150612a36826129f5565b600482019050919050565b6000612a4c82612174565b612a5681856129ea565b9350612a66818560208601612190565b80840191505092915050565b7f2e6a736f6e000000000000000000000000000000000000000000000000000000600082015250565b6000612aa86005836129ea565b9150612ab382612a72565b600582019050919050565b6000612ac982612a1e565b9150612ad58284612a41565b9150612ae082612a9b565b915081905092915050565b6000612af78284612a41565b915081905092915050565b7f4552433732313a20696e76616c696420746f6b656e2049440000000000000000600082015250565b6000612b3860188361217f565b9150612b4382612b02565b602082019050919050565b60006020820190508181036000830152612b6781612b2b565b9050919050565b7f4552433732313a2061646472657373207a65726f206973206e6f74206120766160008201527f6c6964206f776e65720000000000000000000000000000000000000000000000602082015250565b6000612bca60298361217f565b9150612bd582612b6e565b604082019050919050565b60006020820190508181036000830152612bf981612bbd565b9050919050565b7f4f776e61626c653a206e6577206f776e657220697320746865207a65726f206160008201527f6464726573730000000000000000000000000000000000000000000000000000602082015250565b6000612c5c60268361217f565b9150612c6782612c00565b604082019050919050565b60006020820190508181036000830152612c8b81612c4f565b9050919050565b7f4552433732313a207472616e736665722066726f6d20696e636f72726563742060008201527f6f776e6572000000000000000000000000000000000000000000000000000000602082015250565b6000612cee60258361217f565b9150612cf982612c92565b604082019050919050565b60006020820190508181036000830152612d1d81612ce1565b9050919050565b7f4552433732313a207472616e7366657220746f20746865207a65726f2061646460008201527f7265737300000000000000000000000000000000000000000000000000000000602082015250565b6000612d8060248361217f565b9150612d8b82612d24565b604082019050919050565b60006020820190508181036000830152612daf81612d73565b9050919050565b7f4f776e61626c653a2063616c6c6572206973206e6f7420746865206f776e6572600082015250565b6000612dec60208361217f565b9150612df782612db6565b602082019050919050565b60006020820190508181036000830152612e1b81612ddf565b9050919050565b7f4e487b7100000000000000000000000000000000000000000000000000000000600052601260045260246000fd5b7f4552433732313a206d696e7420746f20746865207a65726f2061646472657373600082015250565b6000612e8760208361217f565b9150612e9282612e51565b602082019050919050565b60006020820190508181036000830152612eb681612e7a565b9050919050565b7f4552433732313a20746f6b656e20616c7265616479206d696e74656400000000600082015250565b6000612ef3601c8361217f565b9150612efe82612ebd565b602082019050919050565b60006020820190508181036000830152612f2281612ee6565b9050919050565b7f45524337323155524953746f726167653a2055524920736574206f66206e6f6e60008201527f6578697374656e7420746f6b656e000000000000000000000000000000000000602082015250565b6000612f85602e8361217f565b9150612f9082612f29565b604082019050919050565b60006020820190508181036000830152612fb481612f78565b9050919050565b60008190508160005260206000209050919050565b60006020601f8301049050919050565b600082821b905092915050565b60006008830261301d7fffffffffffffffffffffffffffffffffffffffffffffffffffffffffffffffff82612fe0565b6130278683612fe0565b95508019841693508086168417925050509392505050565b6000819050919050565b600061306461305f61305a84612140565b61303f565b612140565b9050919050565b6000819050919050565b61307e83613049565b61309261308a8261306b565b848454612fed565b825550505050565b600090565b6130a761309a565b6130b2818484613075565b505050565b5b818110156130d6576130cb60008261309f565b6001810190506130b8565b5050565b601f82111561311b576130ec81612fbb565b6130f584612fd0565b81016020851015613104578190505b61311861311085612fd0565b8301826130b7565b50505b505050565b600082821c905092915050565b600061313e60001984600802613120565b1980831691505092915050565b6000613157838361312d565b9150826002028217905092915050565b61317082612174565b67ffffffffffffffff811115613189576131886123d1565b5b61319382546127a0565b61319e8282856130da565b600060209050601f8311600181146131d157600084156131bf578287015190505b6131c9858261314b565b865550613231565b601f1984166131df86612fbb565b60005b82811015613207578489015182556001820191506020850194506020810190506131e2565b868310156132245784890151613220601f89168261312d565b8355505b6001600288020188555050505b505050505050565b7f4552433732313a20617070726f766520746f2063616c6c657200000000000000600082015250565b600061326f60198361217f565b915061327a82613239565b602082019050919050565b6000602082019050818103600083015261329e81613262565b9050919050565b7f4552433732313a207472616e7366657220746f206e6f6e20455243373231526560008201527f63656976657220696d706c656d656e7465720000000000000000000000000000602082015250565b600061330160328361217f565b915061330c826132a5565b604082019050919050565b60006020820190508181036000830152613330816132f4565b9050919050565b60006133438285612a41565b915061334f8284612a41565b91508190509392505050565b600081519050919050565b600082825260208201905092915050565b60006133828261335b565b61338c8185613366565b935061339c818560208601612190565b6133a5816121ba565b840191505092915050565b60006080820190506133c560008301876122b1565b6133d260208301866122b1565b6133df604083018561214a565b81810360608301526133f18184613377565b905095945050505050565b60008151905061340b816120b1565b92915050565b6000602082840312156134275761342661207b565b5b6000613435848285016133fc565b9150509291505056fe697066733a2f2f516d5868776146544c56595a4c72334b6b7173636e457650766d4467715733573848673972483931644b434368592fa264697066735822122035d5cbae294479d8d981aa8e80d950cfcd91dfc30062e2b60bc8cbbe53e955a564736f6c63430008110033",
  "devdoc": {
    "kind": "dev",
    "methods": {
      "approve(address,uint256)": {
        "details": "See {IERC721-approve}."
      },
      "balanceOf(address)": {
        "details": "See {IERC721-balanceOf}."
      },
      "getApproved(uint256)": {
        "details": "See {IERC721-getApproved}."
      },
      "isApprovedForAll(address,address)": {
        "details": "See {IERC721-isApprovedForAll}."
      },
      "name()": {
        "details": "See {IERC721Metadata-name}."
      },
      "owner()": {
        "details": "Returns the address of the current owner."
      },
      "ownerOf(uint256)": {
        "details": "See {IERC721-ownerOf}."
      },
      "renounceOwnership()": {
        "details": "Leaves the contract without owner. It will not be possible to call `onlyOwner` functions. Can only be called by the current owner. NOTE: Renouncing ownership will leave the contract without an owner, thereby disabling any functionality that is only available to the owner."
      },
      "safeTransferFrom(address,address,uint256)": {
        "details": "See {IERC721-safeTransferFrom}."
      },
      "safeTransferFrom(address,address,uint256,bytes)": {
        "details": "See {IERC721-safeTransferFrom}."
      },
      "setApprovalForAll(address,bool)": {
        "details": "See {IERC721-setApprovalForAll}."
      },
      "symbol()": {
        "details": "See {IERC721Metadata-symbol}."
      },
      "transferFrom(address,address,uint256)": {
        "details": "See {IERC721-transferFrom}."
      },
      "transferOwnership(address)": {
        "details": "Transfers ownership of the contract to a new account (`newOwner`). Can only be called by the current owner."
      }
    },
    "version": 1
  },
  "userdoc": {
    "kind": "user",
    "methods": {},
    "version": 1
  },
  "storageLayout": {
    "storage": [
      {
        "astId": 166,
        "contract": "contracts/CounterStrikeNFT.sol:CounterStrikeNFT",
        "label": "_name",
        "offset": 0,
        "slot": "0",
        "type": "t_string_storage"
      },
      {
        "astId": 168,
        "contract": "contracts/CounterStrikeNFT.sol:CounterStrikeNFT",
        "label": "_symbol",
        "offset": 0,
        "slot": "1",
        "type": "t_string_storage"
      },
      {
        "astId": 172,
        "contract": "contracts/CounterStrikeNFT.sol:CounterStrikeNFT",
        "label": "_owners",
        "offset": 0,
        "slot": "2",
        "type": "t_mapping(t_uint256,t_address)"
      },
      {
        "astId": 176,
        "contract": "contracts/CounterStrikeNFT.sol:CounterStrikeNFT",
        "label": "_balances",
        "offset": 0,
        "slot": "3",
        "type": "t_mapping(t_address,t_uint256)"
      },
      {
        "astId": 180,
        "contract": "contracts/CounterStrikeNFT.sol:CounterStrikeNFT",
        "label": "_tokenApprovals",
        "offset": 0,
        "slot": "4",
        "type": "t_mapping(t_uint256,t_address)"
      },
      {
        "astId": 186,
        "contract": "contracts/CounterStrikeNFT.sol:CounterStrikeNFT",
        "label": "_operatorApprovals",
        "offset": 0,
        "slot": "5",
        "type": "t_mapping(t_address,t_mapping(t_address,t_bool))"
      },
      {
        "astId": 1217,
        "contract": "contracts/CounterStrikeNFT.sol:CounterStrikeNFT",
        "label": "_tokenURIs",
        "offset": 0,
        "slot": "6",
        "type": "t_mapping(t_uint256,t_string_storage)"
      },
      {
        "astId": 7,
        "contract": "contracts/CounterStrikeNFT.sol:CounterStrikeNFT",
        "label": "_owner",
        "offset": 0,
        "slot": "7",
        "type": "t_address"
      },
      {
        "astId": 3072,
        "contract": "contracts/CounterStrikeNFT.sol:CounterStrikeNFT",
        "label": "_tokenIdCounter",
        "offset": 0,
        "slot": "8",
        "type": "t_struct(Counter)1742_storage"
      },
      {
        "astId": 3076,
        "contract": "contracts/CounterStrikeNFT.sol:CounterStrikeNFT",
        "label": "s_existingURIs",
        "offset": 0,
        "slot": "9",
        "type": "t_mapping(t_string_memory_ptr,t_uint8)"
      }
    ],
    "types": {
      "t_address": {
        "encoding": "inplace",
        "label": "address",
        "numberOfBytes": "20"
      },
      "t_bool": {
        "encoding": "inplace",
        "label": "bool",
        "numberOfBytes": "1"
      },
      "t_mapping(t_address,t_bool)": {
        "encoding": "mapping",
        "key": "t_address",
        "label": "mapping(address => bool)",
        "numberOfBytes": "32",
        "value": "t_bool"
      },
      "t_mapping(t_address,t_mapping(t_address,t_bool))": {
        "encoding": "mapping",
        "key": "t_address",
        "label": "mapping(address => mapping(address => bool))",
        "numberOfBytes": "32",
        "value": "t_mapping(t_address,t_bool)"
      },
      "t_mapping(t_address,t_uint256)": {
        "encoding": "mapping",
        "key": "t_address",
        "label": "mapping(address => uint256)",
        "numberOfBytes": "32",
        "value": "t_uint256"
      },
      "t_mapping(t_string_memory_ptr,t_uint8)": {
        "encoding": "mapping",
        "key": "t_string_memory_ptr",
        "label": "mapping(string => uint8)",
        "numberOfBytes": "32",
        "value": "t_uint8"
      },
      "t_mapping(t_uint256,t_address)": {
        "encoding": "mapping",
        "key": "t_uint256",
        "label": "mapping(uint256 => address)",
        "numberOfBytes": "32",
        "value": "t_address"
      },
      "t_mapping(t_uint256,t_string_storage)": {
        "encoding": "mapping",
        "key": "t_uint256",
        "label": "mapping(uint256 => string)",
        "numberOfBytes": "32",
        "value": "t_string_storage"
      },
      "t_string_memory_ptr": {
        "encoding": "bytes",
        "label": "string",
        "numberOfBytes": "32"
      },
      "t_string_storage": {
        "encoding": "bytes",
        "label": "string",
        "numberOfBytes": "32"
      },
      "t_struct(Counter)1742_storage": {
        "encoding": "inplace",
        "label": "struct Counters.Counter",
        "members": [
          {
            "astId": 1741,
            "contract": "contracts/CounterStrikeNFT.sol:CounterStrikeNFT",
            "label": "_value",
            "offset": 0,
            "slot": "0",
            "type": "t_uint256"
          }
        ],
        "numberOfBytes": "32"
      },
      "t_uint256": {
        "encoding": "inplace",
        "label": "uint256",
        "numberOfBytes": "32"
      },
      "t_uint8": {
        "encoding": "inplace",
        "label": "uint8",
        "numberOfBytes": "1"
      }
    }
  }
}