{
  "address": "0xe7f1725E7734CE288F8367e1Bb143E90bb3F0512",
  "abi": [
    {
      "inputs": [],
      "stateMutability": "nonpayable",
      "type": "constructor"
    },
    {
      "anonymous": false,
      "inputs": [
        {
          "indexed": true,
          "internalType": "address",
          "name": "owner",
          "type": "address"
        },
        {
          "indexed": true,
          "internalType": "address",
          "name": "approved",
          "type": "address"
        },
        {
          "indexed": true,
          "internalType": "uint256",
          "name": "tokenId",
          "type": "uint256"
        }
      ],
      "name": "Approval",
      "type": "event"
    },
    {
      "anonymous": false,
      "inputs": [
        {
          "indexed": true,
          "internalType": "address",
          "name": "owner",
          "type": "address"
        },
        {
          "indexed": true,
          "internalType": "address",
          "name": "operator",
          "type": "address"
        },
        {
          "indexed": false,
          "internalType": "bool",
          "name": "approved",
          "type": "bool"
        }
      ],
      "name": "ApprovalForAll",
      "type": "event"
    },
    {
      "anonymous": false,
      "inputs": [
        {
          "indexed": false,
          "internalType": "uint256",
          "name": "_fromTokenId",
          "type": "uint256"
        },
        {
          "indexed": false,
          "internalType": "uint256",
          "name": "_toTokenId",
          "type": "uint256"
        }
      ],
      "name": "BatchMetadataUpdate",
      "type": "event"
    },
    {
      "anonymous": false,
      "inputs": [
        {
          "indexed": false,
          "internalType": "uint256",
          "name": "_tokenId",
          "type": "uint256"
        }
      ],
      "name": "MetadataUpdate",
      "type": "event"
    },
    {
      "anonymous": false,
      "inputs": [
        {
          "indexed": true,
          "internalType": "address",
          "name": "previousOwner",
          "type": "address"
        },
        {
          "indexed": true,
          "internalType": "address",
          "name": "newOwner",
          "type": "address"
        }
      ],
      "name": "OwnershipTransferred",
      "type": "event"
    },
    {
      "anonymous": false,
      "inputs": [
        {
          "indexed": true,
          "internalType": "address",
          "name": "from",
          "type": "address"
        },
        {
          "indexed": true,
          "internalType": "address",
          "name": "to",
          "type": "address"
        },
        {
          "indexed": true,
          "internalType": "uint256",
          "name": "tokenId",
          "type": "uint256"
        }
      ],
      "name": "Transfer",
      "type": "event"
    },
    {
      "inputs": [
        {
          "internalType": "address",
          "name": "to",
          "type": "address"
        },
        {
          "internalType": "uint256",
          "name": "tokenId",
          "type": "uint256"
        }
      ],
      "name": "approve",
      "outputs": [],
      "stateMutability": "nonpayable",
      "type": "function"
    },
    {
      "inputs": [
        {
          "internalType": "address",
          "name": "owner",
          "type": "address"
        }
      ],
      "name": "balanceOf",
      "outputs": [
        {
          "internalType": "uint256",
          "name": "",
          "type": "uint256"
        }
      ],
      "stateMutability": "view",
      "type": "function"
    },
    {
      "inputs": [],
      "name": "count",
      "outputs": [
        {
          "internalType": "uint256",
          "name": "",
          "type": "uint256"
        }
      ],
      "stateMutability": "view",
      "type": "function"
    },
    {
      "inputs": [
        {
          "internalType": "uint256",
          "name": "tokenId",
          "type": "uint256"
        }
      ],
      "name": "getApproved",
      "outputs": [
        {
          "internalType": "address",
          "name": "",
          "type": "address"
        }
      ],
      "stateMutability": "view",
      "type": "function"
    },
    {
      "inputs": [
        {
          "internalType": "address",
          "name": "owner",
          "type": "address"
        },
        {
          "internalType": "address",
          "name": "operator",
          "type": "address"
        }
      ],
      "name": "isApprovedForAll",
      "outputs": [
        {
          "internalType": "bool",
          "name": "",
          "type": "bool"
        }
      ],
      "stateMutability": "view",
      "type": "function"
    },
    {
      "inputs": [
        {
          "internalType": "uint256",
          "name": "tokenId",
          "type": "uint256"
        }
      ],
      "name": "isTokenIDOwnerValid",
      "outputs": [
        {
          "internalType": "bool",
          "name": "",
          "type": "bool"
        }
      ],
      "stateMutability": "view",
      "type": "function"
    },
    {
      "inputs": [],
      "name": "name",
      "outputs": [
        {
          "internalType": "string",
          "name": "",
          "type": "string"
        }
      ],
      "stateMutability": "view",
      "type": "function"
    },
    {
      "inputs": [],
      "name": "owner",
      "outputs": [
        {
          "internalType": "address",
          "name": "",
          "type": "address"
        }
      ],
      "stateMutability": "view",
      "type": "function"
    },
    {
      "inputs": [
        {
          "internalType": "uint256",
          "name": "tokenId",
          "type": "uint256"
        }
      ],
      "name": "ownerOf",
      "outputs": [
        {
          "internalType": "address",
          "name": "",
          "type": "address"
        }
      ],
      "stateMutability": "view",
      "type": "function"
    },
    {
      "inputs": [],
      "name": "renounceOwnership",
      "outputs": [],
      "stateMutability": "nonpayable",
      "type": "function"
    },
    {
      "inputs": [
        {
          "internalType": "address",
          "name": "to",
          "type": "address"
        },
        {
          "internalType": "string",
          "name": "uri",
          "type": "string"
        }
      ],
      "name": "safeMint",
      "outputs": [],
      "stateMutability": "nonpayable",
      "type": "function"
    },
    {
      "inputs": [
        {
          "internalType": "address",
          "name": "from",
          "type": "address"
        },
        {
          "internalType": "address",
          "name": "to",
          "type": "address"
        },
        {
          "internalType": "uint256",
          "name": "tokenId",
          "type": "uint256"
        }
      ],
      "name": "safeTransferFrom",
      "outputs": [],
      "stateMutability": "nonpayable",
      "type": "function"
    },
    {
      "inputs": [
        {
          "internalType": "address",
          "name": "from",
          "type": "address"
        },
        {
          "internalType": "address",
          "name": "to",
          "type": "address"
        },
        {
          "internalType": "uint256",
          "name": "tokenId",
          "type": "uint256"
        },
        {
          "internalType": "bytes",
          "name": "data",
          "type": "bytes"
        }
      ],
      "name": "safeTransferFrom",
      "outputs": [],
      "stateMutability": "nonpayable",
      "type": "function"
    },
    {
      "inputs": [
        {
          "internalType": "address",
          "name": "operator",
          "type": "address"
        },
        {
          "internalType": "bool",
          "name": "approved",
          "type": "bool"
        }
      ],
      "name": "setApprovalForAll",
      "outputs": [],
      "stateMutability": "nonpayable",
      "type": "function"
    },
    {
      "inputs": [
        {
          "internalType": "bytes4",
          "name": "interfaceId",
          "type": "bytes4"
        }
      ],
      "name": "supportsInterface",
      "outputs": [
        {
          "internalType": "bool",
          "name": "",
          "type": "bool"
        }
      ],
      "stateMutability": "view",
      "type": "function"
    },
    {
      "inputs": [],
      "name": "symbol",
      "outputs": [
        {
          "internalType": "string",
          "name": "",
          "type": "string"
        }
      ],
      "stateMutability": "view",
      "type": "function"
    },
    {
      "inputs": [
        {
          "internalType": "uint256",
          "name": "",
          "type": "uint256"
        }
      ],
      "name": "tokenIDtoRentHolderSC",
      "outputs": [
        {
          "internalType": "address",
          "name": "",
          "type": "address"
        }
      ],
      "stateMutability": "view",
      "type": "function"
    },
    {
      "inputs": [
        {
          "internalType": "uint256",
          "name": "tokenId",
          "type": "uint256"
        }
      ],
      "name": "tokenURI",
      "outputs": [
        {
          "internalType": "string",
          "name": "",
          "type": "string"
        }
      ],
      "stateMutability": "view",
      "type": "function"
    },
    {
      "inputs": [
        {
          "internalType": "address",
          "name": "from",
          "type": "address"
        },
        {
          "internalType": "address",
          "name": "to",
          "type": "address"
        },
        {
          "internalType": "uint256",
          "name": "tokenId",
          "type": "uint256"
        }
      ],
      "name": "transferFrom",
      "outputs": [],
      "stateMutability": "nonpayable",
      "type": "function"
    },
    {
      "inputs": [
        {
          "internalType": "address",
          "name": "newOwner",
          "type": "address"
        }
      ],
      "name": "transferOwnership",
      "outputs": [],
      "stateMutability": "nonpayable",
      "type": "function"
    }
  ],
  "transactionHash": "0xbfb0171db999dd0b89aa3751eadb284a4b9e9d6c3910906393a91bb18c8df48c",
  "args": [],
  "numDeployments": 1,
  "solcInputHash": "0a5a3a4e251c4b4cc6b0696d8d0813d8",
  "bytecode": "0x60806040523480156200001157600080fd5b506040518060400160405280601881526020017f57726170706564204e4654202d204e46542052656e74657200000000000000008152506040518060400160405280600481526020017f4e4654520000000000000000000000000000000000000000000000000000000081525081600090816200008f919062000412565b508060019081620000a1919062000412565b505050620000c4620000b8620000ca60201b60201c565b620000d260201b60201c565b620004f9565b600033905090565b6000600760009054906101000a900473ffffffffffffffffffffffffffffffffffffffff16905081600760006101000a81548173ffffffffffffffffffffffffffffffffffffffff021916908373ffffffffffffffffffffffffffffffffffffffff1602179055508173ffffffffffffffffffffffffffffffffffffffff168173ffffffffffffffffffffffffffffffffffffffff167f8be0079c531659141344cd1fd0a4f28419497f9722a3daafe3b4186f6b6457e060405160405180910390a35050565b600081519050919050565b7f4e487b7100000000000000000000000000000000000000000000000000000000600052604160045260246000fd5b7f4e487b7100000000000000000000000000000000000000000000000000000000600052602260045260246000fd5b600060028204905060018216806200021a57607f821691505b60208210810362000230576200022f620001d2565b5b50919050565b60008190508160005260206000209050919050565b60006020601f8301049050919050565b600082821b905092915050565b6000600883026200029a7fffffffffffffffffffffffffffffffffffffffffffffffffffffffffffffffff826200025b565b620002a686836200025b565b95508019841693508086168417925050509392505050565b6000819050919050565b6000819050919050565b6000620002f3620002ed620002e784620002be565b620002c8565b620002be565b9050919050565b6000819050919050565b6200030f83620002d2565b620003276200031e82620002fa565b84845462000268565b825550505050565b600090565b6200033e6200032f565b6200034b81848462000304565b505050565b5b8181101562000373576200036760008262000334565b60018101905062000351565b5050565b601f821115620003c2576200038c8162000236565b62000397846200024b565b81016020851015620003a7578190505b620003bf620003b6856200024b565b83018262000350565b50505b505050565b600082821c905092915050565b6000620003e760001984600802620003c7565b1980831691505092915050565b6000620004028383620003d4565b9150826002028217905092915050565b6200041d8262000198565b67ffffffffffffffff811115620004395762000438620001a3565b5b62000445825462000201565b6200045282828562000377565b600060209050601f8311600181146200048a576000841562000475578287015190505b620004818582620003f4565b865550620004f1565b601f1984166200049a8662000236565b60005b82811015620004c4578489015182556001820191506020850194506020810190506200049d565b86831015620004e45784890151620004e0601f891682620003d4565b8355505b6001600288020188555050505b505050505050565b6131a380620005096000396000f3fe608060405234801561001057600080fd5b506004361061012c5760003560e01c8063715018a6116100ad578063b88d4fde11610071578063b88d4fde14610343578063c87b56dd1461035f578063d204c45e1461038f578063e985e9c5146103ab578063f2fde38b146103db5761012c565b8063715018a6146102b15780638da5cb5b146102bb57806395d89b41146102d9578063a22cb465146102f7578063a7bd0593146103135761012c565b8063095ea7b3116100f4578063095ea7b3146101fd57806323b872dd1461021957806342842e0e146102355780636352211e1461025157806370a08231146102815761012c565b806301ffc9a71461013157806306661abd1461016157806306fdde031461017f578063081812fc1461019d578063088a52a7146101cd575b600080fd5b61014b60048036038101906101469190611ee8565b6103f7565b6040516101589190611f30565b60405180910390f35b610169610409565b6040516101769190611f64565b60405180910390f35b61018761041a565b604051610194919061200f565b60405180910390f35b6101b760048036038101906101b2919061205d565b6104ac565b6040516101c491906120cb565b60405180910390f35b6101e760048036038101906101e2919061205d565b6104f2565b6040516101f491906120cb565b60405180910390f35b61021760048036038101906102129190612112565b610525565b005b610233600480360381019061022e9190612152565b61063c565b005b61024f600480360381019061024a9190612152565b61069c565b005b61026b6004803603810190610266919061205d565b6106bc565b60405161027891906120cb565b60405180910390f35b61029b600480360381019061029691906121a5565b610742565b6040516102a89190611f64565b60405180910390f35b6102b96107f9565b005b6102c361080d565b6040516102d091906120cb565b60405180910390f35b6102e1610837565b6040516102ee919061200f565b60405180910390f35b610311600480360381019061030c91906121fe565b6108c9565b005b61032d6004803603810190610328919061205d565b6108df565b60405161033a9190611f30565b60405180910390f35b61035d60048036038101906103589190612373565b6109d7565b005b6103796004803603810190610374919061205d565b610a39565b604051610386919061200f565b60405180910390f35b6103a960048036038101906103a49190612497565b610a4b565b005b6103c560048036038101906103c091906124f3565b610ace565b6040516103d29190611f30565b60405180910390f35b6103f560048036038101906103f091906121a5565b610b62565b005b600061040282610be5565b9050919050565b60006104156008610c46565b905090565b60606000805461042990612562565b80601f016020809104026020016040519081016040528092919081815260200182805461045590612562565b80156104a25780601f10610477576101008083540402835291602001916104a2565b820191906000526020600020905b81548152906001019060200180831161048557829003601f168201915b5050505050905090565b60006104b782610c54565b6004600083815260200190815260200160002060009054906101000a900473ffffffffffffffffffffffffffffffffffffffff169050919050565b60096020528060005260406000206000915054906101000a900473ffffffffffffffffffffffffffffffffffffffff1681565b6000610530826106bc565b90508073ffffffffffffffffffffffffffffffffffffffff168373ffffffffffffffffffffffffffffffffffffffff16036105a0576040517f08c379a000000000000000000000000000000000000000000000000000000000815260040161059790612605565b60405180910390fd5b8073ffffffffffffffffffffffffffffffffffffffff166105bf610c9f565b73ffffffffffffffffffffffffffffffffffffffff1614806105ee57506105ed816105e8610c9f565b610ace565b5b61062d576040517f08c379a000000000000000000000000000000000000000000000000000000000815260040161062490612697565b60405180910390fd5b6106378383610ca7565b505050565b61064d610647610c9f565b82610d60565b61068c576040517f08c379a000000000000000000000000000000000000000000000000000000000815260040161068390612729565b60405180910390fd5b610697838383610df5565b505050565b6106b7838383604051806020016040528060008152506109d7565b505050565b6000806106c8836110ee565b9050600073ffffffffffffffffffffffffffffffffffffffff168173ffffffffffffffffffffffffffffffffffffffff1603610739576040517f08c379a000000000000000000000000000000000000000000000000000000000815260040161073090612795565b60405180910390fd5b80915050919050565b60008073ffffffffffffffffffffffffffffffffffffffff168273ffffffffffffffffffffffffffffffffffffffff16036107b2576040517f08c379a00000000000000000000000000000000000000000000000000000000081526004016107a990612827565b60405180910390fd5b600360008373ffffffffffffffffffffffffffffffffffffffff1673ffffffffffffffffffffffffffffffffffffffff168152602001908152602001600020549050919050565b61080161112b565b61080b60006111a9565b565b6000600760009054906101000a900473ffffffffffffffffffffffffffffffffffffffff16905090565b60606001805461084690612562565b80601f016020809104026020016040519081016040528092919081815260200182805461087290612562565b80156108bf5780601f10610894576101008083540402835291602001916108bf565b820191906000526020600020905b8154815290600101906020018083116108a257829003601f168201915b5050505050905090565b6108db6108d4610c9f565b838361126f565b5050565b6000806009600084815260200190815260200160002060009054906101000a900473ffffffffffffffffffffffffffffffffffffffff1673ffffffffffffffffffffffffffffffffffffffff16634b59e0526040518163ffffffff1660e01b81526004016040805180830381865afa15801561095f573d6000803e3d6000fd5b505050506040513d601f19601f8201168201806040525081019061098391906128c6565b905061098e836106bc565b73ffffffffffffffffffffffffffffffffffffffff16816000015173ffffffffffffffffffffffffffffffffffffffff161480156109cf5750428160200151115b915050919050565b6109e86109e2610c9f565b83610d60565b610a27576040517f08c379a0000000000000000000000000000000000000000000000000000000008152600401610a1e90612729565b60405180910390fd5b610a33848484846113db565b50505050565b6060610a4482611437565b9050919050565b6000610a576008610c46565b9050610a636008611549565b610a6d838261155f565b610a77818361157d565b336009600083815260200190815260200160002060006101000a81548173ffffffffffffffffffffffffffffffffffffffff021916908373ffffffffffffffffffffffffffffffffffffffff160217905550505050565b6000600560008473ffffffffffffffffffffffffffffffffffffffff1673ffffffffffffffffffffffffffffffffffffffff16815260200190815260200160002060008373ffffffffffffffffffffffffffffffffffffffff1673ffffffffffffffffffffffffffffffffffffffff16815260200190815260200160002060009054906101000a900460ff16905092915050565b610b6a61112b565b600073ffffffffffffffffffffffffffffffffffffffff168173ffffffffffffffffffffffffffffffffffffffff1603610bd9576040517f08c379a0000000000000000000000000000000000000000000000000000000008152600401610bd090612965565b60405180910390fd5b610be2816111a9565b50565b6000634906490660e01b7bffffffffffffffffffffffffffffffffffffffffffffffffffffffff1916827bffffffffffffffffffffffffffffffffffffffffffffffffffffffff19161480610c3f5750610c3e82611621565b5b9050919050565b600081600001549050919050565b610c5d81611703565b610c9c576040517f08c379a0000000000000000000000000000000000000000000000000000000008152600401610c9390612795565b60405180910390fd5b50565b600033905090565b816004600083815260200190815260200160002060006101000a81548173ffffffffffffffffffffffffffffffffffffffff021916908373ffffffffffffffffffffffffffffffffffffffff160217905550808273ffffffffffffffffffffffffffffffffffffffff16610d1a836106bc565b73ffffffffffffffffffffffffffffffffffffffff167f8c5be1e5ebec7d5bd14f71427d1e84f3dd0314c0f7b2291e5b200ac8c7c3b92560405160405180910390a45050565b600080610d6c836106bc565b90508073ffffffffffffffffffffffffffffffffffffffff168473ffffffffffffffffffffffffffffffffffffffff161480610dae5750610dad8185610ace565b5b80610dec57508373ffffffffffffffffffffffffffffffffffffffff16610dd4846104ac565b73ffffffffffffffffffffffffffffffffffffffff16145b91505092915050565b8273ffffffffffffffffffffffffffffffffffffffff16610e15826106bc565b73ffffffffffffffffffffffffffffffffffffffff1614610e6b576040517f08c379a0000000000000000000000000000000000000000000000000000000008152600401610e62906129f7565b60405180910390fd5b600073ffffffffffffffffffffffffffffffffffffffff168273ffffffffffffffffffffffffffffffffffffffff1603610eda576040517f08c379a0000000000000000000000000000000000000000000000000000000008152600401610ed190612a89565b60405180910390fd5b610ee78383836001611744565b8273ffffffffffffffffffffffffffffffffffffffff16610f07826106bc565b73ffffffffffffffffffffffffffffffffffffffff1614610f5d576040517f08c379a0000000000000000000000000000000000000000000000000000000008152600401610f54906129f7565b60405180910390fd5b6004600082815260200190815260200160002060006101000a81549073ffffffffffffffffffffffffffffffffffffffff02191690556001600360008573ffffffffffffffffffffffffffffffffffffffff1673ffffffffffffffffffffffffffffffffffffffff168152602001908152602001600020600082825403925050819055506001600360008473ffffffffffffffffffffffffffffffffffffffff1673ffffffffffffffffffffffffffffffffffffffff16815260200190815260200160002060008282540192505081905550816002600083815260200190815260200160002060006101000a81548173ffffffffffffffffffffffffffffffffffffffff021916908373ffffffffffffffffffffffffffffffffffffffff160217905550808273ffffffffffffffffffffffffffffffffffffffff168473ffffffffffffffffffffffffffffffffffffffff167fddf252ad1be2c89b69c2b068fc378daa952ba7f163c4a11628f55a4df523b3ef60405160405180910390a46110e9838383600161174a565b505050565b60006002600083815260200190815260200160002060009054906101000a900473ffffffffffffffffffffffffffffffffffffffff169050919050565b611133610c9f565b73ffffffffffffffffffffffffffffffffffffffff1661115161080d565b73ffffffffffffffffffffffffffffffffffffffff16146111a7576040517f08c379a000000000000000000000000000000000000000000000000000000000815260040161119e90612af5565b60405180910390fd5b565b6000600760009054906101000a900473ffffffffffffffffffffffffffffffffffffffff16905081600760006101000a81548173ffffffffffffffffffffffffffffffffffffffff021916908373ffffffffffffffffffffffffffffffffffffffff1602179055508173ffffffffffffffffffffffffffffffffffffffff168173ffffffffffffffffffffffffffffffffffffffff167f8be0079c531659141344cd1fd0a4f28419497f9722a3daafe3b4186f6b6457e060405160405180910390a35050565b8173ffffffffffffffffffffffffffffffffffffffff168373ffffffffffffffffffffffffffffffffffffffff16036112dd576040517f08c379a00000000000000000000000000000000000000000000000000000000081526004016112d490612b61565b60405180910390fd5b80600560008573ffffffffffffffffffffffffffffffffffffffff1673ffffffffffffffffffffffffffffffffffffffff16815260200190815260200160002060008473ffffffffffffffffffffffffffffffffffffffff1673ffffffffffffffffffffffffffffffffffffffff16815260200190815260200160002060006101000a81548160ff0219169083151502179055508173ffffffffffffffffffffffffffffffffffffffff168373ffffffffffffffffffffffffffffffffffffffff167f17307eab39ab6107e8899845ad3d59bd9653f200f220920489ca2b5937696c31836040516113ce9190611f30565b60405180910390a3505050565b6113e6848484610df5565b6113f284848484611750565b611431576040517f08c379a000000000000000000000000000000000000000000000000000000000815260040161142890612bf3565b60405180910390fd5b50505050565b606061144282610c54565b600060066000848152602001908152602001600020805461146290612562565b80601f016020809104026020016040519081016040528092919081815260200182805461148e90612562565b80156114db5780601f106114b0576101008083540402835291602001916114db565b820191906000526020600020905b8154815290600101906020018083116114be57829003601f168201915b5050505050905060006114ec6118d7565b90506000815103611501578192505050611544565b60008251111561153657808260405160200161151e929190612c4f565b60405160208183030381529060405292505050611544565b61153f846118ee565b925050505b919050565b6001816000016000828254019250508190555050565b611579828260405180602001604052806000815250611956565b5050565b61158682611703565b6115c5576040517f08c379a00000000000000000000000000000000000000000000000000000000081526004016115bc90612ce5565b60405180910390fd5b806006600084815260200190815260200160002090816115e59190612eb1565b507ff8e1a15aba9398e019f0b49df1a4fde98ee17ae345cb5f6b5e2c27f5033e8ce7826040516116159190611f64565b60405180910390a15050565b60007f80ac58cd000000000000000000000000000000000000000000000000000000007bffffffffffffffffffffffffffffffffffffffffffffffffffffffff1916827bffffffffffffffffffffffffffffffffffffffffffffffffffffffff191614806116ec57507f5b5e139f000000000000000000000000000000000000000000000000000000007bffffffffffffffffffffffffffffffffffffffffffffffffffffffff1916827bffffffffffffffffffffffffffffffffffffffffffffffffffffffff1916145b806116fc57506116fb826119b1565b5b9050919050565b60008073ffffffffffffffffffffffffffffffffffffffff16611725836110ee565b73ffffffffffffffffffffffffffffffffffffffff1614159050919050565b50505050565b50505050565b60006117718473ffffffffffffffffffffffffffffffffffffffff16611a1b565b156118ca578373ffffffffffffffffffffffffffffffffffffffff1663150b7a0261179a610c9f565b8786866040518563ffffffff1660e01b81526004016117bc9493929190612fd8565b6020604051808303816000875af19250505080156117f857506040513d601f19601f820116820180604052508101906117f59190613039565b60015b61187a573d8060008114611828576040519150601f19603f3d011682016040523d82523d6000602084013e61182d565b606091505b506000815103611872576040517f08c379a000000000000000000000000000000000000000000000000000000000815260040161186990612bf3565b60405180910390fd5b805181602001fd5b63150b7a0260e01b7bffffffffffffffffffffffffffffffffffffffffffffffffffffffff1916817bffffffffffffffffffffffffffffffffffffffffffffffffffffffff1916149150506118cf565b600190505b949350505050565b606060405180602001604052806000815250905090565b60606118f982610c54565b60006119036118d7565b90506000815111611923576040518060200160405280600081525061194e565b8061192d84611a3e565b60405160200161193e929190612c4f565b6040516020818303038152906040525b915050919050565b6119608383611b0c565b61196d6000848484611750565b6119ac576040517f08c379a00000000000000000000000000000000000000000000000000000000081526004016119a390612bf3565b60405180910390fd5b505050565b60007f01ffc9a7000000000000000000000000000000000000000000000000000000007bffffffffffffffffffffffffffffffffffffffffffffffffffffffff1916827bffffffffffffffffffffffffffffffffffffffffffffffffffffffff1916149050919050565b6000808273ffffffffffffffffffffffffffffffffffffffff163b119050919050565b606060006001611a4d84611d29565b01905060008167ffffffffffffffff811115611a6c57611a6b612248565b5b6040519080825280601f01601f191660200182016040528015611a9e5781602001600182028036833780820191505090505b509050600082602001820190505b600115611b01578080600190039150507f3031323334353637383961626364656600000000000000000000000000000000600a86061a8153600a8581611af557611af4613066565b5b04945060008503611aac575b819350505050919050565b600073ffffffffffffffffffffffffffffffffffffffff168273ffffffffffffffffffffffffffffffffffffffff1603611b7b576040517f08c379a0000000000000000000000000000000000000000000000000000000008152600401611b72906130e1565b60405180910390fd5b611b8481611703565b15611bc4576040517f08c379a0000000000000000000000000000000000000000000000000000000008152600401611bbb9061314d565b60405180910390fd5b611bd2600083836001611744565b611bdb81611703565b15611c1b576040517f08c379a0000000000000000000000000000000000000000000000000000000008152600401611c129061314d565b60405180910390fd5b6001600360008473ffffffffffffffffffffffffffffffffffffffff1673ffffffffffffffffffffffffffffffffffffffff16815260200190815260200160002060008282540192505081905550816002600083815260200190815260200160002060006101000a81548173ffffffffffffffffffffffffffffffffffffffff021916908373ffffffffffffffffffffffffffffffffffffffff160217905550808273ffffffffffffffffffffffffffffffffffffffff16600073ffffffffffffffffffffffffffffffffffffffff167fddf252ad1be2c89b69c2b068fc378daa952ba7f163c4a11628f55a4df523b3ef60405160405180910390a4611d2560008383600161174a565b5050565b600080600090507a184f03e93ff9f4daa797ed6e38ed64bf6a1f0100000000000000008310611d87577a184f03e93ff9f4daa797ed6e38ed64bf6a1f0100000000000000008381611d7d57611d7c613066565b5b0492506040810190505b6d04ee2d6d415b85acef81000000008310611dc4576d04ee2d6d415b85acef81000000008381611dba57611db9613066565b5b0492506020810190505b662386f26fc100008310611df357662386f26fc100008381611de957611de8613066565b5b0492506010810190505b6305f5e1008310611e1c576305f5e1008381611e1257611e11613066565b5b0492506008810190505b6127108310611e41576127108381611e3757611e36613066565b5b0492506004810190505b60648310611e645760648381611e5a57611e59613066565b5b0492506002810190505b600a8310611e73576001810190505b80915050919050565b6000604051905090565b600080fd5b600080fd5b60007fffffffff0000000000000000000000000000000000000000000000000000000082169050919050565b611ec581611e90565b8114611ed057600080fd5b50565b600081359050611ee281611ebc565b92915050565b600060208284031215611efe57611efd611e86565b5b6000611f0c84828501611ed3565b91505092915050565b60008115159050919050565b611f2a81611f15565b82525050565b6000602082019050611f456000830184611f21565b92915050565b6000819050919050565b611f5e81611f4b565b82525050565b6000602082019050611f796000830184611f55565b92915050565b600081519050919050565b600082825260208201905092915050565b60005b83811015611fb9578082015181840152602081019050611f9e565b60008484015250505050565b6000601f19601f8301169050919050565b6000611fe182611f7f565b611feb8185611f8a565b9350611ffb818560208601611f9b565b61200481611fc5565b840191505092915050565b600060208201905081810360008301526120298184611fd6565b905092915050565b61203a81611f4b565b811461204557600080fd5b50565b60008135905061205781612031565b92915050565b60006020828403121561207357612072611e86565b5b600061208184828501612048565b91505092915050565b600073ffffffffffffffffffffffffffffffffffffffff82169050919050565b60006120b58261208a565b9050919050565b6120c5816120aa565b82525050565b60006020820190506120e060008301846120bc565b92915050565b6120ef816120aa565b81146120fa57600080fd5b50565b60008135905061210c816120e6565b92915050565b6000806040838503121561212957612128611e86565b5b6000612137858286016120fd565b925050602061214885828601612048565b9150509250929050565b60008060006060848603121561216b5761216a611e86565b5b6000612179868287016120fd565b935050602061218a868287016120fd565b925050604061219b86828701612048565b9150509250925092565b6000602082840312156121bb576121ba611e86565b5b60006121c9848285016120fd565b91505092915050565b6121db81611f15565b81146121e657600080fd5b50565b6000813590506121f8816121d2565b92915050565b6000806040838503121561221557612214611e86565b5b6000612223858286016120fd565b9250506020612234858286016121e9565b9150509250929050565b600080fd5b600080fd5b7f4e487b7100000000000000000000000000000000000000000000000000000000600052604160045260246000fd5b61228082611fc5565b810181811067ffffffffffffffff8211171561229f5761229e612248565b5b80604052505050565b60006122b2611e7c565b90506122be8282612277565b919050565b600067ffffffffffffffff8211156122de576122dd612248565b5b6122e782611fc5565b9050602081019050919050565b82818337600083830152505050565b6000612316612311846122c3565b6122a8565b90508281526020810184848401111561233257612331612243565b5b61233d8482856122f4565b509392505050565b600082601f83011261235a5761235961223e565b5b813561236a848260208601612303565b91505092915050565b6000806000806080858703121561238d5761238c611e86565b5b600061239b878288016120fd565b94505060206123ac878288016120fd565b93505060406123bd87828801612048565b925050606085013567ffffffffffffffff8111156123de576123dd611e8b565b5b6123ea87828801612345565b91505092959194509250565b600067ffffffffffffffff82111561241157612410612248565b5b61241a82611fc5565b9050602081019050919050565b600061243a612435846123f6565b6122a8565b90508281526020810184848401111561245657612455612243565b5b6124618482856122f4565b509392505050565b600082601f83011261247e5761247d61223e565b5b813561248e848260208601612427565b91505092915050565b600080604083850312156124ae576124ad611e86565b5b60006124bc858286016120fd565b925050602083013567ffffffffffffffff8111156124dd576124dc611e8b565b5b6124e985828601612469565b9150509250929050565b6000806040838503121561250a57612509611e86565b5b6000612518858286016120fd565b9250506020612529858286016120fd565b9150509250929050565b7f4e487b7100000000000000000000000000000000000000000000000000000000600052602260045260246000fd5b6000600282049050600182168061257a57607f821691505b60208210810361258d5761258c612533565b5b50919050565b7f4552433732313a20617070726f76616c20746f2063757272656e74206f776e6560008201527f7200000000000000000000000000000000000000000000000000000000000000602082015250565b60006125ef602183611f8a565b91506125fa82612593565b604082019050919050565b6000602082019050818103600083015261261e816125e2565b9050919050565b7f4552433732313a20617070726f76652063616c6c6572206973206e6f7420746f60008201527f6b656e206f776e6572206f7220617070726f76656420666f7220616c6c000000602082015250565b6000612681603d83611f8a565b915061268c82612625565b604082019050919050565b600060208201905081810360008301526126b081612674565b9050919050565b7f4552433732313a2063616c6c6572206973206e6f7420746f6b656e206f776e6560008201527f72206f7220617070726f76656400000000000000000000000000000000000000602082015250565b6000612713602d83611f8a565b915061271e826126b7565b604082019050919050565b6000602082019050818103600083015261274281612706565b9050919050565b7f4552433732313a20696e76616c696420746f6b656e2049440000000000000000600082015250565b600061277f601883611f8a565b915061278a82612749565b602082019050919050565b600060208201905081810360008301526127ae81612772565b9050919050565b7f4552433732313a2061646472657373207a65726f206973206e6f74206120766160008201527f6c6964206f776e65720000000000000000000000000000000000000000000000602082015250565b6000612811602983611f8a565b915061281c826127b5565b604082019050919050565b6000602082019050818103600083015261284081612804565b9050919050565b600080fd5b60008151905061285b816120e6565b92915050565b60008151905061287081612031565b92915050565b60006040828403121561288c5761288b612847565b5b61289660406122a8565b905060006128a68482850161284c565b60008301525060206128ba84828501612861565b60208301525092915050565b6000604082840312156128dc576128db611e86565b5b60006128ea84828501612876565b91505092915050565b7f4f776e61626c653a206e6577206f776e657220697320746865207a65726f206160008201527f6464726573730000000000000000000000000000000000000000000000000000602082015250565b600061294f602683611f8a565b915061295a826128f3565b604082019050919050565b6000602082019050818103600083015261297e81612942565b9050919050565b7f4552433732313a207472616e736665722066726f6d20696e636f72726563742060008201527f6f776e6572000000000000000000000000000000000000000000000000000000602082015250565b60006129e1602583611f8a565b91506129ec82612985565b604082019050919050565b60006020820190508181036000830152612a10816129d4565b9050919050565b7f4552433732313a207472616e7366657220746f20746865207a65726f2061646460008201527f7265737300000000000000000000000000000000000000000000000000000000602082015250565b6000612a73602483611f8a565b9150612a7e82612a17565b604082019050919050565b60006020820190508181036000830152612aa281612a66565b9050919050565b7f4f776e61626c653a2063616c6c6572206973206e6f7420746865206f776e6572600082015250565b6000612adf602083611f8a565b9150612aea82612aa9565b602082019050919050565b60006020820190508181036000830152612b0e81612ad2565b9050919050565b7f4552433732313a20617070726f766520746f2063616c6c657200000000000000600082015250565b6000612b4b601983611f8a565b9150612b5682612b15565b602082019050919050565b60006020820190508181036000830152612b7a81612b3e565b9050919050565b7f4552433732313a207472616e7366657220746f206e6f6e20455243373231526560008201527f63656976657220696d706c656d656e7465720000000000000000000000000000602082015250565b6000612bdd603283611f8a565b9150612be882612b81565b604082019050919050565b60006020820190508181036000830152612c0c81612bd0565b9050919050565b600081905092915050565b6000612c2982611f7f565b612c338185612c13565b9350612c43818560208601611f9b565b80840191505092915050565b6000612c5b8285612c1e565b9150612c678284612c1e565b91508190509392505050565b7f45524337323155524953746f726167653a2055524920736574206f66206e6f6e60008201527f6578697374656e7420746f6b656e000000000000000000000000000000000000602082015250565b6000612ccf602e83611f8a565b9150612cda82612c73565b604082019050919050565b60006020820190508181036000830152612cfe81612cc2565b9050919050565b60008190508160005260206000209050919050565b60006020601f8301049050919050565b600082821b905092915050565b600060088302612d677fffffffffffffffffffffffffffffffffffffffffffffffffffffffffffffffff82612d2a565b612d718683612d2a565b95508019841693508086168417925050509392505050565b6000819050919050565b6000612dae612da9612da484611f4b565b612d89565b611f4b565b9050919050565b6000819050919050565b612dc883612d93565b612ddc612dd482612db5565b848454612d37565b825550505050565b600090565b612df1612de4565b612dfc818484612dbf565b505050565b5b81811015612e2057612e15600082612de9565b600181019050612e02565b5050565b601f821115612e6557612e3681612d05565b612e3f84612d1a565b81016020851015612e4e578190505b612e62612e5a85612d1a565b830182612e01565b50505b505050565b600082821c905092915050565b6000612e8860001984600802612e6a565b1980831691505092915050565b6000612ea18383612e77565b9150826002028217905092915050565b612eba82611f7f565b67ffffffffffffffff811115612ed357612ed2612248565b5b612edd8254612562565b612ee8828285612e24565b600060209050601f831160018114612f1b5760008415612f09578287015190505b612f138582612e95565b865550612f7b565b601f198416612f2986612d05565b60005b82811015612f5157848901518255600182019150602085019450602081019050612f2c565b86831015612f6e5784890151612f6a601f891682612e77565b8355505b6001600288020188555050505b505050505050565b600081519050919050565b600082825260208201905092915050565b6000612faa82612f83565b612fb48185612f8e565b9350612fc4818560208601611f9b565b612fcd81611fc5565b840191505092915050565b6000608082019050612fed60008301876120bc565b612ffa60208301866120bc565b6130076040830185611f55565b81810360608301526130198184612f9f565b905095945050505050565b60008151905061303381611ebc565b92915050565b60006020828403121561304f5761304e611e86565b5b600061305d84828501613024565b91505092915050565b7f4e487b7100000000000000000000000000000000000000000000000000000000600052601260045260246000fd5b7f4552433732313a206d696e7420746f20746865207a65726f2061646472657373600082015250565b60006130cb602083611f8a565b91506130d682613095565b602082019050919050565b600060208201905081810360008301526130fa816130be565b9050919050565b7f4552433732313a20746f6b656e20616c7265616479206d696e74656400000000600082015250565b6000613137601c83611f8a565b915061314282613101565b602082019050919050565b600060208201905081810360008301526131668161312a565b905091905056fea2646970667358221220f5a7df799ead42c44fb4606fc4e2bd793f62401d4effe9b64ba4c169a4c09c9364736f6c63430008110033",
  "devdoc": {
    "author": "Rodrigo Fernandes",
    "kind": "dev",
    "methods": {
      "approve(address,uint256)": {
        "details": "See {IERC721-approve}."
      },
      "balanceOf(address)": {
        "details": "See {IERC721-balanceOf}."
      },
      "getApproved(uint256)": {
        "details": "See {IERC721-getApproved}."
      },
      "isApprovedForAll(address,address)": {
        "details": "See {IERC721-isApprovedForAll}."
      },
      "isTokenIDOwnerValid(uint256)": {
        "params": {
          "tokenId": "the ID of the NFT that is being checked"
        }
      },
      "name()": {
        "details": "See {IERC721Metadata-name}."
      },
      "owner()": {
        "details": "Returns the address of the current owner."
      },
      "ownerOf(uint256)": {
        "details": "See {IERC721-ownerOf}."
      },
      "renounceOwnership()": {
        "details": "Leaves the contract without owner. It will not be possible to call `onlyOwner` functions. Can only be called by the current owner. NOTE: Renouncing ownership will leave the contract without an owner, thereby disabling any functionality that is only available to the owner."
      },
      "safeMint(address,string)": {
        "params": {
          "to": "the address of the renter",
          "uri": "the URI of the NFT that is being rented"
        }
      },
      "safeTransferFrom(address,address,uint256)": {
        "details": "See {IERC721-safeTransferFrom}."
      },
      "safeTransferFrom(address,address,uint256,bytes)": {
        "details": "See {IERC721-safeTransferFrom}."
      },
      "setApprovalForAll(address,bool)": {
        "details": "See {IERC721-setApprovalForAll}."
      },
      "supportsInterface(bytes4)": {
        "params": {
          "interfaceId": "the ID of the interface that is being checked"
        }
      },
      "symbol()": {
        "details": "See {IERC721Metadata-symbol}."
      },
      "tokenURI(uint256)": {
        "params": {
          "tokenId": "the ID of the NFT that is being checked"
        }
      },
      "transferFrom(address,address,uint256)": {
        "details": "See {IERC721-transferFrom}."
      },
      "transferOwnership(address)": {
        "details": "Transfers ownership of the contract to a new account (`newOwner`). Can only be called by the current owner."
      }
    },
    "title": "An NFT that meant to mimic the metadata of an NFT that is being rented on the platform",
    "version": 1
  },
  "userdoc": {
    "kind": "user",
    "methods": {
      "count()": {
        "notice": "This function returns the number of NFTs that were minted"
      },
      "isTokenIDOwnerValid(uint256)": {
        "notice": "This function checks if the owner of the NFT is a valid renter of the rental contract that the NFT represents"
      },
      "safeMint(address,string)": {
        "notice": "This function mints an NFT with the metadata of a non-collateralized rental"
      },
      "supportsInterface(bytes4)": {
        "notice": "This function is used to check if a given interface is supported by the contract"
      },
      "tokenURI(uint256)": {
        "notice": "Get the token URI of a given NFT"
      }
    },
    "notice": "This contract is used to mint NFTs with the metadata of non-collateralized rentals. It also provides a function to check if the owner of the NFT is a valid renter of the rental contract that the NFT represents",
    "version": 1
  },
  "storageLayout": {
    "storage": [
      {
        "astId": 166,
        "contract": "contracts/WrappedNFT.sol:WrappedNFT",
        "label": "_name",
        "offset": 0,
        "slot": "0",
        "type": "t_string_storage"
      },
      {
        "astId": 168,
        "contract": "contracts/WrappedNFT.sol:WrappedNFT",
        "label": "_symbol",
        "offset": 0,
        "slot": "1",
        "type": "t_string_storage"
      },
      {
        "astId": 172,
        "contract": "contracts/WrappedNFT.sol:WrappedNFT",
        "label": "_owners",
        "offset": 0,
        "slot": "2",
        "type": "t_mapping(t_uint256,t_address)"
      },
      {
        "astId": 176,
        "contract": "contracts/WrappedNFT.sol:WrappedNFT",
        "label": "_balances",
        "offset": 0,
        "slot": "3",
        "type": "t_mapping(t_address,t_uint256)"
      },
      {
        "astId": 180,
        "contract": "contracts/WrappedNFT.sol:WrappedNFT",
        "label": "_tokenApprovals",
        "offset": 0,
        "slot": "4",
        "type": "t_mapping(t_uint256,t_address)"
      },
      {
        "astId": 186,
        "contract": "contracts/WrappedNFT.sol:WrappedNFT",
        "label": "_operatorApprovals",
        "offset": 0,
        "slot": "5",
        "type": "t_mapping(t_address,t_mapping(t_address,t_bool))"
      },
      {
        "astId": 1217,
        "contract": "contracts/WrappedNFT.sol:WrappedNFT",
        "label": "_tokenURIs",
        "offset": 0,
        "slot": "6",
        "type": "t_mapping(t_uint256,t_string_storage)"
      },
      {
        "astId": 7,
        "contract": "contracts/WrappedNFT.sol:WrappedNFT",
        "label": "_owner",
        "offset": 0,
        "slot": "7",
        "type": "t_address"
      },
      {
        "astId": 4863,
        "contract": "contracts/WrappedNFT.sol:WrappedNFT",
        "label": "_tokenIdCounter",
        "offset": 0,
        "slot": "8",
        "type": "t_struct(Counter)1742_storage"
      },
      {
        "astId": 4867,
        "contract": "contracts/WrappedNFT.sol:WrappedNFT",
        "label": "tokenIDtoRentHolderSC",
        "offset": 0,
        "slot": "9",
        "type": "t_mapping(t_uint256,t_address)"
      }
    ],
    "types": {
      "t_address": {
        "encoding": "inplace",
        "label": "address",
        "numberOfBytes": "20"
      },
      "t_bool": {
        "encoding": "inplace",
        "label": "bool",
        "numberOfBytes": "1"
      },
      "t_mapping(t_address,t_bool)": {
        "encoding": "mapping",
        "key": "t_address",
        "label": "mapping(address => bool)",
        "numberOfBytes": "32",
        "value": "t_bool"
      },
      "t_mapping(t_address,t_mapping(t_address,t_bool))": {
        "encoding": "mapping",
        "key": "t_address",
        "label": "mapping(address => mapping(address => bool))",
        "numberOfBytes": "32",
        "value": "t_mapping(t_address,t_bool)"
      },
      "t_mapping(t_address,t_uint256)": {
        "encoding": "mapping",
        "key": "t_address",
        "label": "mapping(address => uint256)",
        "numberOfBytes": "32",
        "value": "t_uint256"
      },
      "t_mapping(t_uint256,t_address)": {
        "encoding": "mapping",
        "key": "t_uint256",
        "label": "mapping(uint256 => address)",
        "numberOfBytes": "32",
        "value": "t_address"
      },
      "t_mapping(t_uint256,t_string_storage)": {
        "encoding": "mapping",
        "key": "t_uint256",
        "label": "mapping(uint256 => string)",
        "numberOfBytes": "32",
        "value": "t_string_storage"
      },
      "t_string_storage": {
        "encoding": "bytes",
        "label": "string",
        "numberOfBytes": "32"
      },
      "t_struct(Counter)1742_storage": {
        "encoding": "inplace",
        "label": "struct Counters.Counter",
        "members": [
          {
            "astId": 1741,
            "contract": "contracts/WrappedNFT.sol:WrappedNFT",
            "label": "_value",
            "offset": 0,
            "slot": "0",
            "type": "t_uint256"
          }
        ],
        "numberOfBytes": "32"
      },
      "t_uint256": {
        "encoding": "inplace",
        "label": "uint256",
        "numberOfBytes": "32"
      }
    }
  }
}