{
  "address": "0xE20943Ba186d1E75e51077745e453E1559413703",
  "abi": [
    {
      "inputs": [
        {
          "internalType": "uint256",
          "name": "_feePercentage",
          "type": "uint256"
        },
        {
          "internalType": "address",
          "name": "_wrappedCollectionAddress",
          "type": "address"
        }
      ],
      "stateMutability": "nonpayable",
      "type": "constructor"
    },
    {
      "inputs": [],
      "name": "addCollateralizedRentHolderSC",
      "outputs": [],
      "stateMutability": "nonpayable",
      "type": "function"
    },
    {
      "inputs": [],
      "name": "addNonCollateralizedRentHolderSC",
      "outputs": [],
      "stateMutability": "nonpayable",
      "type": "function"
    },
    {
      "inputs": [],
      "name": "getFeeInfo",
      "outputs": [
        {
          "internalType": "address",
          "name": "",
          "type": "address"
        },
        {
          "internalType": "uint256",
          "name": "",
          "type": "uint256"
        }
      ],
      "stateMutability": "view",
      "type": "function"
    },
    {
      "inputs": [],
      "name": "getWrappedCollectionAddress",
      "outputs": [
        {
          "internalType": "address",
          "name": "",
          "type": "address"
        }
      ],
      "stateMutability": "view",
      "type": "function"
    },
    {
      "inputs": [],
      "name": "listAllCollateralizedRelevantInfo",
      "outputs": [
        {
          "components": [
            {
              "internalType": "address",
              "name": "rentHolderSC",
              "type": "address"
            },
            {
              "internalType": "address",
              "name": "nftOwner",
              "type": "address"
            },
            {
              "internalType": "address",
              "name": "nftAddress",
              "type": "address"
            },
            {
              "internalType": "uint256",
              "name": "nftId",
              "type": "uint256"
            },
            {
              "internalType": "uint256",
              "name": "ratePerHour",
              "type": "uint256"
            },
            {
              "internalType": "uint256",
              "name": "collateralValue",
              "type": "uint256"
            },
            {
              "internalType": "address",
              "name": "currRenter",
              "type": "address"
            },
            {
              "internalType": "uint256",
              "name": "currRentEndDate",
              "type": "uint256"
            },
            {
              "internalType": "uint256",
              "name": "currRentPeriod",
              "type": "uint256"
            }
          ],
          "internalType": "struct GenericRentHolder.RelevantRentInfo[]",
          "name": "",
          "type": "tuple[]"
        }
      ],
      "stateMutability": "view",
      "type": "function"
    },
    {
      "inputs": [],
      "name": "listAllNonCollateralizedRelevantInfo",
      "outputs": [
        {
          "components": [
            {
              "internalType": "address",
              "name": "rentHolderSC",
              "type": "address"
            },
            {
              "internalType": "address",
              "name": "nftOwner",
              "type": "address"
            },
            {
              "internalType": "address",
              "name": "nftAddress",
              "type": "address"
            },
            {
              "internalType": "uint256",
              "name": "nftId",
              "type": "uint256"
            },
            {
              "internalType": "uint256",
              "name": "ratePerHour",
              "type": "uint256"
            },
            {
              "internalType": "uint256",
              "name": "collateralValue",
              "type": "uint256"
            },
            {
              "internalType": "address",
              "name": "currRenter",
              "type": "address"
            },
            {
              "internalType": "uint256",
              "name": "currRentEndDate",
              "type": "uint256"
            },
            {
              "internalType": "uint256",
              "name": "currRentPeriod",
              "type": "uint256"
            }
          ],
          "internalType": "struct GenericRentHolder.RelevantRentInfo[]",
          "name": "",
          "type": "tuple[]"
        }
      ],
      "stateMutability": "view",
      "type": "function"
    },
    {
      "inputs": [],
      "name": "listAllRelevantInfo",
      "outputs": [
        {
          "components": [
            {
              "internalType": "address",
              "name": "rentHolderSC",
              "type": "address"
            },
            {
              "internalType": "address",
              "name": "nftOwner",
              "type": "address"
            },
            {
              "internalType": "address",
              "name": "nftAddress",
              "type": "address"
            },
            {
              "internalType": "uint256",
              "name": "nftId",
              "type": "uint256"
            },
            {
              "internalType": "uint256",
              "name": "ratePerHour",
              "type": "uint256"
            },
            {
              "internalType": "uint256",
              "name": "collateralValue",
              "type": "uint256"
            },
            {
              "internalType": "address",
              "name": "currRenter",
              "type": "address"
            },
            {
              "internalType": "uint256",
              "name": "currRentEndDate",
              "type": "uint256"
            },
            {
              "internalType": "uint256",
              "name": "currRentPeriod",
              "type": "uint256"
            }
          ],
          "internalType": "struct GenericRentHolder.RelevantRentInfo[]",
          "name": "",
          "type": "tuple[]"
        }
      ],
      "stateMutability": "view",
      "type": "function"
    },
    {
      "inputs": [
        {
          "internalType": "address",
          "name": "_lenter",
          "type": "address"
        }
      ],
      "name": "listLentedRelevantInfo",
      "outputs": [
        {
          "components": [
            {
              "internalType": "address",
              "name": "rentHolderSC",
              "type": "address"
            },
            {
              "internalType": "address",
              "name": "nftOwner",
              "type": "address"
            },
            {
              "internalType": "address",
              "name": "nftAddress",
              "type": "address"
            },
            {
              "internalType": "uint256",
              "name": "nftId",
              "type": "uint256"
            },
            {
              "internalType": "uint256",
              "name": "ratePerHour",
              "type": "uint256"
            },
            {
              "internalType": "uint256",
              "name": "collateralValue",
              "type": "uint256"
            },
            {
              "internalType": "address",
              "name": "currRenter",
              "type": "address"
            },
            {
              "internalType": "uint256",
              "name": "currRentEndDate",
              "type": "uint256"
            },
            {
              "internalType": "uint256",
              "name": "currRentPeriod",
              "type": "uint256"
            }
          ],
          "internalType": "struct GenericRentHolder.RelevantRentInfo[]",
          "name": "",
          "type": "tuple[]"
        }
      ],
      "stateMutability": "view",
      "type": "function"
    },
    {
      "inputs": [
        {
          "internalType": "address",
          "name": "_renter",
          "type": "address"
        }
      ],
      "name": "listRentedRelevantInfo",
      "outputs": [
        {
          "components": [
            {
              "internalType": "address",
              "name": "rentHolderSC",
              "type": "address"
            },
            {
              "internalType": "address",
              "name": "nftOwner",
              "type": "address"
            },
            {
              "internalType": "address",
              "name": "nftAddress",
              "type": "address"
            },
            {
              "internalType": "uint256",
              "name": "nftId",
              "type": "uint256"
            },
            {
              "internalType": "uint256",
              "name": "ratePerHour",
              "type": "uint256"
            },
            {
              "internalType": "uint256",
              "name": "collateralValue",
              "type": "uint256"
            },
            {
              "internalType": "address",
              "name": "currRenter",
              "type": "address"
            },
            {
              "internalType": "uint256",
              "name": "currRentEndDate",
              "type": "uint256"
            },
            {
              "internalType": "uint256",
              "name": "currRentPeriod",
              "type": "uint256"
            }
          ],
          "internalType": "struct GenericRentHolder.RelevantRentInfo[]",
          "name": "",
          "type": "tuple[]"
        }
      ],
      "stateMutability": "view",
      "type": "function"
    },
    {
      "inputs": [],
      "name": "removeCollateralizedRentSC",
      "outputs": [],
      "stateMutability": "nonpayable",
      "type": "function"
    },
    {
      "inputs": [],
      "name": "removeNonCollateralizedRentSC",
      "outputs": [],
      "stateMutability": "nonpayable",
      "type": "function"
    }
  ],
  "transactionHash": "0x1a6f811c81d82eb5ab58ea18d25d8e669b4c826eb00a8e97c140f108d06f3bb0",
  "args": [
    1,
    "0x2fAe42D5da941c8aB2ECBE3cb9496d04b85CEd88"
  ],
  "numDeployments": 1,
  "solcInputHash": "0ae782473015a23312448accdcd73a24",
  "bytecode": "0x60e06040523480156200001157600080fd5b506040516200149538038062001495833981810160405281019062000037919062000154565b3373ffffffffffffffffffffffffffffffffffffffff1660808173ffffffffffffffffffffffffffffffffffffffff16815250508160a081815250508073ffffffffffffffffffffffffffffffffffffffff1660c08173ffffffffffffffffffffffffffffffffffffffff168152505050506200019b565b600080fd5b6000819050919050565b620000c981620000b4565b8114620000d557600080fd5b50565b600081519050620000e981620000be565b92915050565b600073ffffffffffffffffffffffffffffffffffffffff82169050919050565b60006200011c82620000ef565b9050919050565b6200012e816200010f565b81146200013a57600080fd5b50565b6000815190506200014e8162000123565b92915050565b600080604083850312156200016e576200016d620000af565b5b60006200017e85828601620000d8565b925050602062000191858286016200013d565b9150509250929050565b60805160a05160c0516112ca620001cb600039600061041e015260006101f2015260006101d101526112ca6000f3fe608060405234801561001057600080fd5b50600436106100a85760003560e01c80635da9a390116100715780635da9a390146101425780637ca72b3c1461014c5780638f2bf04b146101565780639f8ed60514610174578063bc69bfd214610192578063d08c6cca146101c2576100a8565b806202eab7146100ad5780631ad66a80146100cc578063309aa185146100ea578063340958dc1461011a5780634e36eb2c14610124575b600080fd5b6100b56101cc565b6040516100c3929190610c9c565b60405180910390f35b6100d4610219565b6040516100e19190610e4a565b60405180910390f35b61010460048036038101906100ff9190610ea7565b610263565b6040516101119190610e4a565b60405180910390f35b6101226102ae565b005b61012c610313565b6040516101399190610e4a565b60405180910390f35b61014a61035e565b005b61015461036a565b005b61015e6103cf565b60405161016b9190610e4a565b60405180910390f35b61017c61041a565b6040516101899190610ed4565b60405180910390f35b6101ac60048036038101906101a79190610ea7565b610442565b6040516101b99190610e4a565b60405180910390f35b6101ca61048d565b005b6000807f00000000000000000000000000000000000000000000000000000000000000007f0000000000000000000000000000000000000000000000000000000000000000915091509091565b606061025e6001806040518060400160405280600481526020017f6e6f6e65000000000000000000000000000000000000000000000000000000008152506000610499565b905090565b60606102a76001806040518060400160405280600681526020017f6c656e746564000000000000000000000000000000000000000000000000000081525085610499565b9050919050565b6000339080600181540180825580915050600190039060005260206000200160009091909190916101000a81548173ffffffffffffffffffffffffffffffffffffffff021916908373ffffffffffffffffffffffffffffffffffffffff160217905550565b6060610359600160006040518060400160405280600481526020017f6e6f6e65000000000000000000000000000000000000000000000000000000008152506000610499565b905090565b610368600061080e565b565b6001339080600181540180825580915050600190039060005260206000200160009091909190916101000a81548173ffffffffffffffffffffffffffffffffffffffff021916908373ffffffffffffffffffffffffffffffffffffffff160217905550565b6060610415600060016040518060400160405280600481526020017f6e6f6e65000000000000000000000000000000000000000000000000000000008152506000610499565b905090565b60007f0000000000000000000000000000000000000000000000000000000000000000905090565b60606104866001806040518060400160405280600681526020017f72656e746564000000000000000000000000000000000000000000000000000081525085610499565b9050919050565b610497600161080e565b565b606060006001805490506000805490506104b39190610f1e565b67ffffffffffffffff8111156104cc576104cb610f52565b5b60405190808252806020026020018201604052801561050557816020015b6104f2610b9e565b8152602001906001900390816104ea5790505b5090506000861561062c5760008080549050905060005b8181101561062957600080828154811061053957610538610f81565b5b9060005260206000200160009054906101000a900473ffffffffffffffffffffffffffffffffffffffff1673ffffffffffffffffffffffffffffffffffffffff1663d506355c6040518163ffffffff1660e01b815260040161012060405180830381865afa1580156105af573d6000803e3d6000fd5b505050506040513d601f19601f820116820180604052508101906105d39190611133565b90506105e2818960018a61099a565b1561061557808585815181106105fb576105fa610f81565b5b6020026020010181905250838061061190611161565b9450505b50808061062190611161565b91505061051c565b50505b8515610750576000600180549050905060005b8181101561074d5760006001828154811061065d5761065c610f81565b5b9060005260206000200160009054906101000a900473ffffffffffffffffffffffffffffffffffffffff1673ffffffffffffffffffffffffffffffffffffffff1663d506355c6040518163ffffffff1660e01b815260040161012060405180830381865afa1580156106d3573d6000803e3d6000fd5b505050506040513d601f19601f820116820180604052508101906106f79190611133565b9050610706818960008a61099a565b15610739578085858151811061071f5761071e610f81565b5b6020026020010181905250838061073590611161565b9450505b50808061074590611161565b91505061063f565b50505b60008167ffffffffffffffff81111561076c5761076b610f52565b5b6040519080825280602002602001820160405280156107a557816020015b610792610b9e565b81526020019060019003908161078a5790505b50905060005b828110156107ff578381815181106107c6576107c5610f81565b5b60200260200101518282815181106107e1576107e0610f81565b5b602002602001018190525080806107f790611161565b9150506107ab565b50809350505050949350505050565b60008180549050905060005b81811015610995573373ffffffffffffffffffffffffffffffffffffffff1683828154811061084c5761084b610f81565b5b9060005260206000200160009054906101000a900473ffffffffffffffffffffffffffffffffffffffff1673ffffffffffffffffffffffffffffffffffffffff160361098257826001836108a091906111a9565b815481106108b1576108b0610f81565b5b9060005260206000200160009054906101000a900473ffffffffffffffffffffffffffffffffffffffff168382815481106108ef576108ee610f81565b5b9060005260206000200160006101000a81548173ffffffffffffffffffffffffffffffffffffffff021916908373ffffffffffffffffffffffffffffffffffffffff16021790555082805480610948576109476111dd565b5b6001900381819060005260206000200160006101000a81549073ffffffffffffffffffffffffffffffffffffffff02191690559055610995565b808061098d90611161565b91505061081a565b505050565b60006109db846040518060400160405280600681526020017f6c656e7465640000000000000000000000000000000000000000000000000000815250610b45565b15610a1a578173ffffffffffffffffffffffffffffffffffffffff16856020015173ffffffffffffffffffffffffffffffffffffffff16149050610b3d565b610a59846040518060400160405280600681526020017f72656e7465640000000000000000000000000000000000000000000000000000815250610b45565b8015610a63575082155b15610ab1578173ffffffffffffffffffffffffffffffffffffffff168560c0015173ffffffffffffffffffffffffffffffffffffffff16148015610aaa5750428560e00151115b9050610b3d565b610af0846040518060400160405280600681526020017f72656e7465640000000000000000000000000000000000000000000000000000815250610b45565b8015610af95750825b15610b38578173ffffffffffffffffffffffffffffffffffffffff168560c0015173ffffffffffffffffffffffffffffffffffffffff16149050610b3d565b600190505b949350505050565b600081604051602001610b58919061127d565b6040516020818303038152906040528051906020012083604051602001610b7f919061127d565b6040516020818303038152906040528051906020012014905092915050565b604051806101200160405280600073ffffffffffffffffffffffffffffffffffffffff168152602001600073ffffffffffffffffffffffffffffffffffffffff168152602001600073ffffffffffffffffffffffffffffffffffffffff168152602001600081526020016000815260200160008152602001600073ffffffffffffffffffffffffffffffffffffffff16815260200160008152602001600081525090565b600073ffffffffffffffffffffffffffffffffffffffff82169050919050565b6000610c6d82610c42565b9050919050565b610c7d81610c62565b82525050565b6000819050919050565b610c9681610c83565b82525050565b6000604082019050610cb16000830185610c74565b610cbe6020830184610c8d565b9392505050565b600081519050919050565b600082825260208201905092915050565b6000819050602082019050919050565b610cfa81610c62565b82525050565b610d0981610c83565b82525050565b61012082016000820151610d266000850182610cf1565b506020820151610d396020850182610cf1565b506040820151610d4c6040850182610cf1565b506060820151610d5f6060850182610d00565b506080820151610d726080850182610d00565b5060a0820151610d8560a0850182610d00565b5060c0820151610d9860c0850182610cf1565b5060e0820151610dab60e0850182610d00565b50610100820151610dc0610100850182610d00565b50505050565b6000610dd28383610d0f565b6101208301905092915050565b6000602082019050919050565b6000610df782610cc5565b610e018185610cd0565b9350610e0c83610ce1565b8060005b83811015610e3d578151610e248882610dc6565b9750610e2f83610ddf565b925050600181019050610e10565b5085935050505092915050565b60006020820190508181036000830152610e648184610dec565b905092915050565b6000604051905090565b600080fd5b610e8481610c62565b8114610e8f57600080fd5b50565b600081359050610ea181610e7b565b92915050565b600060208284031215610ebd57610ebc610e76565b5b6000610ecb84828501610e92565b91505092915050565b6000602082019050610ee96000830184610c74565b92915050565b7f4e487b7100000000000000000000000000000000000000000000000000000000600052601160045260246000fd5b6000610f2982610c83565b9150610f3483610c83565b9250828201905080821115610f4c57610f4b610eef565b5b92915050565b7f4e487b7100000000000000000000000000000000000000000000000000000000600052604160045260246000fd5b7f4e487b7100000000000000000000000000000000000000000000000000000000600052603260045260246000fd5b600080fd5b6000601f19601f8301169050919050565b610fcf82610fb5565b810181811067ffffffffffffffff82111715610fee57610fed610f52565b5b80604052505050565b6000611001610e6c565b905061100d8282610fc6565b919050565b60008151905061102181610e7b565b92915050565b61103081610c83565b811461103b57600080fd5b50565b60008151905061104d81611027565b92915050565b6000610120828403121561106a57611069610fb0565b5b611075610120610ff7565b9050600061108584828501611012565b600083015250602061109984828501611012565b60208301525060406110ad84828501611012565b60408301525060606110c18482850161103e565b60608301525060806110d58482850161103e565b60808301525060a06110e98482850161103e565b60a08301525060c06110fd84828501611012565b60c08301525060e06111118482850161103e565b60e0830152506101006111268482850161103e565b6101008301525092915050565b6000610120828403121561114a57611149610e76565b5b600061115884828501611053565b91505092915050565b600061116c82610c83565b91507fffffffffffffffffffffffffffffffffffffffffffffffffffffffffffffffff820361119e5761119d610eef565b5b600182019050919050565b60006111b482610c83565b91506111bf83610c83565b92508282039050818111156111d7576111d6610eef565b5b92915050565b7f4e487b7100000000000000000000000000000000000000000000000000000000600052603160045260246000fd5b600081519050919050565b600081905092915050565b60005b83811015611240578082015181840152602081019050611225565b60008484015250505050565b60006112578261120c565b6112618185611217565b9350611271818560208601611222565b80840191505092915050565b6000611289828461124c565b91508190509291505056fea26469706673582212204a560f08b1f21fa5c112800ee396036242eee824613b5fa7223df9cbb7cc06ce64736f6c63430008110033",
  "devdoc": {
    "kind": "dev",
    "methods": {},
    "version": 1
  },
  "userdoc": {
    "kind": "user",
    "methods": {},
    "version": 1
  },
  "storageLayout": {
    "storage": [
      {
        "astId": 3881,
        "contract": "contracts/MarketplaceTracker.sol:MarketplaceTracker",
        "label": "s_collateralizedRentHolderSCs",
        "offset": 0,
        "slot": "0",
        "type": "t_array(t_address)dyn_storage"
      },
      {
        "astId": 3884,
        "contract": "contracts/MarketplaceTracker.sol:MarketplaceTracker",
        "label": "s_nonCollateralizedRentHolderSCs",
        "offset": 0,
        "slot": "1",
        "type": "t_array(t_address)dyn_storage"
      }
    ],
    "types": {
      "t_address": {
        "encoding": "inplace",
        "label": "address",
        "numberOfBytes": "20"
      },
      "t_array(t_address)dyn_storage": {
        "base": "t_address",
        "encoding": "dynamic_array",
        "label": "address[]",
        "numberOfBytes": "32"
      }
    }
  }
}