{
  "_format": "hh-sol-artifact-1",
  "contractName": "CollateralizedRentHolder",
  "sourceName": "contracts/CollateralizedRentHolder.sol",
  "abi": [
    {
      "inputs": [
        {
          "internalType": "address",
          "name": "_nftAddress",
          "type": "address"
        },
        {
          "internalType": "uint256",
          "name": "_nftID",
          "type": "uint256"
        },
        {
          "internalType": "uint256",
          "name": "_ratePerHour",
          "type": "uint256"
        },
        {
          "internalType": "uint256",
          "name": "_collateralValue",
          "type": "uint256"
        }
      ],
      "stateMutability": "nonpayable",
      "type": "constructor"
    },
    {
      "inputs": [
        {
          "internalType": "uint256",
          "name": "_newRatePerHour",
          "type": "uint256"
        },
        {
          "internalType": "uint256",
          "name": "_newCollateralValue",
          "type": "uint256"
        }
      ],
      "name": "changeRentalValues",
      "outputs": [],
      "stateMutability": "nonpayable",
      "type": "function"
    },
    {
      "inputs": [],
      "name": "claimCollateral",
      "outputs": [],
      "stateMutability": "nonpayable",
      "type": "function"
    },
    {
      "inputs": [],
      "name": "collateralValue",
      "outputs": [
        {
          "internalType": "uint256",
          "name": "",
          "type": "uint256"
        }
      ],
      "stateMutability": "view",
      "type": "function"
    },
    {
      "inputs": [],
      "name": "currRentEndDate",
      "outputs": [
        {
          "internalType": "uint256",
          "name": "",
          "type": "uint256"
        }
      ],
      "stateMutability": "view",
      "type": "function"
    },
    {
      "inputs": [],
      "name": "currRentPeriod",
      "outputs": [
        {
          "internalType": "uint8",
          "name": "",
          "type": "uint8"
        }
      ],
      "stateMutability": "view",
      "type": "function"
    },
    {
      "inputs": [],
      "name": "currRenter",
      "outputs": [
        {
          "internalType": "address",
          "name": "",
          "type": "address"
        }
      ],
      "stateMutability": "view",
      "type": "function"
    },
    {
      "inputs": [],
      "name": "feeCollector",
      "outputs": [
        {
          "internalType": "address",
          "name": "",
          "type": "address"
        }
      ],
      "stateMutability": "view",
      "type": "function"
    },
    {
      "inputs": [],
      "name": "feePercentage",
      "outputs": [
        {
          "internalType": "uint256",
          "name": "",
          "type": "uint256"
        }
      ],
      "stateMutability": "view",
      "type": "function"
    },
    {
      "inputs": [],
      "name": "getCurrentNFTOwner",
      "outputs": [
        {
          "internalType": "address",
          "name": "",
          "type": "address"
        }
      ],
      "stateMutability": "view",
      "type": "function"
    },
    {
      "inputs": [],
      "name": "nftAddress",
      "outputs": [
        {
          "internalType": "address",
          "name": "",
          "type": "address"
        }
      ],
      "stateMutability": "view",
      "type": "function"
    },
    {
      "inputs": [],
      "name": "nftId",
      "outputs": [
        {
          "internalType": "uint256",
          "name": "",
          "type": "uint256"
        }
      ],
      "stateMutability": "view",
      "type": "function"
    },
    {
      "inputs": [],
      "name": "nftOwner",
      "outputs": [
        {
          "internalType": "address",
          "name": "",
          "type": "address"
        }
      ],
      "stateMutability": "view",
      "type": "function"
    },
    {
      "inputs": [],
      "name": "publishNFT",
      "outputs": [],
      "stateMutability": "nonpayable",
      "type": "function"
    },
    {
      "inputs": [],
      "name": "ratePerHour",
      "outputs": [
        {
          "internalType": "uint256",
          "name": "",
          "type": "uint256"
        }
      ],
      "stateMutability": "view",
      "type": "function"
    },
    {
      "inputs": [
        {
          "internalType": "uint8",
          "name": "_hours",
          "type": "uint8"
        }
      ],
      "name": "rent",
      "outputs": [],
      "stateMutability": "payable",
      "type": "function"
    },
    {
      "inputs": [],
      "name": "returnNFT",
      "outputs": [],
      "stateMutability": "nonpayable",
      "type": "function"
    },
    {
      "inputs": [],
      "name": "returnRentInfo",
      "outputs": [
        {
          "components": [
            {
              "internalType": "address",
              "name": "rentHolderSC",
              "type": "address"
            },
            {
              "internalType": "address",
              "name": "nftOwner",
              "type": "address"
            },
            {
              "internalType": "address",
              "name": "nftAddress",
              "type": "address"
            },
            {
              "internalType": "uint256",
              "name": "nftId",
              "type": "uint256"
            },
            {
              "internalType": "uint256",
              "name": "ratePerHour",
              "type": "uint256"
            },
            {
              "internalType": "uint256",
              "name": "collateralValue",
              "type": "uint256"
            },
            {
              "internalType": "address",
              "name": "currRenter",
              "type": "address"
            },
            {
              "internalType": "uint256",
              "name": "currRentEndDate",
              "type": "uint256"
            },
            {
              "internalType": "uint8",
              "name": "currRentPeriod",
              "type": "uint8"
            }
          ],
          "internalType": "struct CollateralizedRentHolder.relevantRentInfo",
          "name": "",
          "type": "tuple"
        }
      ],
      "stateMutability": "view",
      "type": "function"
    },
    {
      "inputs": [],
      "name": "withdrawNFT",
      "outputs": [],
      "stateMutability": "nonpayable",
      "type": "function"
    },
    {
      "stateMutability": "payable",
      "type": "receive"
    }
  ],
  "bytecode": "0x608060405273e2c36ed0dfb0b0abfdb92d500adcf4ffe81523b5600760016101000a81548173ffffffffffffffffffffffffffffffffffffffff021916908373ffffffffffffffffffffffffffffffffffffffff16021790555060016008557390dd4730a104e15c71ed9b82eb025af801348860600960006101000a81548173ffffffffffffffffffffffffffffffffffffffff021916908373ffffffffffffffffffffffffffffffffffffffff160217905550348015620000c057600080fd5b5060405162002402380380620024028339818101604052810190620000e69190620002b7565b600082116200012c576040517f08c379a00000000000000000000000000000000000000000000000000000000081526004016200012390620003b0565b60405180910390fd5b6000811162000172576040517f08c379a0000000000000000000000000000000000000000000000000000000008152600401620001699062000448565b60405180910390fd5b336000806101000a81548173ffffffffffffffffffffffffffffffffffffffff021916908373ffffffffffffffffffffffffffffffffffffffff16021790555083600160006101000a81548173ffffffffffffffffffffffffffffffffffffffff021916908373ffffffffffffffffffffffffffffffffffffffff160217905550826002819055508160038190555080600481905550505050506200046a565b600080fd5b600073ffffffffffffffffffffffffffffffffffffffff82169050919050565b6000620002448262000217565b9050919050565b620002568162000237565b81146200026257600080fd5b50565b60008151905062000276816200024b565b92915050565b6000819050919050565b62000291816200027c565b81146200029d57600080fd5b50565b600081519050620002b18162000286565b92915050565b60008060008060808587031215620002d457620002d362000212565b5b6000620002e48782880162000265565b9450506020620002f787828801620002a0565b93505060406200030a87828801620002a0565b92505060606200031d87828801620002a0565b91505092959194509250565b600082825260208201905092915050565b7f54686520726174652070657220686f7572206d7573742062652067726561746560008201527f72207468616e2030000000000000000000000000000000000000000000000000602082015250565b60006200039860288362000329565b9150620003a5826200033a565b604082019050919050565b60006020820190508181036000830152620003cb8162000389565b9050919050565b7f54686520636f6c6c61746572616c2076616c7565206d7573742062652067726560008201527f61746572207468616e2030000000000000000000000000000000000000000000602082015250565b600062000430602b8362000329565b91506200043d82620003d2565b604082019050919050565b60006020820190508181036000830152620004638162000421565b9050919050565b611f88806200047a6000396000f3fe60806040526004361061010d5760003560e01c8063918d965b11610095578063c6bc518211610064578063c6bc51821461030f578063c6d62d901461033a578063d399a5cf14610351578063d9f4986914610368578063ea3a2aec1461039357610114565b8063918d965b1461027257806392dc47a51461029d578063a001ecdd146102b9578063c415b95c146102e457610114565b80634c39a749116100dc5780634c39a749146101c35780635bf8633a146101ee5780635e38c954146102195780636f0b0c1c146102305780637633c62b1461024757610114565b80630f1c31951461011957806324f1e133146101445780632e3679c01461016f578063315330291461019857610114565b3661011457005b600080fd5b34801561012557600080fd5b5061012e6103be565b60405161013b9190611547565b60405180910390f35b34801561015057600080fd5b506101596103c4565b60405161016691906115a3565b60405180910390f35b34801561017b57600080fd5b50610196600480360381019061019191906115ef565b610474565b005b3480156101a457600080fd5b506101ad610514565b6040516101ba9190611547565b60405180910390f35b3480156101cf57600080fd5b506101d861051a565b6040516101e591906115a3565b60405180910390f35b3480156101fa57600080fd5b5061020361053e565b60405161021091906115a3565b60405180910390f35b34801561022557600080fd5b5061022e610564565b005b34801561023c57600080fd5b50610245610824565b005b34801561025357600080fd5b5061025c610b45565b60405161026991906115a3565b60405180910390f35b34801561027e57600080fd5b50610287610b6b565b604051610294919061164b565b60405180910390f35b6102b760048036038101906102b29190611692565b610b7e565b005b3480156102c557600080fd5b506102ce610e48565b6040516102db9190611547565b60405180910390f35b3480156102f057600080fd5b506102f9610e4e565b60405161030691906115a3565b60405180910390f35b34801561031b57600080fd5b50610324610e74565b6040516103319190611547565b60405180910390f35b34801561034657600080fd5b5061034f610e7a565b005b34801561035d57600080fd5b506103666110bb565b005b34801561037457600080fd5b5061037d6111fe565b60405161038a9190611547565b60405180910390f35b34801561039f57600080fd5b506103a8611204565b6040516103b591906117a3565b60405180910390f35b60065481565b600080600160009054906101000a900473ffffffffffffffffffffffffffffffffffffffff16905060008173ffffffffffffffffffffffffffffffffffffffff16636352211e6002546040518263ffffffff1660e01b81526004016104299190611547565b602060405180830381865afa158015610446573d6000803e3d6000fd5b505050506040513d601f19601f8201168201806040525081019061046a91906117eb565b9050809250505090565b60008054906101000a900473ffffffffffffffffffffffffffffffffffffffff1673ffffffffffffffffffffffffffffffffffffffff163373ffffffffffffffffffffffffffffffffffffffff1614610502576040517f08c379a00000000000000000000000000000000000000000000000000000000081526004016104f99061189b565b60405180910390fd5b81600381905550806004819055505050565b60045481565b60008054906101000a900473ffffffffffffffffffffffffffffffffffffffff1681565b600160009054906101000a900473ffffffffffffffffffffffffffffffffffffffff1681565b60008054906101000a900473ffffffffffffffffffffffffffffffffffffffff1673ffffffffffffffffffffffffffffffffffffffff163373ffffffffffffffffffffffffffffffffffffffff16146105f2576040517f08c379a00000000000000000000000000000000000000000000000000000000081526004016105e99061189b565b60405180910390fd5b6000600160009054906101000a900473ffffffffffffffffffffffffffffffffffffffff16905060008173ffffffffffffffffffffffffffffffffffffffff16636352211e6002546040518263ffffffff1660e01b81526004016106569190611547565b602060405180830381865afa158015610673573d6000803e3d6000fd5b505050506040513d601f19601f8201168201806040525081019061069791906117eb565b90503073ffffffffffffffffffffffffffffffffffffffff168173ffffffffffffffffffffffffffffffffffffffff1614610707576040517f08c379a00000000000000000000000000000000000000000000000000000000081526004016106fe9061192d565b60405180910390fd5b8173ffffffffffffffffffffffffffffffffffffffff166323b872dd3060008054906101000a900473ffffffffffffffffffffffffffffffffffffffff166002546040518463ffffffff1660e01b81526004016107669392919061194d565b600060405180830381600087803b15801561078057600080fd5b505af1158015610794573d6000803e3d6000fd5b505050506000600960009054906101000a900473ffffffffffffffffffffffffffffffffffffffff1690508073ffffffffffffffffffffffffffffffffffffffff16635da9a3906040518163ffffffff1660e01b8152600401600060405180830381600087803b15801561080757600080fd5b505af115801561081b573d6000803e3d6000fd5b50505050505050565b60008054906101000a900473ffffffffffffffffffffffffffffffffffffffff1673ffffffffffffffffffffffffffffffffffffffff163373ffffffffffffffffffffffffffffffffffffffff16146108b2576040517f08c379a00000000000000000000000000000000000000000000000000000000081526004016108a99061189b565b60405180910390fd5b60065442116108f6576040517f08c379a00000000000000000000000000000000000000000000000000000000081526004016108ed906119f6565b60405180910390fd5b6000600160009054906101000a900473ffffffffffffffffffffffffffffffffffffffff16905060008173ffffffffffffffffffffffffffffffffffffffff16636352211e6002546040518263ffffffff1660e01b815260040161095a9190611547565b602060405180830381865afa158015610977573d6000803e3d6000fd5b505050506040513d601f19601f8201168201806040525081019061099b91906117eb565b90503073ffffffffffffffffffffffffffffffffffffffff168173ffffffffffffffffffffffffffffffffffffffff1603610a0b576040517f08c379a0000000000000000000000000000000000000000000000000000000008152600401610a0290611a88565b60405180910390fd5b600454471015610a50576040517f08c379a0000000000000000000000000000000000000000000000000000000008152600401610a4790611b1a565b60405180910390fd5b60008054906101000a900473ffffffffffffffffffffffffffffffffffffffff1673ffffffffffffffffffffffffffffffffffffffff166108fc6004549081150290604051600060405180830381858888f19350505050158015610ab8573d6000803e3d6000fd5b506000600960009054906101000a900473ffffffffffffffffffffffffffffffffffffffff1690508073ffffffffffffffffffffffffffffffffffffffff16635da9a3906040518163ffffffff1660e01b8152600401600060405180830381600087803b158015610b2857600080fd5b505af1158015610b3c573d6000803e3d6000fd5b50505050505050565b600560009054906101000a900473ffffffffffffffffffffffffffffffffffffffff1681565b600760009054906101000a900460ff1681565b6004548160ff16600354610b929190611b69565b610b9c9190611bab565b341015610bde576040517f08c379a0000000000000000000000000000000000000000000000000000000008152600401610bd590611c77565b60405180910390fd5b6006544211610c22576040517f08c379a0000000000000000000000000000000000000000000000000000000008152600401610c1990611d09565b60405180910390fd5b6000600160009054906101000a900473ffffffffffffffffffffffffffffffffffffffff16905060008173ffffffffffffffffffffffffffffffffffffffff16636352211e6002546040518263ffffffff1660e01b8152600401610c869190611547565b602060405180830381865afa158015610ca3573d6000803e3d6000fd5b505050506040513d601f19601f82011682018060405250810190610cc791906117eb565b90503073ffffffffffffffffffffffffffffffffffffffff168173ffffffffffffffffffffffffffffffffffffffff1614610d37576040517f08c379a0000000000000000000000000000000000000000000000000000000008152600401610d2e9061192d565b60405180910390fd5b610d508360ff16600354610d4b9190611b69565b611327565b33600560006101000a81548173ffffffffffffffffffffffffffffffffffffffff021916908373ffffffffffffffffffffffffffffffffffffffff160217905550610e108360ff16610da29190611d37565b61ffff1642610db19190611bab565b60068190555082600760006101000a81548160ff021916908360ff1602179055508173ffffffffffffffffffffffffffffffffffffffff166323b872dd30336002546040518463ffffffff1660e01b8152600401610e119392919061194d565b600060405180830381600087803b158015610e2b57600080fd5b505af1158015610e3f573d6000803e3d6000fd5b50505050505050565b60085481565b600760019054906101000a900473ffffffffffffffffffffffffffffffffffffffff1681565b60025481565b600560009054906101000a900473ffffffffffffffffffffffffffffffffffffffff1673ffffffffffffffffffffffffffffffffffffffff163373ffffffffffffffffffffffffffffffffffffffff1614610f0a576040517f08c379a0000000000000000000000000000000000000000000000000000000008152600401610f0190611de6565b60405180910390fd5b600454471015610f4f576040517f08c379a0000000000000000000000000000000000000000000000000000000008152600401610f4690611b1a565b60405180910390fd5b6000600160009054906101000a900473ffffffffffffffffffffffffffffffffffffffff1690508073ffffffffffffffffffffffffffffffffffffffff166323b872dd33306002546040518463ffffffff1660e01b8152600401610fb59392919061194d565b600060405180830381600087803b158015610fcf57600080fd5b505af1158015610fe3573d6000803e3d6000fd5b50505050600560009054906101000a900473ffffffffffffffffffffffffffffffffffffffff1673ffffffffffffffffffffffffffffffffffffffff166108fc6004549081150290604051600060405180830381858888f19350505050158015611051573d6000803e3d6000fd5b506000600560006101000a81548173ffffffffffffffffffffffffffffffffffffffff021916908373ffffffffffffffffffffffffffffffffffffffff16021790555060006006819055506000600760006101000a81548160ff021916908360ff16021790555050565b6000600160009054906101000a900473ffffffffffffffffffffffffffffffffffffffff1690508073ffffffffffffffffffffffffffffffffffffffff166323b872dd60008054906101000a900473ffffffffffffffffffffffffffffffffffffffff16306002546040518463ffffffff1660e01b81526004016111419392919061194d565b600060405180830381600087803b15801561115b57600080fd5b505af115801561116f573d6000803e3d6000fd5b505050506000600960009054906101000a900473ffffffffffffffffffffffffffffffffffffffff1690508073ffffffffffffffffffffffffffffffffffffffff1663340958dc6040518163ffffffff1660e01b8152600401600060405180830381600087803b1580156111e257600080fd5b505af11580156111f6573d6000803e3d6000fd5b505050505050565b60035481565b61120c611487565b6040518061012001604052803073ffffffffffffffffffffffffffffffffffffffff16815260200160008054906101000a900473ffffffffffffffffffffffffffffffffffffffff1673ffffffffffffffffffffffffffffffffffffffff168152602001600160009054906101000a900473ffffffffffffffffffffffffffffffffffffffff1673ffffffffffffffffffffffffffffffffffffffff168152602001600254815260200160035481526020016004548152602001600560009054906101000a900473ffffffffffffffffffffffffffffffffffffffff1673ffffffffffffffffffffffffffffffffffffffff1681526020016006548152602001600760009054906101000a900460ff1660ff16815250905090565b8047101561136a576040517f08c379a000000000000000000000000000000000000000000000000000000000815260040161136190611e9e565b60405180910390fd5b61137381611402565b60008054906101000a900473ffffffffffffffffffffffffffffffffffffffff1673ffffffffffffffffffffffffffffffffffffffff166108fc606460085460646113be9190611ebe565b846113c99190611b69565b6113d39190611f21565b9081150290604051600060405180830381858888f193505050501580156113fe573d6000803e3d6000fd5b5050565b600760019054906101000a900473ffffffffffffffffffffffffffffffffffffffff1673ffffffffffffffffffffffffffffffffffffffff166108fc60646008548461144e9190611b69565b6114589190611f21565b9081150290604051600060405180830381858888f19350505050158015611483573d6000803e3d6000fd5b5050565b604051806101200160405280600073ffffffffffffffffffffffffffffffffffffffff168152602001600073ffffffffffffffffffffffffffffffffffffffff168152602001600073ffffffffffffffffffffffffffffffffffffffff168152602001600081526020016000815260200160008152602001600073ffffffffffffffffffffffffffffffffffffffff16815260200160008152602001600060ff1681525090565b6000819050919050565b6115418161152e565b82525050565b600060208201905061155c6000830184611538565b92915050565b600073ffffffffffffffffffffffffffffffffffffffff82169050919050565b600061158d82611562565b9050919050565b61159d81611582565b82525050565b60006020820190506115b86000830184611594565b92915050565b600080fd5b6115cc8161152e565b81146115d757600080fd5b50565b6000813590506115e9816115c3565b92915050565b60008060408385031215611606576116056115be565b5b6000611614858286016115da565b9250506020611625858286016115da565b9150509250929050565b600060ff82169050919050565b6116458161162f565b82525050565b6000602082019050611660600083018461163c565b92915050565b61166f8161162f565b811461167a57600080fd5b50565b60008135905061168c81611666565b92915050565b6000602082840312156116a8576116a76115be565b5b60006116b68482850161167d565b91505092915050565b6116c881611582565b82525050565b6116d78161152e565b82525050565b6116e68161162f565b82525050565b6101208201600082015161170360008501826116bf565b50602082015161171660208501826116bf565b50604082015161172960408501826116bf565b50606082015161173c60608501826116ce565b50608082015161174f60808501826116ce565b5060a082015161176260a08501826116ce565b5060c082015161177560c08501826116bf565b5060e082015161178860e08501826116ce565b5061010082015161179d6101008501826116dd565b50505050565b6000610120820190506117b960008301846116ec565b92915050565b6117c881611582565b81146117d357600080fd5b50565b6000815190506117e5816117bf565b92915050565b600060208284031215611801576118006115be565b5b600061180f848285016117d6565b91505092915050565b600082825260208201905092915050565b7f4f6e6c7920746865204e4654206f776e65722063616e2063616c6c207468697360008201527f2066756e6374696f6e0000000000000000000000000000000000000000000000602082015250565b6000611885602983611818565b915061189082611829565b604082019050919050565b600060208201905081810360008301526118b481611878565b9050919050565b7f546865204e4654206973206e6f742063757272656e746c79206f776e6564206260008201527f792074686520636f6e7472616374000000000000000000000000000000000000602082015250565b6000611917602e83611818565b9150611922826118bb565b604082019050919050565b600060208201905081810360008301526119468161190a565b9050919050565b60006060820190506119626000830186611594565b61196f6020830185611594565b61197c6040830184611538565b949350505050565b7f5468652072656e74616c20706572696f6420686173206e6f7420656e6465642060008201527f7965740000000000000000000000000000000000000000000000000000000000602082015250565b60006119e0602383611818565b91506119eb82611984565b604082019050919050565b60006020820190508181036000830152611a0f816119d3565b9050919050565b7f546865204e46542069732063757272656e746c79206f776e656420627920746860008201527f6520636f6e747261637400000000000000000000000000000000000000000000602082015250565b6000611a72602a83611818565b9150611a7d82611a16565b604082019050919050565b60006020820190508181036000830152611aa181611a65565b9050919050565b7f546865206f776e65722068617320616c72656164792077697468647261776e2060008201527f74686520636f6c6c61746572616c000000000000000000000000000000000000602082015250565b6000611b04602e83611818565b9150611b0f82611aa8565b604082019050919050565b60006020820190508181036000830152611b3381611af7565b9050919050565b7f4e487b7100000000000000000000000000000000000000000000000000000000600052601160045260246000fd5b6000611b748261152e565b9150611b7f8361152e565b9250828202611b8d8161152e565b91508282048414831517611ba457611ba3611b3a565b5b5092915050565b6000611bb68261152e565b9150611bc18361152e565b9250828201905080821115611bd957611bd8611b3a565b5b92915050565b7f596f75206d757374207061792074686520686f75726c792074696d657320746860008201527f65206e756d626572206f6620686f75727320796f752077616e7420746f20726560208201527f6e7420666f7220616e642074686520636f6c6c61746572616c2076616c756500604082015250565b6000611c61605f83611818565b9150611c6c82611bdf565b606082019050919050565b60006020820190508181036000830152611c9081611c54565b9050919050565b7f5468697320636f6e74726163742069732063757272656e746c792072656e746560008201527f6400000000000000000000000000000000000000000000000000000000000000602082015250565b6000611cf3602183611818565b9150611cfe82611c97565b604082019050919050565b60006020820190508181036000830152611d2281611ce6565b9050919050565b600061ffff82169050919050565b6000611d4282611d29565b9150611d4d83611d29565b9250828202611d5b81611d29565b9150808214611d6d57611d6c611b3a565b5b5092915050565b7f4f6e6c79207468652063757272656e742072656e7465722063616e2063616c6c60008201527f20746869732066756e6374696f6e000000000000000000000000000000000000602082015250565b6000611dd0602e83611818565b9150611ddb82611d74565b604082019050919050565b60006020820190508181036000830152611dff81611dc3565b9050919050565b7f5468652076616c7565206265696e672077697468647261776e206d757374206260008201527f6520657175616c206f72206c657373207468616e2074686520636f6e7472616360208201527f742062616c616e63650000000000000000000000000000000000000000000000604082015250565b6000611e88604983611818565b9150611e9382611e06565b606082019050919050565b60006020820190508181036000830152611eb781611e7b565b9050919050565b6000611ec98261152e565b9150611ed48361152e565b9250828203905081811115611eec57611eeb611b3a565b5b92915050565b7f4e487b7100000000000000000000000000000000000000000000000000000000600052601260045260246000fd5b6000611f2c8261152e565b9150611f378361152e565b925082611f4757611f46611ef2565b5b82820490509291505056fea2646970667358221220be76df543ac4313a738b87a57b55d15eabad693b4b4fbe464e9f9bf171098cf464736f6c63430008120033",
  "linkReferences": {},
  "deployedLinkReferences": {}
}