{
  "_format": "hh-sol-artifact-1",
  "contractName": "NonCollateralizedRentHolder",
  "sourceName": "contracts/NonCollateralizedRentHolder.sol",
  "abi": [
    {
      "inputs": [
        {
          "internalType": "address",
          "name": "_nftAddress",
          "type": "address"
        },
        {
          "internalType": "uint256",
          "name": "_nftID",
          "type": "uint256"
        },
        {
          "internalType": "uint256",
          "name": "_ratePerHour",
          "type": "uint256"
        }
      ],
      "stateMutability": "nonpayable",
      "type": "constructor"
    },
    {
      "inputs": [
        {
          "internalType": "uint256",
          "name": "_newRatePerHour",
          "type": "uint256"
        }
      ],
      "name": "changeRentalValues",
      "outputs": [],
      "stateMutability": "nonpayable",
      "type": "function"
    },
    {
      "inputs": [],
      "name": "currRentEndDate",
      "outputs": [
        {
          "internalType": "uint256",
          "name": "",
          "type": "uint256"
        }
      ],
      "stateMutability": "view",
      "type": "function"
    },
    {
      "inputs": [],
      "name": "currRentPeriod",
      "outputs": [
        {
          "internalType": "uint8",
          "name": "",
          "type": "uint8"
        }
      ],
      "stateMutability": "view",
      "type": "function"
    },
    {
      "inputs": [],
      "name": "currRenter",
      "outputs": [
        {
          "internalType": "address",
          "name": "",
          "type": "address"
        }
      ],
      "stateMutability": "view",
      "type": "function"
    },
    {
      "inputs": [],
      "name": "feeCollector",
      "outputs": [
        {
          "internalType": "address",
          "name": "",
          "type": "address"
        }
      ],
      "stateMutability": "view",
      "type": "function"
    },
    {
      "inputs": [],
      "name": "feePercentage",
      "outputs": [
        {
          "internalType": "uint256",
          "name": "",
          "type": "uint256"
        }
      ],
      "stateMutability": "view",
      "type": "function"
    },
    {
      "inputs": [],
      "name": "nftAddress",
      "outputs": [
        {
          "internalType": "address",
          "name": "",
          "type": "address"
        }
      ],
      "stateMutability": "view",
      "type": "function"
    },
    {
      "inputs": [],
      "name": "nftId",
      "outputs": [
        {
          "internalType": "uint256",
          "name": "",
          "type": "uint256"
        }
      ],
      "stateMutability": "view",
      "type": "function"
    },
    {
      "inputs": [],
      "name": "nftOwner",
      "outputs": [
        {
          "internalType": "address",
          "name": "",
          "type": "address"
        }
      ],
      "stateMutability": "view",
      "type": "function"
    },
    {
      "inputs": [],
      "name": "publishNFT",
      "outputs": [],
      "stateMutability": "nonpayable",
      "type": "function"
    },
    {
      "inputs": [],
      "name": "ratePerHour",
      "outputs": [
        {
          "internalType": "uint256",
          "name": "",
          "type": "uint256"
        }
      ],
      "stateMutability": "view",
      "type": "function"
    },
    {
      "inputs": [
        {
          "internalType": "uint8",
          "name": "_hours",
          "type": "uint8"
        }
      ],
      "name": "rent",
      "outputs": [],
      "stateMutability": "payable",
      "type": "function"
    },
    {
      "inputs": [],
      "name": "returnCurrRenterInfo",
      "outputs": [
        {
          "components": [
            {
              "internalType": "address",
              "name": "currRenter",
              "type": "address"
            },
            {
              "internalType": "uint256",
              "name": "currRentEndDate",
              "type": "uint256"
            }
          ],
          "internalType": "struct NonCollateralizedRentHolder.currRenterInfo",
          "name": "",
          "type": "tuple"
        }
      ],
      "stateMutability": "view",
      "type": "function"
    },
    {
      "inputs": [],
      "name": "returnRentInfo",
      "outputs": [
        {
          "components": [
            {
              "internalType": "address",
              "name": "rentHolderSC",
              "type": "address"
            },
            {
              "internalType": "address",
              "name": "nftOwner",
              "type": "address"
            },
            {
              "internalType": "address",
              "name": "nftAddress",
              "type": "address"
            },
            {
              "internalType": "uint256",
              "name": "nftId",
              "type": "uint256"
            },
            {
              "internalType": "uint256",
              "name": "ratePerHour",
              "type": "uint256"
            },
            {
              "internalType": "uint256",
              "name": "collateralValue",
              "type": "uint256"
            },
            {
              "internalType": "address",
              "name": "currRenter",
              "type": "address"
            },
            {
              "internalType": "uint256",
              "name": "currRentEndDate",
              "type": "uint256"
            },
            {
              "internalType": "uint8",
              "name": "currRentPeriod",
              "type": "uint8"
            }
          ],
          "internalType": "struct NonCollateralizedRentHolder.relevantRentInfo",
          "name": "",
          "type": "tuple"
        }
      ],
      "stateMutability": "view",
      "type": "function"
    },
    {
      "inputs": [],
      "name": "withdrawNFT",
      "outputs": [],
      "stateMutability": "nonpayable",
      "type": "function"
    },
    {
      "stateMutability": "payable",
      "type": "receive"
    }
  ],
  "bytecode": "0x608060405273e2c36ed0dfb0b0abfdb92d500adcf4ffe81523b5600660016101000a81548173ffffffffffffffffffffffffffffffffffffffff021916908373ffffffffffffffffffffffffffffffffffffffff16021790555060016007557390dd4730a104e15c71ed9b82eb025af801348860600860006101000a81548173ffffffffffffffffffffffffffffffffffffffff021916908373ffffffffffffffffffffffffffffffffffffffff160217905550738c33c4aa7b3848a677b4544c6a589be79a67268e600960006101000a81548173ffffffffffffffffffffffffffffffffffffffff021916908373ffffffffffffffffffffffffffffffffffffffff1602179055503480156200011557600080fd5b5060405162001b5a38038062001b5a83398181016040528101906200013b9190620002be565b6000811162000181576040517f08c379a00000000000000000000000000000000000000000000000000000000081526004016200017890620003a1565b60405180910390fd5b336000806101000a81548173ffffffffffffffffffffffffffffffffffffffff021916908373ffffffffffffffffffffffffffffffffffffffff16021790555082600160006101000a81548173ffffffffffffffffffffffffffffffffffffffff021916908373ffffffffffffffffffffffffffffffffffffffff1602179055508160028190555080600381905550505050620003c3565b600080fd5b600073ffffffffffffffffffffffffffffffffffffffff82169050919050565b60006200024b826200021e565b9050919050565b6200025d816200023e565b81146200026957600080fd5b50565b6000815190506200027d8162000252565b92915050565b6000819050919050565b620002988162000283565b8114620002a457600080fd5b50565b600081519050620002b8816200028d565b92915050565b600080600060608486031215620002da57620002d962000219565b5b6000620002ea868287016200026c565b9350506020620002fd86828701620002a7565b92505060406200031086828701620002a7565b9150509250925092565b600082825260208201905092915050565b7f54686520726174652070657220686f7572206d7573742062652067726561746560008201527f72207468616e2030000000000000000000000000000000000000000000000000602082015250565b6000620003896028836200031a565b915062000396826200032b565b604082019050919050565b60006020820190508181036000830152620003bc816200037a565b9050919050565b61178780620003d36000396000f3fe6080604052600436106100ec5760003560e01c806392dc47a51161008a578063c6bc518211610059578063c6bc5182146102ac578063d399a5cf146102d7578063d9f49869146102ee578063ea3a2aec14610319576100f3565b806392dc47a51461020f578063a001ecdd1461022b578063a58da2dd14610256578063c415b95c14610281576100f3565b80635bf8633a116100c65780635bf8633a146101775780635e38c954146101a25780637633c62b146101b9578063918d965b146101e4576100f3565b80630f1c3195146100f8578063321e14ea146101235780634c39a7491461014c576100f3565b366100f357005b600080fd5b34801561010457600080fd5b5061010d610344565b60405161011a9190610e3b565b60405180910390f35b34801561012f57600080fd5b5061014a60048036038101906101459190610e96565b61034a565b005b34801561015857600080fd5b506101616103e2565b60405161016e9190610f04565b60405180910390f35b34801561018357600080fd5b5061018c610406565b6040516101999190610f04565b60405180910390f35b3480156101ae57600080fd5b506101b761042c565b005b3480156101c557600080fd5b506101ce610641565b6040516101db9190610f04565b60405180910390f35b3480156101f057600080fd5b506101f9610667565b6040516102069190610f3b565b60405180910390f35b61022960048036038101906102249190610f82565b61067a565b005b34801561023757600080fd5b506102406108f2565b60405161024d9190610e3b565b60405180910390f35b34801561026257600080fd5b5061026b6108f8565b6040516102789190610ffc565b60405180910390f35b34801561028d57600080fd5b50610296610954565b6040516102a39190610f04565b60405180910390f35b3480156102b857600080fd5b506102c161097a565b6040516102ce9190610e3b565b60405180910390f35b3480156102e357600080fd5b506102ec610980565b005b3480156102fa57600080fd5b50610303610ac3565b6040516103109190610e3b565b60405180910390f35b34801561032557600080fd5b5061032e610ac9565b60405161033b91906110dd565b60405180910390f35b60055481565b60008054906101000a900473ffffffffffffffffffffffffffffffffffffffff1673ffffffffffffffffffffffffffffffffffffffff163373ffffffffffffffffffffffffffffffffffffffff16146103d8576040517f08c379a00000000000000000000000000000000000000000000000000000000081526004016103cf9061117c565b60405180910390fd5b8060038190555050565b60008054906101000a900473ffffffffffffffffffffffffffffffffffffffff1681565b600160009054906101000a900473ffffffffffffffffffffffffffffffffffffffff1681565b60008054906101000a900473ffffffffffffffffffffffffffffffffffffffff1673ffffffffffffffffffffffffffffffffffffffff163373ffffffffffffffffffffffffffffffffffffffff16146104ba576040517f08c379a00000000000000000000000000000000000000000000000000000000081526004016104b19061117c565b60405180910390fd5b60055442116104fe576040517f08c379a00000000000000000000000000000000000000000000000000000000081526004016104f5906111e8565b60405180910390fd5b6000600160009054906101000a900473ffffffffffffffffffffffffffffffffffffffff1690508073ffffffffffffffffffffffffffffffffffffffff166323b872dd3060008054906101000a900473ffffffffffffffffffffffffffffffffffffffff166002546040518463ffffffff1660e01b815260040161058493929190611208565b600060405180830381600087803b15801561059e57600080fd5b505af11580156105b2573d6000803e3d6000fd5b505050506000600860009054906101000a900473ffffffffffffffffffffffffffffffffffffffff1690508073ffffffffffffffffffffffffffffffffffffffff1663d08c6cca6040518163ffffffff1660e01b8152600401600060405180830381600087803b15801561062557600080fd5b505af1158015610639573d6000803e3d6000fd5b505050505050565b600460009054906101000a900473ffffffffffffffffffffffffffffffffffffffff1681565b600660009054906101000a900460ff1681565b8060ff1660035461068b919061126e565b3410156106cd576040517f08c379a00000000000000000000000000000000000000000000000000000000081526004016106c490611348565b60405180910390fd5b6005544211610711576040517f08c379a0000000000000000000000000000000000000000000000000000000008152600401610708906111e8565b60405180910390fd5b61072a8160ff16600354610725919061126e565b610beb565b33600460006101000a81548173ffffffffffffffffffffffffffffffffffffffff021916908373ffffffffffffffffffffffffffffffffffffffff160217905550610e108160ff1661077c9190611376565b61ffff164261078b91906113b3565b60058190555080600660006101000a81548160ff021916908360ff1602179055506000600160009054906101000a900473ffffffffffffffffffffffffffffffffffffffff16905060008173ffffffffffffffffffffffffffffffffffffffff1663c87b56dd6002546040518263ffffffff1660e01b81526004016108109190610e3b565b600060405180830381865afa15801561082d573d6000803e3d6000fd5b505050506040513d6000823e3d601f19601f820116820180604052508101906108569190611548565b90506000600960009054906101000a900473ffffffffffffffffffffffffffffffffffffffff1690508073ffffffffffffffffffffffffffffffffffffffff1663d204c45e33846040518363ffffffff1660e01b81526004016108ba9291906115d5565b600060405180830381600087803b1580156108d457600080fd5b505af11580156108e8573d6000803e3d6000fd5b5050505050505050565b60075481565b610900610d4b565b6040518060400160405280600460009054906101000a900473ffffffffffffffffffffffffffffffffffffffff1673ffffffffffffffffffffffffffffffffffffffff168152602001600554815250905090565b600660019054906101000a900473ffffffffffffffffffffffffffffffffffffffff1681565b60025481565b6000600160009054906101000a900473ffffffffffffffffffffffffffffffffffffffff1690508073ffffffffffffffffffffffffffffffffffffffff166323b872dd60008054906101000a900473ffffffffffffffffffffffffffffffffffffffff16306002546040518463ffffffff1660e01b8152600401610a0693929190611208565b600060405180830381600087803b158015610a2057600080fd5b505af1158015610a34573d6000803e3d6000fd5b505050506000600860009054906101000a900473ffffffffffffffffffffffffffffffffffffffff1690508073ffffffffffffffffffffffffffffffffffffffff16637ca72b3c6040518163ffffffff1660e01b8152600401600060405180830381600087803b158015610aa757600080fd5b505af1158015610abb573d6000803e3d6000fd5b505050505050565b60035481565b610ad1610d7b565b6040518061012001604052803073ffffffffffffffffffffffffffffffffffffffff16815260200160008054906101000a900473ffffffffffffffffffffffffffffffffffffffff1673ffffffffffffffffffffffffffffffffffffffff168152602001600160009054906101000a900473ffffffffffffffffffffffffffffffffffffffff1673ffffffffffffffffffffffffffffffffffffffff1681526020016002548152602001600354815260200160008152602001600460009054906101000a900473ffffffffffffffffffffffffffffffffffffffff1673ffffffffffffffffffffffffffffffffffffffff1681526020016005548152602001600660009054906101000a900460ff1660ff16815250905090565b80471015610c2e576040517f08c379a0000000000000000000000000000000000000000000000000000000008152600401610c259061169d565b60405180910390fd5b610c3781610cc6565b60008054906101000a900473ffffffffffffffffffffffffffffffffffffffff1673ffffffffffffffffffffffffffffffffffffffff166108fc60646007546064610c8291906116bd565b84610c8d919061126e565b610c979190611720565b9081150290604051600060405180830381858888f19350505050158015610cc2573d6000803e3d6000fd5b5050565b600660019054906101000a900473ffffffffffffffffffffffffffffffffffffffff1673ffffffffffffffffffffffffffffffffffffffff166108fc606460075484610d12919061126e565b610d1c9190611720565b9081150290604051600060405180830381858888f19350505050158015610d47573d6000803e3d6000fd5b5050565b6040518060400160405280600073ffffffffffffffffffffffffffffffffffffffff168152602001600081525090565b604051806101200160405280600073ffffffffffffffffffffffffffffffffffffffff168152602001600073ffffffffffffffffffffffffffffffffffffffff168152602001600073ffffffffffffffffffffffffffffffffffffffff168152602001600081526020016000815260200160008152602001600073ffffffffffffffffffffffffffffffffffffffff16815260200160008152602001600060ff1681525090565b6000819050919050565b610e3581610e22565b82525050565b6000602082019050610e506000830184610e2c565b92915050565b6000604051905090565b600080fd5b600080fd5b610e7381610e22565b8114610e7e57600080fd5b50565b600081359050610e9081610e6a565b92915050565b600060208284031215610eac57610eab610e60565b5b6000610eba84828501610e81565b91505092915050565b600073ffffffffffffffffffffffffffffffffffffffff82169050919050565b6000610eee82610ec3565b9050919050565b610efe81610ee3565b82525050565b6000602082019050610f196000830184610ef5565b92915050565b600060ff82169050919050565b610f3581610f1f565b82525050565b6000602082019050610f506000830184610f2c565b92915050565b610f5f81610f1f565b8114610f6a57600080fd5b50565b600081359050610f7c81610f56565b92915050565b600060208284031215610f9857610f97610e60565b5b6000610fa684828501610f6d565b91505092915050565b610fb881610ee3565b82525050565b610fc781610e22565b82525050565b604082016000820151610fe36000850182610faf565b506020820151610ff66020850182610fbe565b50505050565b60006040820190506110116000830184610fcd565b92915050565b61102081610f1f565b82525050565b6101208201600082015161103d6000850182610faf565b5060208201516110506020850182610faf565b5060408201516110636040850182610faf565b5060608201516110766060850182610fbe565b5060808201516110896080850182610fbe565b5060a082015161109c60a0850182610fbe565b5060c08201516110af60c0850182610faf565b5060e08201516110c260e0850182610fbe565b506101008201516110d7610100850182611017565b50505050565b6000610120820190506110f36000830184611026565b92915050565b600082825260208201905092915050565b7f4f6e6c7920746865204e4654206f776e65722063616e2063616c6c207468697360008201527f2066756e6374696f6e0000000000000000000000000000000000000000000000602082015250565b60006111666029836110f9565b91506111718261110a565b604082019050919050565b6000602082019050818103600083015261119581611159565b9050919050565b7f54686973204e46542069732063757272656e746c792072656e74656400000000600082015250565b60006111d2601c836110f9565b91506111dd8261119c565b602082019050919050565b60006020820190508181036000830152611201816111c5565b9050919050565b600060608201905061121d6000830186610ef5565b61122a6020830185610ef5565b6112376040830184610e2c565b949350505050565b7f4e487b7100000000000000000000000000000000000000000000000000000000600052601160045260246000fd5b600061127982610e22565b915061128483610e22565b925082820261129281610e22565b915082820484148315176112a9576112a861123f565b5b5092915050565b7f596f75206d757374207061792074686520686f75726c792074696d657320746860008201527f65206e756d626572206f6620686f75727320796f752077616e7420746f20726560208201527f6e7420666f720000000000000000000000000000000000000000000000000000604082015250565b60006113326046836110f9565b915061133d826112b0565b606082019050919050565b6000602082019050818103600083015261136181611325565b9050919050565b600061ffff82169050919050565b600061138182611368565b915061138c83611368565b925082820261139a81611368565b91508082146113ac576113ab61123f565b5b5092915050565b60006113be82610e22565b91506113c983610e22565b92508282019050808211156113e1576113e061123f565b5b92915050565b600080fd5b600080fd5b6000601f19601f8301169050919050565b7f4e487b7100000000000000000000000000000000000000000000000000000000600052604160045260246000fd5b61143a826113f1565b810181811067ffffffffffffffff8211171561145957611458611402565b5b80604052505050565b600061146c610e56565b90506114788282611431565b919050565b600067ffffffffffffffff82111561149857611497611402565b5b6114a1826113f1565b9050602081019050919050565b60005b838110156114cc5780820151818401526020810190506114b1565b60008484015250505050565b60006114eb6114e68461147d565b611462565b905082815260208101848484011115611507576115066113ec565b5b6115128482856114ae565b509392505050565b600082601f83011261152f5761152e6113e7565b5b815161153f8482602086016114d8565b91505092915050565b60006020828403121561155e5761155d610e60565b5b600082015167ffffffffffffffff81111561157c5761157b610e65565b5b6115888482850161151a565b91505092915050565b600081519050919050565b60006115a782611591565b6115b181856110f9565b93506115c18185602086016114ae565b6115ca816113f1565b840191505092915050565b60006040820190506115ea6000830185610ef5565b81810360208301526115fc818461159c565b90509392505050565b7f5468652076616c7565206265696e672077697468647261776e206d757374206260008201527f6520657175616c206f72206c657373207468616e2074686520636f6e7472616360208201527f742062616c616e63650000000000000000000000000000000000000000000000604082015250565b60006116876049836110f9565b915061169282611605565b606082019050919050565b600060208201905081810360008301526116b68161167a565b9050919050565b60006116c882610e22565b91506116d383610e22565b92508282039050818111156116eb576116ea61123f565b5b92915050565b7f4e487b7100000000000000000000000000000000000000000000000000000000600052601260045260246000fd5b600061172b82610e22565b915061173683610e22565b925082611746576117456116f1565b5b82820490509291505056fea2646970667358221220c0d66f3af09d3251569f9aa21e7dbc4d035635cc1032f21470f1aeb3759eb34b64736f6c63430008120033",
  "linkReferences": {},
  "deployedLinkReferences": {}
}