{
  "_format": "hh-sol-artifact-1",
  "contractName": "RentHolder",
  "sourceName": "contracts/RentHolder.sol",
  "abi": [
    {
      "inputs": [
        {
          "internalType": "address",
          "name": "_nftAddress",
          "type": "address"
        },
        {
          "internalType": "uint256",
          "name": "_nftID",
          "type": "uint256"
        },
        {
          "internalType": "uint256",
          "name": "_pricePerDay",
          "type": "uint256"
        },
        {
          "internalType": "uint256",
          "name": "_ownerPenalty",
          "type": "uint256"
        },
        {
          "internalType": "uint256",
          "name": "_renterPenalty",
          "type": "uint256"
        },
        {
          "internalType": "uint256",
          "name": "_expirationDate",
          "type": "uint256"
        }
      ],
      "stateMutability": "payable",
      "type": "constructor"
    },
    {
      "anonymous": false,
      "inputs": [
        {
          "indexed": false,
          "internalType": "uint256",
          "name": "value1",
          "type": "uint256"
        },
        {
          "indexed": false,
          "internalType": "uint256",
          "name": "value2",
          "type": "uint256"
        },
        {
          "indexed": false,
          "internalType": "uint256",
          "name": "value3",
          "type": "uint256"
        },
        {
          "indexed": false,
          "internalType": "uint256",
          "name": "value4",
          "type": "uint256"
        }
      ],
      "name": "ValuesChecker",
      "type": "event"
    },
    {
      "inputs": [
        {
          "internalType": "uint256",
          "name": "_newExpirationDate",
          "type": "uint256"
        }
      ],
      "name": "changeExpirationDate",
      "outputs": [],
      "stateMutability": "nonpayable",
      "type": "function"
    },
    {
      "inputs": [
        {
          "internalType": "address",
          "name": "_newFeeCollector",
          "type": "address"
        }
      ],
      "name": "changeFeeCollector",
      "outputs": [],
      "stateMutability": "nonpayable",
      "type": "function"
    },
    {
      "inputs": [
        {
          "internalType": "uint256",
          "name": "_newFeeValue",
          "type": "uint256"
        }
      ],
      "name": "changeFeeValue",
      "outputs": [],
      "stateMutability": "nonpayable",
      "type": "function"
    },
    {
      "inputs": [
        {
          "internalType": "uint256",
          "name": "_newOwnerPenalty",
          "type": "uint256"
        }
      ],
      "name": "changeOwnerPenalty",
      "outputs": [],
      "stateMutability": "nonpayable",
      "type": "function"
    },
    {
      "inputs": [
        {
          "internalType": "uint256",
          "name": "_newPricePerDay",
          "type": "uint256"
        }
      ],
      "name": "changePricePerDay",
      "outputs": [],
      "stateMutability": "nonpayable",
      "type": "function"
    },
    {
      "inputs": [
        {
          "internalType": "uint256",
          "name": "_newRenterPenalty",
          "type": "uint256"
        }
      ],
      "name": "changeRenterPenalty",
      "outputs": [],
      "stateMutability": "nonpayable",
      "type": "function"
    },
    {
      "inputs": [],
      "name": "currRentEndDate",
      "outputs": [
        {
          "internalType": "uint256",
          "name": "",
          "type": "uint256"
        }
      ],
      "stateMutability": "view",
      "type": "function"
    },
    {
      "inputs": [],
      "name": "currRenter",
      "outputs": [
        {
          "internalType": "address",
          "name": "",
          "type": "address"
        }
      ],
      "stateMutability": "view",
      "type": "function"
    },
    {
      "inputs": [],
      "name": "expirationDate",
      "outputs": [
        {
          "internalType": "uint256",
          "name": "",
          "type": "uint256"
        }
      ],
      "stateMutability": "view",
      "type": "function"
    },
    {
      "inputs": [],
      "name": "feeCollector",
      "outputs": [
        {
          "internalType": "address",
          "name": "",
          "type": "address"
        }
      ],
      "stateMutability": "view",
      "type": "function"
    },
    {
      "inputs": [],
      "name": "feeValue",
      "outputs": [
        {
          "internalType": "uint256",
          "name": "",
          "type": "uint256"
        }
      ],
      "stateMutability": "view",
      "type": "function"
    },
    {
      "inputs": [],
      "name": "getRenter",
      "outputs": [
        {
          "internalType": "address",
          "name": "",
          "type": "address"
        }
      ],
      "stateMutability": "view",
      "type": "function"
    },
    {
      "inputs": [],
      "name": "nftAddress",
      "outputs": [
        {
          "internalType": "address",
          "name": "",
          "type": "address"
        }
      ],
      "stateMutability": "view",
      "type": "function"
    },
    {
      "inputs": [],
      "name": "nftId",
      "outputs": [
        {
          "internalType": "uint256",
          "name": "",
          "type": "uint256"
        }
      ],
      "stateMutability": "view",
      "type": "function"
    },
    {
      "inputs": [],
      "name": "nftOwner",
      "outputs": [
        {
          "internalType": "address",
          "name": "",
          "type": "address"
        }
      ],
      "stateMutability": "view",
      "type": "function"
    },
    {
      "inputs": [],
      "name": "ownerPenalty",
      "outputs": [
        {
          "internalType": "uint256",
          "name": "",
          "type": "uint256"
        }
      ],
      "stateMutability": "view",
      "type": "function"
    },
    {
      "inputs": [],
      "name": "pricePerDay",
      "outputs": [
        {
          "internalType": "uint256",
          "name": "",
          "type": "uint256"
        }
      ],
      "stateMutability": "view",
      "type": "function"
    },
    {
      "inputs": [
        {
          "internalType": "uint256",
          "name": "_days",
          "type": "uint256"
        }
      ],
      "name": "rent",
      "outputs": [],
      "stateMutability": "payable",
      "type": "function"
    },
    {
      "inputs": [],
      "name": "renterPenalty",
      "outputs": [
        {
          "internalType": "uint256",
          "name": "",
          "type": "uint256"
        }
      ],
      "stateMutability": "view",
      "type": "function"
    },
    {
      "inputs": [],
      "name": "returnRentInfo",
      "outputs": [
        {
          "components": [
            {
              "internalType": "address",
              "name": "rentHolderSC",
              "type": "address"
            },
            {
              "internalType": "address",
              "name": "nftOwner",
              "type": "address"
            },
            {
              "internalType": "address",
              "name": "nftAddress",
              "type": "address"
            },
            {
              "internalType": "uint256",
              "name": "nftId",
              "type": "uint256"
            },
            {
              "internalType": "uint256",
              "name": "pricePerDay",
              "type": "uint256"
            },
            {
              "internalType": "uint256",
              "name": "ownerPenalty",
              "type": "uint256"
            },
            {
              "internalType": "uint256",
              "name": "renterPenalty",
              "type": "uint256"
            },
            {
              "internalType": "uint256",
              "name": "expirationDate",
              "type": "uint256"
            },
            {
              "internalType": "address",
              "name": "currRenter",
              "type": "address"
            },
            {
              "internalType": "uint256",
              "name": "currRentEndDate",
              "type": "uint256"
            }
          ],
          "internalType": "struct RentHolder.relevantRentInfo",
          "name": "",
          "type": "tuple"
        }
      ],
      "stateMutability": "view",
      "type": "function"
    },
    {
      "inputs": [],
      "name": "stopRentEarly",
      "outputs": [],
      "stateMutability": "nonpayable",
      "type": "function"
    },
    {
      "inputs": [],
      "name": "transferNFT",
      "outputs": [],
      "stateMutability": "nonpayable",
      "type": "function"
    },
    {
      "inputs": [
        {
          "internalType": "uint256",
          "name": "valueToKeep",
          "type": "uint256"
        }
      ],
      "name": "withdrawFunds",
      "outputs": [],
      "stateMutability": "nonpayable",
      "type": "function"
    },
    {
      "inputs": [],
      "name": "withdrawNFT",
      "outputs": [],
      "stateMutability": "nonpayable",
      "type": "function"
    },
    {
      "stateMutability": "payable",
      "type": "receive"
    }
  ],
  "bytecode": "0x608060405273e2c36ed0dfb0b0abfdb92d500adcf4ffe81523b5600960006101000a81548173ffffffffffffffffffffffffffffffffffffffff021916908373ffffffffffffffffffffffffffffffffffffffff1602179055506001600a5573c6166805035caf58523f2e62a6e8d9469ef70064600b60006101000a81548173ffffffffffffffffffffffffffffffffffffffff021916908373ffffffffffffffffffffffffffffffffffffffff1602179055506040516200248d3803806200248d8339818101604052810190620000d89190620002bf565b66b1a2bc2ec5000034101562000125576040517f08c379a00000000000000000000000000000000000000000000000000000000081526004016200011c90620003e2565b60405180910390fd5b8042106200016a576040517f08c379a000000000000000000000000000000000000000000000000000000000815260040162000161906200047a565b60405180910390fd5b336000806101000a81548173ffffffffffffffffffffffffffffffffffffffff021916908373ffffffffffffffffffffffffffffffffffffffff16021790555085600160006101000a81548173ffffffffffffffffffffffffffffffffffffffff021916908373ffffffffffffffffffffffffffffffffffffffff16021790555084600281905550836003819055508260048190555081600581905550806006819055505050505050506200049c565b600080fd5b600073ffffffffffffffffffffffffffffffffffffffff82169050919050565b60006200024c826200021f565b9050919050565b6200025e816200023f565b81146200026a57600080fd5b50565b6000815190506200027e8162000253565b92915050565b6000819050919050565b620002998162000284565b8114620002a557600080fd5b50565b600081519050620002b9816200028e565b92915050565b60008060008060008060c08789031215620002df57620002de6200021a565b5b6000620002ef89828a016200026d565b96505060206200030289828a01620002a8565b95505060406200031589828a01620002a8565b94505060606200032889828a01620002a8565b93505060806200033b89828a01620002a8565b92505060a06200034e89828a01620002a8565b9150509295509295509295565b600082825260208201905092915050565b7f596f75206d75737420706179206174206c6561737420302e303520455448207460008201527f6f2070617920706f74656e7469616c2067617320666565730000000000000000602082015250565b6000620003ca6038836200035b565b9150620003d7826200036c565b604082019050919050565b60006020820190508181036000830152620003fd81620003bb565b9050919050565b7f5468652065787069726174696f6e2064617465206d75737420626520696e207460008201527f6865206675747572650000000000000000000000000000000000000000000000602082015250565b6000620004626029836200035b565b91506200046f8262000404565b604082019050919050565b60006020820190508181036000830152620004958162000453565b9050919050565b611fe180620004ac6000396000f3fe60806040526004361061014f5760003560e01c80637fa7963d116100b6578063c415b95c1161006f578063c415b95c1461040a578063c6bc518214610435578063ea3a2aec14610460578063ecd06cf91461048b578063fc828b67146104b4578063fd2b9cf1146104df57610156565b80637fa7963d146103225780638f6204871461034b5780639245290d146103765780639fddaa931461039f578063a245dc93146103ca578063a4fa3734146103f357610156565b80635bf8633a116101085780635bf8633a146102575780635e38c954146102825780637456be7d14610299578063759624fc146102b55780637633c62b146102cc5780637f6ae770146102f757610156565b80630f1c31951461015b5780631337f24314610186578063155dd5ee146101b15780631f9c8d79146101da57806337935293146102035780634c39a7491461022c57610156565b3661015657005b600080fd5b34801561016757600080fd5b5061017061050a565b60405161017d919061161c565b60405180910390f35b34801561019257600080fd5b5061019b610510565b6040516101a8919061161c565b60405180910390f35b3480156101bd57600080fd5b506101d860048036038101906101d39190611668565b610516565b005b3480156101e657600080fd5b5061020160048036038101906101fc9190611668565b6105fb565b005b34801561020f57600080fd5b5061022a60048036038101906102259190611668565b6106d5565b005b34801561023857600080fd5b5061024161076d565b60405161024e91906116d6565b60405180910390f35b34801561026357600080fd5b5061026c610791565b60405161027991906116d6565b60405180910390f35b34801561028e57600080fd5b506102976107b7565b005b6102b360048036038101906102ae9190611668565b610afb565b005b3480156102c157600080fd5b506102ca610c65565b005b3480156102d857600080fd5b506102e1610ef7565b6040516102ee91906116d6565b60405180910390f35b34801561030357600080fd5b5061030c610f1d565b60405161031991906116d6565b60405180910390f35b34801561032e57600080fd5b5061034960048036038101906103449190611668565b610f5b565b005b34801561035757600080fd5b50610360610ff5565b60405161036d919061161c565b60405180910390f35b34801561038257600080fd5b5061039d6004803603810190610398919061171d565b610ffb565b005b3480156103ab57600080fd5b506103b46110cf565b6040516103c1919061161c565b60405180910390f35b3480156103d657600080fd5b506103f160048036038101906103ec9190611668565b6110d5565b005b3480156103ff57600080fd5b5061040861116d565b005b34801561041657600080fd5b5061041f6112b0565b60405161042c91906116d6565b60405180910390f35b34801561044157600080fd5b5061044a6112d6565b604051610457919061161c565b60405180910390f35b34801561046c57600080fd5b506104756112dc565b6040516104829190611834565b60405180910390f35b34801561049757600080fd5b506104b260048036038101906104ad9190611668565b6113f7565b005b3480156104c057600080fd5b506104c961148f565b6040516104d6919061161c565b60405180910390f35b3480156104eb57600080fd5b506104f4611495565b604051610501919061161c565b60405180910390f35b60085481565b60045481565b66b1a2bc2ec50000814761052a919061187f565b101561056b576040517f08c379a00000000000000000000000000000000000000000000000000000000081526004016105629061195c565b60405180910390fd5b6105748161149b565b60008054906101000a900473ffffffffffffffffffffffffffffffffffffffff1673ffffffffffffffffffffffffffffffffffffffff166108fc66b1a2bc2ec5000083476105c2919061187f565b6105cc919061187f565b9081150290604051600060405180830381858888f193505050501580156105f7573d6000803e3d6000fd5b5050565b60008054906101000a900473ffffffffffffffffffffffffffffffffffffffff1673ffffffffffffffffffffffffffffffffffffffff163373ffffffffffffffffffffffffffffffffffffffff1614610689576040517f08c379a0000000000000000000000000000000000000000000000000000000008152600401610680906119ee565b60405180910390fd5b8042106106cb576040517f08c379a00000000000000000000000000000000000000000000000000000000081526004016106c290611a80565b60405180910390fd5b8060068190555050565b60008054906101000a900473ffffffffffffffffffffffffffffffffffffffff1673ffffffffffffffffffffffffffffffffffffffff163373ffffffffffffffffffffffffffffffffffffffff1614610763576040517f08c379a000000000000000000000000000000000000000000000000000000000815260040161075a906119ee565b60405180910390fd5b8060058190555050565b60008054906101000a900473ffffffffffffffffffffffffffffffffffffffff1681565b600160009054906101000a900473ffffffffffffffffffffffffffffffffffffffff1681565b60008054906101000a900473ffffffffffffffffffffffffffffffffffffffff1673ffffffffffffffffffffffffffffffffffffffff163373ffffffffffffffffffffffffffffffffffffffff1614610845576040517f08c379a000000000000000000000000000000000000000000000000000000000815260040161083c906119ee565b60405180910390fd5b6008544210156109795760006201518042600854610863919061187f565b6127106108709190611aa0565b61087a9190611b11565b90506000606460045466b1a2bc2ec5000047610896919061187f565b6108a09190611aa0565b6108aa9190611b11565b90506000612710600354846108bf9190611aa0565b6108c99190611b11565b9050600082826108d99190611b42565b905066b1a2bc2ec50000476108ee919061187f565b81111561090b5766b1a2bc2ec5000047610908919061187f565b90505b600760009054906101000a900473ffffffffffffffffffffffffffffffffffffffff1673ffffffffffffffffffffffffffffffffffffffff166108fc829081150290604051600060405180830381858888f19350505050158015610973573d6000803e3d6000fd5b50505050505b6000600160009054906101000a900473ffffffffffffffffffffffffffffffffffffffff1690508073ffffffffffffffffffffffffffffffffffffffff166323b872dd3060008054906101000a900473ffffffffffffffffffffffffffffffffffffffff166002546040518463ffffffff1660e01b81526004016109ff93929190611b76565b600060405180830381600087803b158015610a1957600080fd5b505af1158015610a2d573d6000803e3d6000fd5b50505050610a3b600061149b565b6000600b60009054906101000a900473ffffffffffffffffffffffffffffffffffffffff1690508073ffffffffffffffffffffffffffffffffffffffff1663d2ff76646040518163ffffffff1660e01b8152600401600060405180830381600087803b158015610aaa57600080fd5b505af1158015610abe573d6000803e3d6000fd5b5050505060008054906101000a900473ffffffffffffffffffffffffffffffffffffffff1673ffffffffffffffffffffffffffffffffffffffff16ff5b80600354610b099190611aa0565b3414610b4a576040517f08c379a0000000000000000000000000000000000000000000000000000000008152600401610b4190611c45565b60405180910390fd5b6006546201518082610b5c9190611aa0565b42610b679190611b42565b10610ba7576040517f08c379a0000000000000000000000000000000000000000000000000000000008152600401610b9e90611cd7565b60405180910390fd5b6008544211610beb576040517f08c379a0000000000000000000000000000000000000000000000000000000008152600401610be290611d69565b60405180910390fd5b610c0181600354610bfc9190611aa0565b610516565b33600760006101000a81548173ffffffffffffffffffffffffffffffffffffffff021916908373ffffffffffffffffffffffffffffffffffffffff1602179055506201518081610c519190611aa0565b42610c5c9190611b42565b60088190555050565b600760009054906101000a900473ffffffffffffffffffffffffffffffffffffffff1673ffffffffffffffffffffffffffffffffffffffff163373ffffffffffffffffffffffffffffffffffffffff1614610cf5576040517f08c379a0000000000000000000000000000000000000000000000000000000008152600401610cec90611dfb565b60405180910390fd5b6008544210610d39576040517f08c379a0000000000000000000000000000000000000000000000000000000008152600401610d3090611e67565b60405180910390fd5b6008544210610d7d576040517f08c379a0000000000000000000000000000000000000000000000000000000008152600401610d7490611ef9565b60405180910390fd5b60006201518042600854610d91919061187f565b612710610d9e9190611aa0565b610da89190611b11565b90506000612710606460055460035485610dc29190611aa0565b610dcc9190611aa0565b610dd69190611b11565b610de09190611b11565b905060008161271084600354610df69190611aa0565b610e009190611b11565b610e0a919061187f565b1115610e9f57600760009054906101000a900473ffffffffffffffffffffffffffffffffffffffff1673ffffffffffffffffffffffffffffffffffffffff166108fc8261271085600354610e5e9190611aa0565b610e689190611b11565b610e72919061187f565b9081150290604051600060405180830381858888f19350505050158015610e9d573d6000803e3d6000fd5b505b610ea96000610516565b6000600760006101000a81548173ffffffffffffffffffffffffffffffffffffffff021916908373ffffffffffffffffffffffffffffffffffffffff16021790555060006008819055505050565b600760009054906101000a900473ffffffffffffffffffffffffffffffffffffffff1681565b6000600854421115610f325760009050610f58565b600760009054906101000a900473ffffffffffffffffffffffffffffffffffffffff1690505b90565b600960009054906101000a900473ffffffffffffffffffffffffffffffffffffffff1673ffffffffffffffffffffffffffffffffffffffff163373ffffffffffffffffffffffffffffffffffffffff1614610feb576040517f08c379a0000000000000000000000000000000000000000000000000000000008152600401610fe290611f8b565b60405180910390fd5b80600a8190555050565b60065481565b600960009054906101000a900473ffffffffffffffffffffffffffffffffffffffff1673ffffffffffffffffffffffffffffffffffffffff163373ffffffffffffffffffffffffffffffffffffffff161461108b576040517f08c379a000000000000000000000000000000000000000000000000000000000815260040161108290611f8b565b60405180910390fd5b80600960006101000a81548173ffffffffffffffffffffffffffffffffffffffff021916908373ffffffffffffffffffffffffffffffffffffffff16021790555050565b600a5481565b60008054906101000a900473ffffffffffffffffffffffffffffffffffffffff1673ffffffffffffffffffffffffffffffffffffffff163373ffffffffffffffffffffffffffffffffffffffff1614611163576040517f08c379a000000000000000000000000000000000000000000000000000000000815260040161115a906119ee565b60405180910390fd5b8060038190555050565b6000600160009054906101000a900473ffffffffffffffffffffffffffffffffffffffff1690508073ffffffffffffffffffffffffffffffffffffffff166323b872dd60008054906101000a900473ffffffffffffffffffffffffffffffffffffffff16306002546040518463ffffffff1660e01b81526004016111f393929190611b76565b600060405180830381600087803b15801561120d57600080fd5b505af1158015611221573d6000803e3d6000fd5b505050506000600b60009054906101000a900473ffffffffffffffffffffffffffffffffffffffff1690508073ffffffffffffffffffffffffffffffffffffffff1663edfa22566040518163ffffffff1660e01b8152600401600060405180830381600087803b15801561129457600080fd5b505af11580156112a8573d6000803e3d6000fd5b505050505050565b600960009054906101000a900473ffffffffffffffffffffffffffffffffffffffff1681565b60025481565b6112e4611558565b6040518061014001604052803073ffffffffffffffffffffffffffffffffffffffff16815260200160008054906101000a900473ffffffffffffffffffffffffffffffffffffffff1673ffffffffffffffffffffffffffffffffffffffff168152602001600160009054906101000a900473ffffffffffffffffffffffffffffffffffffffff1673ffffffffffffffffffffffffffffffffffffffff16815260200160025481526020016003548152602001600454815260200160055481526020016006548152602001600760009054906101000a900473ffffffffffffffffffffffffffffffffffffffff1673ffffffffffffffffffffffffffffffffffffffff168152602001600854815250905090565b60008054906101000a900473ffffffffffffffffffffffffffffffffffffffff1673ffffffffffffffffffffffffffffffffffffffff163373ffffffffffffffffffffffffffffffffffffffff1614611485576040517f08c379a000000000000000000000000000000000000000000000000000000000815260040161147c906119ee565b60405180910390fd5b8060048190555050565b60055481565b60035481565b66b1a2bc2ec5000081476114af919061187f565b111561155557600960009054906101000a900473ffffffffffffffffffffffffffffffffffffffff1673ffffffffffffffffffffffffffffffffffffffff166108fc6064600a5466b1a2bc2ec50000854761150a919061187f565b611514919061187f565b61151e9190611aa0565b6115289190611b11565b9081150290604051600060405180830381858888f19350505050158015611553573d6000803e3d6000fd5b505b50565b604051806101400160405280600073ffffffffffffffffffffffffffffffffffffffff168152602001600073ffffffffffffffffffffffffffffffffffffffff168152602001600073ffffffffffffffffffffffffffffffffffffffff1681526020016000815260200160008152602001600081526020016000815260200160008152602001600073ffffffffffffffffffffffffffffffffffffffff168152602001600081525090565b6000819050919050565b61161681611603565b82525050565b6000602082019050611631600083018461160d565b92915050565b600080fd5b61164581611603565b811461165057600080fd5b50565b6000813590506116628161163c565b92915050565b60006020828403121561167e5761167d611637565b5b600061168c84828501611653565b91505092915050565b600073ffffffffffffffffffffffffffffffffffffffff82169050919050565b60006116c082611695565b9050919050565b6116d0816116b5565b82525050565b60006020820190506116eb60008301846116c7565b92915050565b6116fa816116b5565b811461170557600080fd5b50565b600081359050611717816116f1565b92915050565b60006020828403121561173357611732611637565b5b600061174184828501611708565b91505092915050565b611753816116b5565b82525050565b61176281611603565b82525050565b6101408201600082015161177f600085018261174a565b506020820151611792602085018261174a565b5060408201516117a5604085018261174a565b5060608201516117b86060850182611759565b5060808201516117cb6080850182611759565b5060a08201516117de60a0850182611759565b5060c08201516117f160c0850182611759565b5060e082015161180460e0850182611759565b5061010082015161181961010085018261174a565b5061012082015161182e610120850182611759565b50505050565b60006101408201905061184a6000830184611768565b92915050565b7f4e487b7100000000000000000000000000000000000000000000000000000000600052601160045260246000fd5b600061188a82611603565b915061189583611603565b92508282039050818111156118ad576118ac611850565b5b92915050565b600082825260208201905092915050565b7f4174206c6561737420302e303520455448206d7573742072656d61696e20696e60008201527f2074686520636f6e747261637420746f2070617920706f74656e7469616c206760208201527f6173206665657300000000000000000000000000000000000000000000000000604082015250565b60006119466047836118b3565b9150611951826118c4565b606082019050919050565b6000602082019050818103600083015261197581611939565b9050919050565b7f4f6e6c7920746865204e4654206f776e65722063616e2063616c6c207468697360008201527f2066756e6374696f6e0000000000000000000000000000000000000000000000602082015250565b60006119d86029836118b3565b91506119e38261197c565b604082019050919050565b60006020820190508181036000830152611a07816119cb565b9050919050565b7f5468652065787069726174696f6e2064617465206d75737420626520696e207460008201527f6865206675747572650000000000000000000000000000000000000000000000602082015250565b6000611a6a6029836118b3565b9150611a7582611a0e565b604082019050919050565b60006020820190508181036000830152611a9981611a5d565b9050919050565b6000611aab82611603565b9150611ab683611603565b9250828202611ac481611603565b91508282048414831517611adb57611ada611850565b5b5092915050565b7f4e487b7100000000000000000000000000000000000000000000000000000000600052601260045260246000fd5b6000611b1c82611603565b9150611b2783611603565b925082611b3757611b36611ae2565b5b828204905092915050565b6000611b4d82611603565b9150611b5883611603565b9250828201905080821115611b7057611b6f611850565b5b92915050565b6000606082019050611b8b60008301866116c7565b611b9860208301856116c7565b611ba5604083018461160d565b949350505050565b7f596f75206d75737420706179207468652070726963652070657220646179207460008201527f696d657320746865206e756d626572206f66206461797320796f752077616e7460208201527f20746f2072656e7420666f720000000000000000000000000000000000000000604082015250565b6000611c2f604c836118b3565b9150611c3a82611bad565b606082019050919050565b60006020820190508181036000830152611c5e81611c22565b9050919050565b7f5468697320636f6e74726163742077696c6c20657870697265206265666f726560008201527f20796f75722072656e74616c20656e6473000000000000000000000000000000602082015250565b6000611cc16031836118b3565b9150611ccc82611c65565b604082019050919050565b60006020820190508181036000830152611cf081611cb4565b9050919050565b7f5468697320636f6e74726163742069732063757272656e746c792072656e746560008201527f6400000000000000000000000000000000000000000000000000000000000000602082015250565b6000611d536021836118b3565b9150611d5e82611cf7565b604082019050919050565b60006020820190508181036000830152611d8281611d46565b9050919050565b7f4f6e6c79207468652076616c69642063757272656e742072656e74657220636160008201527f6e2063616c6c20746869732066756e6374696f6e000000000000000000000000602082015250565b6000611de56034836118b3565b9150611df082611d89565b604082019050919050565b60006020820190508181036000830152611e1481611dd8565b9050919050565b7f5468652072656e74616c20706572696f642068617320656e6465640000000000600082015250565b6000611e51601b836118b3565b9150611e5c82611e1b565b602082019050919050565b60006020820190508181036000830152611e8081611e44565b9050919050565b7f596f75206861766520616c7265616479207061696420666f722074686520667560008201527f6c6c2072656e74616c20706572696f6400000000000000000000000000000000602082015250565b6000611ee36030836118b3565b9150611eee82611e87565b604082019050919050565b60006020820190508181036000830152611f1281611ed6565b9050919050565b7f4f6e6c79207468652066656520636f6c6c6563746f722063616e2063616c6c2060008201527f746869732066756e6374696f6e00000000000000000000000000000000000000602082015250565b6000611f75602d836118b3565b9150611f8082611f19565b604082019050919050565b60006020820190508181036000830152611fa481611f68565b905091905056fea26469706673582212200cf061863381afaf370d0583e2833d34f4fb0fdc218f18712c47a2a9b16773ac64736f6c63430008110033",
  "linkReferences": {},
  "deployedLinkReferences": {}
}