{
  "_format": "hh-sol-artifact-1",
  "contractName": "RentHolder",
  "sourceName": "contracts/RentHolder.sol",
  "abi": [
    {
      "inputs": [
        {
          "internalType": "address",
          "name": "_nftAddress",
          "type": "address"
        },
        {
          "internalType": "uint256",
          "name": "_nftID",
          "type": "uint256"
        },
        {
          "internalType": "uint256",
          "name": "_pricePerDay",
          "type": "uint256"
        },
        {
          "internalType": "uint256",
          "name": "_ownerPenalty",
          "type": "uint256"
        },
        {
          "internalType": "uint256",
          "name": "_renterPenalty",
          "type": "uint256"
        },
        {
          "internalType": "uint256",
          "name": "_expirationDate",
          "type": "uint256"
        }
      ],
      "stateMutability": "payable",
      "type": "constructor"
    },
    {
      "inputs": [
        {
          "internalType": "uint256",
          "name": "_newExpirationDate",
          "type": "uint256"
        }
      ],
      "name": "changeExpirationDate",
      "outputs": [],
      "stateMutability": "nonpayable",
      "type": "function"
    },
    {
      "inputs": [
        {
          "internalType": "address",
          "name": "_newFeeCollector",
          "type": "address"
        }
      ],
      "name": "changeFeeCollector",
      "outputs": [],
      "stateMutability": "nonpayable",
      "type": "function"
    },
    {
      "inputs": [
        {
          "internalType": "uint256",
          "name": "_newFeeValue",
          "type": "uint256"
        }
      ],
      "name": "changeFeeValue",
      "outputs": [],
      "stateMutability": "nonpayable",
      "type": "function"
    },
    {
      "inputs": [
        {
          "internalType": "uint256",
          "name": "_newOwnerPenalty",
          "type": "uint256"
        }
      ],
      "name": "changeOwnerPenalty",
      "outputs": [],
      "stateMutability": "nonpayable",
      "type": "function"
    },
    {
      "inputs": [
        {
          "internalType": "uint256",
          "name": "_newPricePerDay",
          "type": "uint256"
        }
      ],
      "name": "changePricePerDay",
      "outputs": [],
      "stateMutability": "nonpayable",
      "type": "function"
    },
    {
      "inputs": [
        {
          "internalType": "uint256",
          "name": "_newRenterPenalty",
          "type": "uint256"
        }
      ],
      "name": "changeRenterPenalty",
      "outputs": [],
      "stateMutability": "nonpayable",
      "type": "function"
    },
    {
      "inputs": [],
      "name": "currRentEndDate",
      "outputs": [
        {
          "internalType": "uint256",
          "name": "",
          "type": "uint256"
        }
      ],
      "stateMutability": "view",
      "type": "function"
    },
    {
      "inputs": [],
      "name": "currRenter",
      "outputs": [
        {
          "internalType": "address",
          "name": "",
          "type": "address"
        }
      ],
      "stateMutability": "view",
      "type": "function"
    },
    {
      "inputs": [],
      "name": "expirationDate",
      "outputs": [
        {
          "internalType": "uint256",
          "name": "",
          "type": "uint256"
        }
      ],
      "stateMutability": "view",
      "type": "function"
    },
    {
      "inputs": [],
      "name": "feeCollector",
      "outputs": [
        {
          "internalType": "address",
          "name": "",
          "type": "address"
        }
      ],
      "stateMutability": "view",
      "type": "function"
    },
    {
      "inputs": [],
      "name": "feeValue",
      "outputs": [
        {
          "internalType": "uint256",
          "name": "",
          "type": "uint256"
        }
      ],
      "stateMutability": "view",
      "type": "function"
    },
    {
      "inputs": [],
      "name": "getRenter",
      "outputs": [
        {
          "internalType": "address",
          "name": "",
          "type": "address"
        }
      ],
      "stateMutability": "view",
      "type": "function"
    },
    {
      "inputs": [],
      "name": "nftAddress",
      "outputs": [
        {
          "internalType": "address",
          "name": "",
          "type": "address"
        }
      ],
      "stateMutability": "view",
      "type": "function"
    },
    {
      "inputs": [],
      "name": "nftId",
      "outputs": [
        {
          "internalType": "uint256",
          "name": "",
          "type": "uint256"
        }
      ],
      "stateMutability": "view",
      "type": "function"
    },
    {
      "inputs": [],
      "name": "nftOwner",
      "outputs": [
        {
          "internalType": "address",
          "name": "",
          "type": "address"
        }
      ],
      "stateMutability": "view",
      "type": "function"
    },
    {
      "inputs": [],
      "name": "ownerPenalty",
      "outputs": [
        {
          "internalType": "uint256",
          "name": "",
          "type": "uint256"
        }
      ],
      "stateMutability": "view",
      "type": "function"
    },
    {
      "inputs": [],
      "name": "pricePerDay",
      "outputs": [
        {
          "internalType": "uint256",
          "name": "",
          "type": "uint256"
        }
      ],
      "stateMutability": "view",
      "type": "function"
    },
    {
      "inputs": [
        {
          "internalType": "uint256",
          "name": "_days",
          "type": "uint256"
        }
      ],
      "name": "rent",
      "outputs": [],
      "stateMutability": "payable",
      "type": "function"
    },
    {
      "inputs": [],
      "name": "renterPenalty",
      "outputs": [
        {
          "internalType": "uint256",
          "name": "",
          "type": "uint256"
        }
      ],
      "stateMutability": "view",
      "type": "function"
    },
    {
      "inputs": [],
      "name": "stopRentEarly",
      "outputs": [],
      "stateMutability": "nonpayable",
      "type": "function"
    },
    {
      "inputs": [],
      "name": "withdrawFunds",
      "outputs": [],
      "stateMutability": "nonpayable",
      "type": "function"
    },
    {
      "inputs": [],
      "name": "withdrawNFT",
      "outputs": [],
      "stateMutability": "nonpayable",
      "type": "function"
    }
  ],
  "bytecode": "0x608060405260405162001ea538038062001ea5833981810160405281019062000029919062000275565b66b1a2bc2ec5000034101562000076576040517f08c379a00000000000000000000000000000000000000000000000000000000081526004016200006d9062000398565b60405180910390fd5b804210620000bb576040517f08c379a0000000000000000000000000000000000000000000000000000000008152600401620000b29062000430565b60405180910390fd5b336000806101000a81548173ffffffffffffffffffffffffffffffffffffffff021916908373ffffffffffffffffffffffffffffffffffffffff16021790555085600160006101000a81548173ffffffffffffffffffffffffffffffffffffffff021916908373ffffffffffffffffffffffffffffffffffffffff160217905550846002819055508360038190555082600481905550816005819055508060068190555073e2c36ed0dfb0b0abfdb92d500adcf4ffe81523b5600960006101000a81548173ffffffffffffffffffffffffffffffffffffffff021916908373ffffffffffffffffffffffffffffffffffffffff1602179055506001600a81905550600060088190555050505050505062000452565b600080fd5b600073ffffffffffffffffffffffffffffffffffffffff82169050919050565b60006200020282620001d5565b9050919050565b6200021481620001f5565b81146200022057600080fd5b50565b600081519050620002348162000209565b92915050565b6000819050919050565b6200024f816200023a565b81146200025b57600080fd5b50565b6000815190506200026f8162000244565b92915050565b60008060008060008060c08789031215620002955762000294620001d0565b5b6000620002a589828a0162000223565b9650506020620002b889828a016200025e565b9550506040620002cb89828a016200025e565b9450506060620002de89828a016200025e565b9350506080620002f189828a016200025e565b92505060a06200030489828a016200025e565b9150509295509295509295565b600082825260208201905092915050565b7f596f75206d75737420706179206174206c6561737420302e303520455448207460008201527f6f2070617920706f74656e7469616c2067617320666565730000000000000000602082015250565b60006200038060388362000311565b91506200038d8262000322565b604082019050919050565b60006020820190508181036000830152620003b38162000371565b9050919050565b7f5468652065787069726174696f6e2064617465206d75737420626520696e207460008201527f6865206675747572650000000000000000000000000000000000000000000000602082015250565b60006200041860298362000311565b91506200042582620003ba565b604082019050919050565b600060208201905081810360008301526200044b8162000409565b9050919050565b611a4380620004626000396000f3fe6080604052600436106101355760003560e01c80637f6ae770116100ab578063a245dc931161006f578063a245dc9314610397578063c415b95c146103c0578063c6bc5182146103eb578063ecd06cf914610416578063fc828b671461043f578063fd2b9cf11461046a57610135565b80637f6ae770146102c45780637fa7963d146102ef5780638f620487146103185780639245290d146103435780639fddaa931461036c57610135565b80634c39a749116100fd5780634c39a749146101f95780635bf8633a146102245780635e38c9541461024f5780637456be7d14610266578063759624fc146102825780637633c62b1461029957610135565b80630f1c31951461013a5780631337f243146101655780631f9c8d791461019057806324600fc3146101b957806337935293146101d0575b600080fd5b34801561014657600080fd5b5061014f610495565b60405161015c9190611184565b60405180910390f35b34801561017157600080fd5b5061017a61049b565b6040516101879190611184565b60405180910390f35b34801561019c57600080fd5b506101b760048036038101906101b291906111d0565b6104a1565b005b3480156101c557600080fd5b506101ce61057b565b005b3480156101dc57600080fd5b506101f760048036038101906101f291906111d0565b610647565b005b34801561020557600080fd5b5061020e6106df565b60405161021b919061123e565b60405180910390f35b34801561023057600080fd5b50610239610703565b604051610246919061123e565b60405180910390f35b34801561025b57600080fd5b50610264610729565b005b610280600480360381019061027b91906111d0565b61098e565b005b34801561028e57600080fd5b50610297610aea565b005b3480156102a557600080fd5b506102ae610d46565b6040516102bb919061123e565b60405180910390f35b3480156102d057600080fd5b506102d9610d6c565b6040516102e6919061123e565b60405180910390f35b3480156102fb57600080fd5b50610316600480360381019061031191906111d0565b610daa565b005b34801561032457600080fd5b5061032d610e44565b60405161033a9190611184565b60405180910390f35b34801561034f57600080fd5b5061036a60048036038101906103659190611285565b610e4a565b005b34801561037857600080fd5b50610381610f1e565b60405161038e9190611184565b60405180910390f35b3480156103a357600080fd5b506103be60048036038101906103b991906111d0565b610f24565b005b3480156103cc57600080fd5b506103d5610fbc565b6040516103e2919061123e565b60405180910390f35b3480156103f757600080fd5b50610400610fe2565b60405161040d9190611184565b60405180910390f35b34801561042257600080fd5b5061043d600480360381019061043891906111d0565b610fe8565b005b34801561044b57600080fd5b50610454611080565b6040516104619190611184565b60405180910390f35b34801561047657600080fd5b5061047f611086565b60405161048c9190611184565b60405180910390f35b60085481565b60045481565b60008054906101000a900473ffffffffffffffffffffffffffffffffffffffff1673ffffffffffffffffffffffffffffffffffffffff163373ffffffffffffffffffffffffffffffffffffffff161461052f576040517f08c379a000000000000000000000000000000000000000000000000000000000815260040161052690611335565b60405180910390fd5b804210610571576040517f08c379a0000000000000000000000000000000000000000000000000000000008152600401610568906113c7565b60405180910390fd5b8060068190555050565b66b1a2bc2ec5000047116105c4576040517f08c379a00000000000000000000000000000000000000000000000000000000081526004016105bb9061147f565b60405180910390fd5b6105cc61108c565b60008054906101000a900473ffffffffffffffffffffffffffffffffffffffff1673ffffffffffffffffffffffffffffffffffffffff166108fc66b1a2bc2ec500004761061991906114ce565b9081150290604051600060405180830381858888f19350505050158015610644573d6000803e3d6000fd5b50565b60008054906101000a900473ffffffffffffffffffffffffffffffffffffffff1673ffffffffffffffffffffffffffffffffffffffff163373ffffffffffffffffffffffffffffffffffffffff16146106d5576040517f08c379a00000000000000000000000000000000000000000000000000000000081526004016106cc90611335565b60405180910390fd5b8060058190555050565b60008054906101000a900473ffffffffffffffffffffffffffffffffffffffff1681565b600160009054906101000a900473ffffffffffffffffffffffffffffffffffffffff1681565b60008054906101000a900473ffffffffffffffffffffffffffffffffffffffff1673ffffffffffffffffffffffffffffffffffffffff163373ffffffffffffffffffffffffffffffffffffffff16146107b7576040517f08c379a00000000000000000000000000000000000000000000000000000000081526004016107ae90611335565b60405180910390fd5b60085442101561089557600062015180426008546107d591906114ce565b6107df9190611531565b90506000606460045466b1a2bc2ec50000476107fb91906114ce565b6108059190611562565b61080f9190611531565b6003548361081d9190611562565b61082791906115a4565b9050600760009054906101000a900473ffffffffffffffffffffffffffffffffffffffff1673ffffffffffffffffffffffffffffffffffffffff166108fc829081150290604051600060405180830381858888f19350505050158015610891573d6000803e3d6000fd5b5050505b6000600160009054906101000a900473ffffffffffffffffffffffffffffffffffffffff1690508073ffffffffffffffffffffffffffffffffffffffff166323b872dd3060008054906101000a900473ffffffffffffffffffffffffffffffffffffffff166002546040518463ffffffff1660e01b815260040161091b939291906115d8565b600060405180830381600087803b15801561093557600080fd5b505af1158015610949573d6000803e3d6000fd5b5050505061095561108c565b60008054906101000a900473ffffffffffffffffffffffffffffffffffffffff1673ffffffffffffffffffffffffffffffffffffffff16ff5b8060035461099c9190611562565b34146109dd576040517f08c379a00000000000000000000000000000000000000000000000000000000081526004016109d4906116a7565b60405180910390fd5b60065462015180826109ef9190611562565b426109fa91906115a4565b10610a3a576040517f08c379a0000000000000000000000000000000000000000000000000000000008152600401610a3190611739565b60405180910390fd5b6008544211610a7e576040517f08c379a0000000000000000000000000000000000000000000000000000000008152600401610a75906117cb565b60405180910390fd5b610a8661057b565b33600760006101000a81548173ffffffffffffffffffffffffffffffffffffffff021916908373ffffffffffffffffffffffffffffffffffffffff1602179055506201518081610ad69190611562565b42610ae191906115a4565b60088190555050565b600760009054906101000a900473ffffffffffffffffffffffffffffffffffffffff1673ffffffffffffffffffffffffffffffffffffffff163373ffffffffffffffffffffffffffffffffffffffff1614610b7a576040517f08c379a0000000000000000000000000000000000000000000000000000000008152600401610b719061185d565b60405180910390fd5b6008544210610bbe576040517f08c379a0000000000000000000000000000000000000000000000000000000008152600401610bb5906118c9565b60405180910390fd5b6008544210610c02576040517f08c379a0000000000000000000000000000000000000000000000000000000008152600401610bf99061195b565b60405180910390fd5b60006201518042600854610c1691906114ce565b610c209190611531565b90506000606460055460035484610c379190611562565b610c419190611562565b610c4b9190611531565b905060008183600354610c5e9190611562565b610c6891906114ce565b1115610cf057600760009054906101000a900473ffffffffffffffffffffffffffffffffffffffff1673ffffffffffffffffffffffffffffffffffffffff166108fc8284600354610cb99190611562565b610cc391906114ce565b9081150290604051600060405180830381858888f19350505050158015610cee573d6000803e3d6000fd5b505b610cf861057b565b6000600760006101000a81548173ffffffffffffffffffffffffffffffffffffffff021916908373ffffffffffffffffffffffffffffffffffffffff16021790555060006008819055505050565b600760009054906101000a900473ffffffffffffffffffffffffffffffffffffffff1681565b6000600854421115610d815760009050610da7565b600760009054906101000a900473ffffffffffffffffffffffffffffffffffffffff1690505b90565b600960009054906101000a900473ffffffffffffffffffffffffffffffffffffffff1673ffffffffffffffffffffffffffffffffffffffff163373ffffffffffffffffffffffffffffffffffffffff1614610e3a576040517f08c379a0000000000000000000000000000000000000000000000000000000008152600401610e31906119ed565b60405180910390fd5b80600a8190555050565b60065481565b600960009054906101000a900473ffffffffffffffffffffffffffffffffffffffff1673ffffffffffffffffffffffffffffffffffffffff163373ffffffffffffffffffffffffffffffffffffffff1614610eda576040517f08c379a0000000000000000000000000000000000000000000000000000000008152600401610ed1906119ed565b60405180910390fd5b80600960006101000a81548173ffffffffffffffffffffffffffffffffffffffff021916908373ffffffffffffffffffffffffffffffffffffffff16021790555050565b600a5481565b60008054906101000a900473ffffffffffffffffffffffffffffffffffffffff1673ffffffffffffffffffffffffffffffffffffffff163373ffffffffffffffffffffffffffffffffffffffff1614610fb2576040517f08c379a0000000000000000000000000000000000000000000000000000000008152600401610fa990611335565b60405180910390fd5b8060038190555050565b600960009054906101000a900473ffffffffffffffffffffffffffffffffffffffff1681565b60025481565b60008054906101000a900473ffffffffffffffffffffffffffffffffffffffff1673ffffffffffffffffffffffffffffffffffffffff163373ffffffffffffffffffffffffffffffffffffffff1614611076576040517f08c379a000000000000000000000000000000000000000000000000000000000815260040161106d90611335565b60405180910390fd5b8060048190555050565b60055481565b60035481565b66b1a2bc2ec5000047116110d5576040517f08c379a00000000000000000000000000000000000000000000000000000000081526004016110cc9061147f565b60405180910390fd5b600960009054906101000a900473ffffffffffffffffffffffffffffffffffffffff1673ffffffffffffffffffffffffffffffffffffffff166108fc6064600a5466b1a2bc2ec500004761112991906114ce565b6111339190611562565b61113d9190611531565b9081150290604051600060405180830381858888f19350505050158015611168573d6000803e3d6000fd5b50565b6000819050919050565b61117e8161116b565b82525050565b60006020820190506111996000830184611175565b92915050565b600080fd5b6111ad8161116b565b81146111b857600080fd5b50565b6000813590506111ca816111a4565b92915050565b6000602082840312156111e6576111e561119f565b5b60006111f4848285016111bb565b91505092915050565b600073ffffffffffffffffffffffffffffffffffffffff82169050919050565b6000611228826111fd565b9050919050565b6112388161121d565b82525050565b6000602082019050611253600083018461122f565b92915050565b6112628161121d565b811461126d57600080fd5b50565b60008135905061127f81611259565b92915050565b60006020828403121561129b5761129a61119f565b5b60006112a984828501611270565b91505092915050565b600082825260208201905092915050565b7f4f6e6c7920746865204e4654206f776e65722063616e2063616c6c207468697360008201527f2066756e6374696f6e0000000000000000000000000000000000000000000000602082015250565b600061131f6029836112b2565b915061132a826112c3565b604082019050919050565b6000602082019050818103600083015261134e81611312565b9050919050565b7f5468652065787069726174696f6e2064617465206d75737420626520696e207460008201527f6865206675747572650000000000000000000000000000000000000000000000602082015250565b60006113b16029836112b2565b91506113bc82611355565b604082019050919050565b600060208201905081810360008301526113e0816113a4565b9050919050565b7f4174206c6561737420302e303520455448206d7573742072656d61696e20696e60008201527f2074686520636f6e747261637420746f2070617920706f74656e7469616c206760208201527f6173206665657300000000000000000000000000000000000000000000000000604082015250565b60006114696047836112b2565b9150611474826113e7565b606082019050919050565b600060208201905081810360008301526114988161145c565b9050919050565b7f4e487b7100000000000000000000000000000000000000000000000000000000600052601160045260246000fd5b60006114d98261116b565b91506114e48361116b565b92508282039050818111156114fc576114fb61149f565b5b92915050565b7f4e487b7100000000000000000000000000000000000000000000000000000000600052601260045260246000fd5b600061153c8261116b565b91506115478361116b565b92508261155757611556611502565b5b828204905092915050565b600061156d8261116b565b91506115788361116b565b92508282026115868161116b565b9150828204841483151761159d5761159c61149f565b5b5092915050565b60006115af8261116b565b91506115ba8361116b565b92508282019050808211156115d2576115d161149f565b5b92915050565b60006060820190506115ed600083018661122f565b6115fa602083018561122f565b6116076040830184611175565b949350505050565b7f596f75206d75737420706179207468652070726963652070657220646179207460008201527f696d657320746865206e756d626572206f66206461797320796f752077616e7460208201527f20746f2072656e7420666f720000000000000000000000000000000000000000604082015250565b6000611691604c836112b2565b915061169c8261160f565b606082019050919050565b600060208201905081810360008301526116c081611684565b9050919050565b7f5468697320636f6e74726163742077696c6c20657870697265206265666f726560008201527f20796f75722072656e74616c20656e6473000000000000000000000000000000602082015250565b60006117236031836112b2565b915061172e826116c7565b604082019050919050565b6000602082019050818103600083015261175281611716565b9050919050565b7f5468697320636f6e74726163742069732063757272656e746c792072656e746560008201527f6400000000000000000000000000000000000000000000000000000000000000602082015250565b60006117b56021836112b2565b91506117c082611759565b604082019050919050565b600060208201905081810360008301526117e4816117a8565b9050919050565b7f4f6e6c79207468652076616c69642063757272656e742072656e74657220636160008201527f6e2063616c6c20746869732066756e6374696f6e000000000000000000000000602082015250565b60006118476034836112b2565b9150611852826117eb565b604082019050919050565b600060208201905081810360008301526118768161183a565b9050919050565b7f5468652072656e74616c20706572696f642068617320656e6465640000000000600082015250565b60006118b3601b836112b2565b91506118be8261187d565b602082019050919050565b600060208201905081810360008301526118e2816118a6565b9050919050565b7f596f75206861766520616c7265616479207061696420666f722074686520667560008201527f6c6c2072656e74616c20706572696f6400000000000000000000000000000000602082015250565b60006119456030836112b2565b9150611950826118e9565b604082019050919050565b6000602082019050818103600083015261197481611938565b9050919050565b7f4f6e6c79207468652066656520636f6c6c6563746f722063616e2063616c6c2060008201527f746869732066756e6374696f6e00000000000000000000000000000000000000602082015250565b60006119d7602d836112b2565b91506119e28261197b565b604082019050919050565b60006020820190508181036000830152611a06816119ca565b905091905056fea26469706673582212203b7721293cc03107d54756b7fd1303700d7e569e470aa18c7ef3b7d81880546c64736f6c63430008110033",
  "linkReferences": {},
  "deployedLinkReferences": {}
}