{
  "_format": "hh-sol-artifact-1",
  "contractName": "RentHolder",
  "sourceName": "contracts/RentHolder.sol",
  "abi": [
    {
      "inputs": [
        {
          "internalType": "address",
          "name": "_nftAddress",
          "type": "address"
        },
        {
          "internalType": "uint256",
          "name": "_nftID",
          "type": "uint256"
        },
        {
          "internalType": "uint256",
          "name": "_pricePerDay",
          "type": "uint256"
        },
        {
          "internalType": "uint256",
          "name": "_ownerPenalty",
          "type": "uint256"
        },
        {
          "internalType": "uint256",
          "name": "_renterPenalty",
          "type": "uint256"
        },
        {
          "internalType": "uint256",
          "name": "_expirationDate",
          "type": "uint256"
        }
      ],
      "stateMutability": "payable",
      "type": "constructor"
    },
    {
      "inputs": [
        {
          "internalType": "uint256",
          "name": "_newExpirationDate",
          "type": "uint256"
        }
      ],
      "name": "changeExpirationDate",
      "outputs": [],
      "stateMutability": "nonpayable",
      "type": "function"
    },
    {
      "inputs": [
        {
          "internalType": "address",
          "name": "_newFeeCollector",
          "type": "address"
        }
      ],
      "name": "changeFeeCollector",
      "outputs": [],
      "stateMutability": "nonpayable",
      "type": "function"
    },
    {
      "inputs": [
        {
          "internalType": "uint256",
          "name": "_newFeeValue",
          "type": "uint256"
        }
      ],
      "name": "changeFeeValue",
      "outputs": [],
      "stateMutability": "nonpayable",
      "type": "function"
    },
    {
      "inputs": [
        {
          "internalType": "uint256",
          "name": "_newOwnerPenalty",
          "type": "uint256"
        }
      ],
      "name": "changeOwnerPenalty",
      "outputs": [],
      "stateMutability": "nonpayable",
      "type": "function"
    },
    {
      "inputs": [
        {
          "internalType": "uint256",
          "name": "_newPricePerDay",
          "type": "uint256"
        }
      ],
      "name": "changePricePerDay",
      "outputs": [],
      "stateMutability": "nonpayable",
      "type": "function"
    },
    {
      "inputs": [
        {
          "internalType": "uint256",
          "name": "_newRenterPenalty",
          "type": "uint256"
        }
      ],
      "name": "changeRenterPenalty",
      "outputs": [],
      "stateMutability": "nonpayable",
      "type": "function"
    },
    {
      "inputs": [],
      "name": "currRentEndDate",
      "outputs": [
        {
          "internalType": "uint256",
          "name": "",
          "type": "uint256"
        }
      ],
      "stateMutability": "view",
      "type": "function"
    },
    {
      "inputs": [],
      "name": "currRenter",
      "outputs": [
        {
          "internalType": "address",
          "name": "",
          "type": "address"
        }
      ],
      "stateMutability": "view",
      "type": "function"
    },
    {
      "inputs": [],
      "name": "expirationDate",
      "outputs": [
        {
          "internalType": "uint256",
          "name": "",
          "type": "uint256"
        }
      ],
      "stateMutability": "view",
      "type": "function"
    },
    {
      "inputs": [],
      "name": "feeCollector",
      "outputs": [
        {
          "internalType": "address",
          "name": "",
          "type": "address"
        }
      ],
      "stateMutability": "view",
      "type": "function"
    },
    {
      "inputs": [],
      "name": "feeValue",
      "outputs": [
        {
          "internalType": "uint256",
          "name": "",
          "type": "uint256"
        }
      ],
      "stateMutability": "view",
      "type": "function"
    },
    {
      "inputs": [],
      "name": "getRenter",
      "outputs": [
        {
          "internalType": "address",
          "name": "",
          "type": "address"
        }
      ],
      "stateMutability": "view",
      "type": "function"
    },
    {
      "inputs": [],
      "name": "nftAddress",
      "outputs": [
        {
          "internalType": "address",
          "name": "",
          "type": "address"
        }
      ],
      "stateMutability": "view",
      "type": "function"
    },
    {
      "inputs": [],
      "name": "nftId",
      "outputs": [
        {
          "internalType": "uint256",
          "name": "",
          "type": "uint256"
        }
      ],
      "stateMutability": "view",
      "type": "function"
    },
    {
      "inputs": [],
      "name": "nftOwner",
      "outputs": [
        {
          "internalType": "address",
          "name": "",
          "type": "address"
        }
      ],
      "stateMutability": "view",
      "type": "function"
    },
    {
      "inputs": [],
      "name": "ownerPenalty",
      "outputs": [
        {
          "internalType": "uint256",
          "name": "",
          "type": "uint256"
        }
      ],
      "stateMutability": "view",
      "type": "function"
    },
    {
      "inputs": [],
      "name": "pricePerDay",
      "outputs": [
        {
          "internalType": "uint256",
          "name": "",
          "type": "uint256"
        }
      ],
      "stateMutability": "view",
      "type": "function"
    },
    {
      "inputs": [
        {
          "internalType": "uint256",
          "name": "_days",
          "type": "uint256"
        }
      ],
      "name": "rent",
      "outputs": [],
      "stateMutability": "payable",
      "type": "function"
    },
    {
      "inputs": [],
      "name": "renterPenalty",
      "outputs": [
        {
          "internalType": "uint256",
          "name": "",
          "type": "uint256"
        }
      ],
      "stateMutability": "view",
      "type": "function"
    },
    {
      "inputs": [],
      "name": "returnRentInfo",
      "outputs": [
        {
          "components": [
            {
              "internalType": "address",
              "name": "rentHolderSC",
              "type": "address"
            },
            {
              "internalType": "address",
              "name": "nftOwner",
              "type": "address"
            },
            {
              "internalType": "address",
              "name": "nftAddress",
              "type": "address"
            },
            {
              "internalType": "uint256",
              "name": "nftId",
              "type": "uint256"
            },
            {
              "internalType": "uint256",
              "name": "pricePerDay",
              "type": "uint256"
            },
            {
              "internalType": "uint256",
              "name": "ownerPenalty",
              "type": "uint256"
            },
            {
              "internalType": "uint256",
              "name": "renterPenalty",
              "type": "uint256"
            },
            {
              "internalType": "uint256",
              "name": "expirationDate",
              "type": "uint256"
            },
            {
              "internalType": "address",
              "name": "currRenter",
              "type": "address"
            },
            {
              "internalType": "uint256",
              "name": "currRentEndDate",
              "type": "uint256"
            }
          ],
          "internalType": "struct RentHolder.relevantRentInfo",
          "name": "",
          "type": "tuple"
        }
      ],
      "stateMutability": "view",
      "type": "function"
    },
    {
      "inputs": [],
      "name": "stopRentEarly",
      "outputs": [],
      "stateMutability": "nonpayable",
      "type": "function"
    },
    {
      "inputs": [],
      "name": "transferNFT",
      "outputs": [],
      "stateMutability": "nonpayable",
      "type": "function"
    },
    {
      "inputs": [],
      "name": "withdrawFunds",
      "outputs": [],
      "stateMutability": "nonpayable",
      "type": "function"
    },
    {
      "inputs": [],
      "name": "withdrawNFT",
      "outputs": [],
      "stateMutability": "nonpayable",
      "type": "function"
    },
    {
      "stateMutability": "payable",
      "type": "receive"
    }
  ],
  "bytecode": "0x608060405273e2c36ed0dfb0b0abfdb92d500adcf4ffe81523b5600960006101000a81548173ffffffffffffffffffffffffffffffffffffffff021916908373ffffffffffffffffffffffffffffffffffffffff1602179055506001600a5573c6166805035caf58523f2e62a6e8d9469ef70064600b60006101000a81548173ffffffffffffffffffffffffffffffffffffffff021916908373ffffffffffffffffffffffffffffffffffffffff160217905550604051620023af380380620023af8339818101604052810190620000d89190620002bf565b66b1a2bc2ec5000034101562000125576040517f08c379a00000000000000000000000000000000000000000000000000000000081526004016200011c90620003e2565b60405180910390fd5b8042106200016a576040517f08c379a000000000000000000000000000000000000000000000000000000000815260040162000161906200047a565b60405180910390fd5b336000806101000a81548173ffffffffffffffffffffffffffffffffffffffff021916908373ffffffffffffffffffffffffffffffffffffffff16021790555085600160006101000a81548173ffffffffffffffffffffffffffffffffffffffff021916908373ffffffffffffffffffffffffffffffffffffffff16021790555084600281905550836003819055508260048190555081600581905550806006819055505050505050506200049c565b600080fd5b600073ffffffffffffffffffffffffffffffffffffffff82169050919050565b60006200024c826200021f565b9050919050565b6200025e816200023f565b81146200026a57600080fd5b50565b6000815190506200027e8162000253565b92915050565b6000819050919050565b620002998162000284565b8114620002a557600080fd5b50565b600081519050620002b9816200028e565b92915050565b60008060008060008060c08789031215620002df57620002de6200021a565b5b6000620002ef89828a016200026d565b96505060206200030289828a01620002a8565b95505060406200031589828a01620002a8565b94505060606200032889828a01620002a8565b93505060806200033b89828a01620002a8565b92505060a06200034e89828a01620002a8565b9150509295509295509295565b600082825260208201905092915050565b7f596f75206d75737420706179206174206c6561737420302e303520455448207460008201527f6f2070617920706f74656e7469616c2067617320666565730000000000000000602082015250565b6000620003ca6038836200035b565b9150620003d7826200036c565b604082019050919050565b60006020820190508181036000830152620003fd81620003bb565b9050919050565b7f5468652065787069726174696f6e2064617465206d75737420626520696e207460008201527f6865206675747572650000000000000000000000000000000000000000000000602082015250565b6000620004626029836200035b565b91506200046f8262000404565b604082019050919050565b60006020820190508181036000830152620004958162000453565b9050919050565b611f0380620004ac6000396000f3fe60806040526004361061014f5760003560e01c80637fa7963d116100b6578063c415b95c1161006f578063c415b95c146103f8578063c6bc518214610423578063ea3a2aec1461044e578063ecd06cf914610479578063fc828b67146104a2578063fd2b9cf1146104cd57610156565b80637fa7963d146103105780638f620487146103395780639245290d146103645780639fddaa931461038d578063a245dc93146103b8578063a4fa3734146103e157610156565b80635bf8633a116101085780635bf8633a146102455780635e38c954146102705780637456be7d14610287578063759624fc146102a35780637633c62b146102ba5780637f6ae770146102e557610156565b80630f1c31951461015b5780631337f243146101865780631f9c8d79146101b157806324600fc3146101da57806337935293146101f15780634c39a7491461021a57610156565b3661015657005b600080fd5b34801561016757600080fd5b506101706104f8565b60405161017d919061153e565b60405180910390f35b34801561019257600080fd5b5061019b6104fe565b6040516101a8919061153e565b60405180910390f35b3480156101bd57600080fd5b506101d860048036038101906101d3919061158a565b610504565b005b3480156101e657600080fd5b506101ef6105de565b005b3480156101fd57600080fd5b506102186004803603810190610213919061158a565b6106aa565b005b34801561022657600080fd5b5061022f610742565b60405161023c91906115f8565b60405180910390f35b34801561025157600080fd5b5061025a610766565b60405161026791906115f8565b60405180910390f35b34801561027c57600080fd5b5061028561078c565b005b6102a1600480360381019061029c919061158a565b610a78565b005b3480156102af57600080fd5b506102b8610bd4565b005b3480156102c657600080fd5b506102cf610e30565b6040516102dc91906115f8565b60405180910390f35b3480156102f157600080fd5b506102fa610e56565b60405161030791906115f8565b60405180910390f35b34801561031c57600080fd5b506103376004803603810190610332919061158a565b610e94565b005b34801561034557600080fd5b5061034e610f2e565b60405161035b919061153e565b60405180910390f35b34801561037057600080fd5b5061038b6004803603810190610386919061163f565b610f34565b005b34801561039957600080fd5b506103a2611008565b6040516103af919061153e565b60405180910390f35b3480156103c457600080fd5b506103df60048036038101906103da919061158a565b61100e565b005b3480156103ed57600080fd5b506103f66110a6565b005b34801561040457600080fd5b5061040d6111e9565b60405161041a91906115f8565b60405180910390f35b34801561042f57600080fd5b5061043861120f565b604051610445919061153e565b60405180910390f35b34801561045a57600080fd5b50610463611215565b6040516104709190611756565b60405180910390f35b34801561048557600080fd5b506104a0600480360381019061049b919061158a565b611330565b005b3480156104ae57600080fd5b506104b76113c8565b6040516104c4919061153e565b60405180910390f35b3480156104d957600080fd5b506104e26113ce565b6040516104ef919061153e565b60405180910390f35b60085481565b60045481565b60008054906101000a900473ffffffffffffffffffffffffffffffffffffffff1673ffffffffffffffffffffffffffffffffffffffff163373ffffffffffffffffffffffffffffffffffffffff1614610592576040517f08c379a0000000000000000000000000000000000000000000000000000000008152600401610589906117f5565b60405180910390fd5b8042106105d4576040517f08c379a00000000000000000000000000000000000000000000000000000000081526004016105cb90611887565b60405180910390fd5b8060068190555050565b66b1a2bc2ec500004711610627576040517f08c379a000000000000000000000000000000000000000000000000000000000815260040161061e9061193f565b60405180910390fd5b61062f6113d4565b60008054906101000a900473ffffffffffffffffffffffffffffffffffffffff1673ffffffffffffffffffffffffffffffffffffffff166108fc66b1a2bc2ec500004761067c919061198e565b9081150290604051600060405180830381858888f193505050501580156106a7573d6000803e3d6000fd5b50565b60008054906101000a900473ffffffffffffffffffffffffffffffffffffffff1673ffffffffffffffffffffffffffffffffffffffff163373ffffffffffffffffffffffffffffffffffffffff1614610738576040517f08c379a000000000000000000000000000000000000000000000000000000000815260040161072f906117f5565b60405180910390fd5b8060058190555050565b60008054906101000a900473ffffffffffffffffffffffffffffffffffffffff1681565b600160009054906101000a900473ffffffffffffffffffffffffffffffffffffffff1681565b60008054906101000a900473ffffffffffffffffffffffffffffffffffffffff1673ffffffffffffffffffffffffffffffffffffffff163373ffffffffffffffffffffffffffffffffffffffff161461081a576040517f08c379a0000000000000000000000000000000000000000000000000000000008152600401610811906117f5565b60405180910390fd5b6008544210156108f85760006201518042600854610838919061198e565b61084291906119f1565b90506000606460045466b1a2bc2ec500004761085e919061198e565b6108689190611a22565b61087291906119f1565b600354836108809190611a22565b61088a9190611a64565b9050600760009054906101000a900473ffffffffffffffffffffffffffffffffffffffff1673ffffffffffffffffffffffffffffffffffffffff166108fc829081150290604051600060405180830381858888f193505050501580156108f4573d6000803e3d6000fd5b5050505b6000600160009054906101000a900473ffffffffffffffffffffffffffffffffffffffff1690508073ffffffffffffffffffffffffffffffffffffffff166323b872dd3060008054906101000a900473ffffffffffffffffffffffffffffffffffffffff166002546040518463ffffffff1660e01b815260040161097e93929190611a98565b600060405180830381600087803b15801561099857600080fd5b505af11580156109ac573d6000803e3d6000fd5b505050506109b86113d4565b6000600b60009054906101000a900473ffffffffffffffffffffffffffffffffffffffff1690508073ffffffffffffffffffffffffffffffffffffffff1663d2ff76646040518163ffffffff1660e01b8152600401600060405180830381600087803b158015610a2757600080fd5b505af1158015610a3b573d6000803e3d6000fd5b5050505060008054906101000a900473ffffffffffffffffffffffffffffffffffffffff1673ffffffffffffffffffffffffffffffffffffffff16ff5b80600354610a869190611a22565b3414610ac7576040517f08c379a0000000000000000000000000000000000000000000000000000000008152600401610abe90611b67565b60405180910390fd5b6006546201518082610ad99190611a22565b42610ae49190611a64565b10610b24576040517f08c379a0000000000000000000000000000000000000000000000000000000008152600401610b1b90611bf9565b60405180910390fd5b6008544211610b68576040517f08c379a0000000000000000000000000000000000000000000000000000000008152600401610b5f90611c8b565b60405180910390fd5b610b706105de565b33600760006101000a81548173ffffffffffffffffffffffffffffffffffffffff021916908373ffffffffffffffffffffffffffffffffffffffff1602179055506201518081610bc09190611a22565b42610bcb9190611a64565b60088190555050565b600760009054906101000a900473ffffffffffffffffffffffffffffffffffffffff1673ffffffffffffffffffffffffffffffffffffffff163373ffffffffffffffffffffffffffffffffffffffff1614610c64576040517f08c379a0000000000000000000000000000000000000000000000000000000008152600401610c5b90611d1d565b60405180910390fd5b6008544210610ca8576040517f08c379a0000000000000000000000000000000000000000000000000000000008152600401610c9f90611d89565b60405180910390fd5b6008544210610cec576040517f08c379a0000000000000000000000000000000000000000000000000000000008152600401610ce390611e1b565b60405180910390fd5b60006201518042600854610d00919061198e565b610d0a91906119f1565b90506000606460055460035484610d219190611a22565b610d2b9190611a22565b610d3591906119f1565b905060008183600354610d489190611a22565b610d52919061198e565b1115610dda57600760009054906101000a900473ffffffffffffffffffffffffffffffffffffffff1673ffffffffffffffffffffffffffffffffffffffff166108fc8284600354610da39190611a22565b610dad919061198e565b9081150290604051600060405180830381858888f19350505050158015610dd8573d6000803e3d6000fd5b505b610de26105de565b6000600760006101000a81548173ffffffffffffffffffffffffffffffffffffffff021916908373ffffffffffffffffffffffffffffffffffffffff16021790555060006008819055505050565b600760009054906101000a900473ffffffffffffffffffffffffffffffffffffffff1681565b6000600854421115610e6b5760009050610e91565b600760009054906101000a900473ffffffffffffffffffffffffffffffffffffffff1690505b90565b600960009054906101000a900473ffffffffffffffffffffffffffffffffffffffff1673ffffffffffffffffffffffffffffffffffffffff163373ffffffffffffffffffffffffffffffffffffffff1614610f24576040517f08c379a0000000000000000000000000000000000000000000000000000000008152600401610f1b90611ead565b60405180910390fd5b80600a8190555050565b60065481565b600960009054906101000a900473ffffffffffffffffffffffffffffffffffffffff1673ffffffffffffffffffffffffffffffffffffffff163373ffffffffffffffffffffffffffffffffffffffff1614610fc4576040517f08c379a0000000000000000000000000000000000000000000000000000000008152600401610fbb90611ead565b60405180910390fd5b80600960006101000a81548173ffffffffffffffffffffffffffffffffffffffff021916908373ffffffffffffffffffffffffffffffffffffffff16021790555050565b600a5481565b60008054906101000a900473ffffffffffffffffffffffffffffffffffffffff1673ffffffffffffffffffffffffffffffffffffffff163373ffffffffffffffffffffffffffffffffffffffff161461109c576040517f08c379a0000000000000000000000000000000000000000000000000000000008152600401611093906117f5565b60405180910390fd5b8060038190555050565b6000600160009054906101000a900473ffffffffffffffffffffffffffffffffffffffff1690508073ffffffffffffffffffffffffffffffffffffffff166323b872dd60008054906101000a900473ffffffffffffffffffffffffffffffffffffffff16306002546040518463ffffffff1660e01b815260040161112c93929190611a98565b600060405180830381600087803b15801561114657600080fd5b505af115801561115a573d6000803e3d6000fd5b505050506000600b60009054906101000a900473ffffffffffffffffffffffffffffffffffffffff1690508073ffffffffffffffffffffffffffffffffffffffff1663edfa22566040518163ffffffff1660e01b8152600401600060405180830381600087803b1580156111cd57600080fd5b505af11580156111e1573d6000803e3d6000fd5b505050505050565b600960009054906101000a900473ffffffffffffffffffffffffffffffffffffffff1681565b60025481565b61121d61147a565b6040518061014001604052803073ffffffffffffffffffffffffffffffffffffffff16815260200160008054906101000a900473ffffffffffffffffffffffffffffffffffffffff1673ffffffffffffffffffffffffffffffffffffffff168152602001600160009054906101000a900473ffffffffffffffffffffffffffffffffffffffff1673ffffffffffffffffffffffffffffffffffffffff16815260200160025481526020016003548152602001600454815260200160055481526020016006548152602001600760009054906101000a900473ffffffffffffffffffffffffffffffffffffffff1673ffffffffffffffffffffffffffffffffffffffff168152602001600854815250905090565b60008054906101000a900473ffffffffffffffffffffffffffffffffffffffff1673ffffffffffffffffffffffffffffffffffffffff163373ffffffffffffffffffffffffffffffffffffffff16146113be576040517f08c379a00000000000000000000000000000000000000000000000000000000081526004016113b5906117f5565b60405180910390fd5b8060048190555050565b60055481565b60035481565b66b1a2bc2ec5000047111561147857600960009054906101000a900473ffffffffffffffffffffffffffffffffffffffff1673ffffffffffffffffffffffffffffffffffffffff166108fc6064600a5466b1a2bc2ec5000047611437919061198e565b6114419190611a22565b61144b91906119f1565b9081150290604051600060405180830381858888f19350505050158015611476573d6000803e3d6000fd5b505b565b604051806101400160405280600073ffffffffffffffffffffffffffffffffffffffff168152602001600073ffffffffffffffffffffffffffffffffffffffff168152602001600073ffffffffffffffffffffffffffffffffffffffff1681526020016000815260200160008152602001600081526020016000815260200160008152602001600073ffffffffffffffffffffffffffffffffffffffff168152602001600081525090565b6000819050919050565b61153881611525565b82525050565b6000602082019050611553600083018461152f565b92915050565b600080fd5b61156781611525565b811461157257600080fd5b50565b6000813590506115848161155e565b92915050565b6000602082840312156115a05761159f611559565b5b60006115ae84828501611575565b91505092915050565b600073ffffffffffffffffffffffffffffffffffffffff82169050919050565b60006115e2826115b7565b9050919050565b6115f2816115d7565b82525050565b600060208201905061160d60008301846115e9565b92915050565b61161c816115d7565b811461162757600080fd5b50565b60008135905061163981611613565b92915050565b60006020828403121561165557611654611559565b5b60006116638482850161162a565b91505092915050565b611675816115d7565b82525050565b61168481611525565b82525050565b610140820160008201516116a1600085018261166c565b5060208201516116b4602085018261166c565b5060408201516116c7604085018261166c565b5060608201516116da606085018261167b565b5060808201516116ed608085018261167b565b5060a082015161170060a085018261167b565b5060c082015161171360c085018261167b565b5060e082015161172660e085018261167b565b5061010082015161173b61010085018261166c565b5061012082015161175061012085018261167b565b50505050565b60006101408201905061176c600083018461168a565b92915050565b600082825260208201905092915050565b7f4f6e6c7920746865204e4654206f776e65722063616e2063616c6c207468697360008201527f2066756e6374696f6e0000000000000000000000000000000000000000000000602082015250565b60006117df602983611772565b91506117ea82611783565b604082019050919050565b6000602082019050818103600083015261180e816117d2565b9050919050565b7f5468652065787069726174696f6e2064617465206d75737420626520696e207460008201527f6865206675747572650000000000000000000000000000000000000000000000602082015250565b6000611871602983611772565b915061187c82611815565b604082019050919050565b600060208201905081810360008301526118a081611864565b9050919050565b7f4174206c6561737420302e303520455448206d7573742072656d61696e20696e60008201527f2074686520636f6e747261637420746f2070617920706f74656e7469616c206760208201527f6173206665657300000000000000000000000000000000000000000000000000604082015250565b6000611929604783611772565b9150611934826118a7565b606082019050919050565b600060208201905081810360008301526119588161191c565b9050919050565b7f4e487b7100000000000000000000000000000000000000000000000000000000600052601160045260246000fd5b600061199982611525565b91506119a483611525565b92508282039050818111156119bc576119bb61195f565b5b92915050565b7f4e487b7100000000000000000000000000000000000000000000000000000000600052601260045260246000fd5b60006119fc82611525565b9150611a0783611525565b925082611a1757611a166119c2565b5b828204905092915050565b6000611a2d82611525565b9150611a3883611525565b9250828202611a4681611525565b91508282048414831517611a5d57611a5c61195f565b5b5092915050565b6000611a6f82611525565b9150611a7a83611525565b9250828201905080821115611a9257611a9161195f565b5b92915050565b6000606082019050611aad60008301866115e9565b611aba60208301856115e9565b611ac7604083018461152f565b949350505050565b7f596f75206d75737420706179207468652070726963652070657220646179207460008201527f696d657320746865206e756d626572206f66206461797320796f752077616e7460208201527f20746f2072656e7420666f720000000000000000000000000000000000000000604082015250565b6000611b51604c83611772565b9150611b5c82611acf565b606082019050919050565b60006020820190508181036000830152611b8081611b44565b9050919050565b7f5468697320636f6e74726163742077696c6c20657870697265206265666f726560008201527f20796f75722072656e74616c20656e6473000000000000000000000000000000602082015250565b6000611be3603183611772565b9150611bee82611b87565b604082019050919050565b60006020820190508181036000830152611c1281611bd6565b9050919050565b7f5468697320636f6e74726163742069732063757272656e746c792072656e746560008201527f6400000000000000000000000000000000000000000000000000000000000000602082015250565b6000611c75602183611772565b9150611c8082611c19565b604082019050919050565b60006020820190508181036000830152611ca481611c68565b9050919050565b7f4f6e6c79207468652076616c69642063757272656e742072656e74657220636160008201527f6e2063616c6c20746869732066756e6374696f6e000000000000000000000000602082015250565b6000611d07603483611772565b9150611d1282611cab565b604082019050919050565b60006020820190508181036000830152611d3681611cfa565b9050919050565b7f5468652072656e74616c20706572696f642068617320656e6465640000000000600082015250565b6000611d73601b83611772565b9150611d7e82611d3d565b602082019050919050565b60006020820190508181036000830152611da281611d66565b9050919050565b7f596f75206861766520616c7265616479207061696420666f722074686520667560008201527f6c6c2072656e74616c20706572696f6400000000000000000000000000000000602082015250565b6000611e05603083611772565b9150611e1082611da9565b604082019050919050565b60006020820190508181036000830152611e3481611df8565b9050919050565b7f4f6e6c79207468652066656520636f6c6c6563746f722063616e2063616c6c2060008201527f746869732066756e6374696f6e00000000000000000000000000000000000000602082015250565b6000611e97602d83611772565b9150611ea282611e3b565b604082019050919050565b60006020820190508181036000830152611ec681611e8a565b905091905056fea2646970667358221220790fb8cb85faeccc7ab6937e32114d0b3548e7722ccddd74f76a1dee2107d30b64736f6c63430008110033",
  "linkReferences": {},
  "deployedLinkReferences": {}
}