{
  "_format": "hh-sol-artifact-1",
  "contractName": "MarketplaceTracker",
  "sourceName": "contracts/MarketplaceTracker.sol",
  "abi": [
    {
      "inputs": [],
      "name": "addRentSC",
      "outputs": [],
      "stateMutability": "nonpayable",
      "type": "function"
    },
    {
      "inputs": [],
      "name": "getRentSCs",
      "outputs": [
        {
          "components": [
            {
              "internalType": "address",
              "name": "rentHolderSC",
              "type": "address"
            },
            {
              "internalType": "address",
              "name": "nftOwner",
              "type": "address"
            },
            {
              "internalType": "address",
              "name": "nftAddress",
              "type": "address"
            },
            {
              "internalType": "uint256",
              "name": "nftId",
              "type": "uint256"
            },
            {
              "internalType": "uint256",
              "name": "pricePerDay",
              "type": "uint256"
            },
            {
              "internalType": "uint256",
              "name": "ownerPenalty",
              "type": "uint256"
            },
            {
              "internalType": "uint256",
              "name": "renterPenalty",
              "type": "uint256"
            },
            {
              "internalType": "uint256",
              "name": "expirationDate",
              "type": "uint256"
            },
            {
              "internalType": "address",
              "name": "currRenter",
              "type": "address"
            },
            {
              "internalType": "uint256",
              "name": "currRentEndDate",
              "type": "uint256"
            }
          ],
          "internalType": "struct IRentHolder.relevantRentInfo[]",
          "name": "",
          "type": "tuple[]"
        }
      ],
      "stateMutability": "view",
      "type": "function"
    },
    {
      "inputs": [],
      "name": "removeRentSC",
      "outputs": [],
      "stateMutability": "nonpayable",
      "type": "function"
    },
    {
      "inputs": [
        {
          "internalType": "uint256",
          "name": "",
          "type": "uint256"
        }
      ],
      "name": "rentSCs",
      "outputs": [
        {
          "internalType": "address",
          "name": "",
          "type": "address"
        }
      ],
      "stateMutability": "view",
      "type": "function"
    }
  ],
  "bytecode": "0x608060405234801561001057600080fd5b50610aaa806100206000396000f3fe608060405234801561001057600080fd5b506004361061004c5760003560e01c80633c39206814610051578063d2ff766414610081578063d93151021461008b578063edfa2256146100a9575b600080fd5b61006b60048036038101906100669190610530565b6100b3565b604051610078919061059e565b60405180910390f35b6100896100f2565b005b610093610281565b6040516100a09190610753565b60405180910390f35b6100b16103db565b005b600081815481106100c357600080fd5b906000526020600020016000915054906101000a900473ffffffffffffffffffffffffffffffffffffffff1681565b60005b60008054905081101561027e573373ffffffffffffffffffffffffffffffffffffffff166000828154811061012d5761012c610775565b5b9060005260206000200160009054906101000a900473ffffffffffffffffffffffffffffffffffffffff1673ffffffffffffffffffffffffffffffffffffffff160361026b576000600160008054905061018791906107d3565b8154811061019857610197610775565b5b9060005260206000200160009054906101000a900473ffffffffffffffffffffffffffffffffffffffff16600082815481106101d7576101d6610775565b5b9060005260206000200160006101000a81548173ffffffffffffffffffffffffffffffffffffffff021916908373ffffffffffffffffffffffffffffffffffffffff160217905550600080548061023157610230610807565b5b6001900381819060005260206000200160006101000a81549073ffffffffffffffffffffffffffffffffffffffff0219169055905561027e565b808061027690610836565b9150506100f5565b50565b60606000808054905067ffffffffffffffff8111156102a3576102a261087e565b5b6040519080825280602002602001820160405280156102dc57816020015b6102c9610440565b8152602001906001900390816102c15790505b50905060005b6000805490508110156103d357600080828154811061030457610303610775565b5b9060005260206000200160009054906101000a900473ffffffffffffffffffffffffffffffffffffffff1673ffffffffffffffffffffffffffffffffffffffff1663ea3a2aec6040518163ffffffff1660e01b815260040161014060405180830381865afa15801561037a573d6000803e3d6000fd5b505050506040513d601f19601f8201168201806040525081019061039e9190610a46565b9050808383815181106103b4576103b3610775565b5b60200260200101819052505080806103cb90610836565b9150506102e2565b508091505090565b6000339080600181540180825580915050600190039060005260206000200160009091909190916101000a81548173ffffffffffffffffffffffffffffffffffffffff021916908373ffffffffffffffffffffffffffffffffffffffff160217905550565b604051806101400160405280600073ffffffffffffffffffffffffffffffffffffffff168152602001600073ffffffffffffffffffffffffffffffffffffffff168152602001600073ffffffffffffffffffffffffffffffffffffffff1681526020016000815260200160008152602001600081526020016000815260200160008152602001600073ffffffffffffffffffffffffffffffffffffffff168152602001600081525090565b6000604051905090565b600080fd5b6000819050919050565b61050d816104fa565b811461051857600080fd5b50565b60008135905061052a81610504565b92915050565b600060208284031215610546576105456104f5565b5b60006105548482850161051b565b91505092915050565b600073ffffffffffffffffffffffffffffffffffffffff82169050919050565b60006105888261055d565b9050919050565b6105988161057d565b82525050565b60006020820190506105b3600083018461058f565b92915050565b600081519050919050565b600082825260208201905092915050565b6000819050602082019050919050565b6105ee8161057d565b82525050565b6105fd816104fa565b82525050565b6101408201600082015161061a60008501826105e5565b50602082015161062d60208501826105e5565b50604082015161064060408501826105e5565b50606082015161065360608501826105f4565b50608082015161066660808501826105f4565b5060a082015161067960a08501826105f4565b5060c082015161068c60c08501826105f4565b5060e082015161069f60e08501826105f4565b506101008201516106b46101008501826105e5565b506101208201516106c96101208501826105f4565b50505050565b60006106db8383610603565b6101408301905092915050565b6000602082019050919050565b6000610700826105b9565b61070a81856105c4565b9350610715836105d5565b8060005b8381101561074657815161072d88826106cf565b9750610738836106e8565b925050600181019050610719565b5085935050505092915050565b6000602082019050818103600083015261076d81846106f5565b905092915050565b7f4e487b7100000000000000000000000000000000000000000000000000000000600052603260045260246000fd5b7f4e487b7100000000000000000000000000000000000000000000000000000000600052601160045260246000fd5b60006107de826104fa565b91506107e9836104fa565b9250828203905081811115610801576108006107a4565b5b92915050565b7f4e487b7100000000000000000000000000000000000000000000000000000000600052603160045260246000fd5b6000610841826104fa565b91507fffffffffffffffffffffffffffffffffffffffffffffffffffffffffffffffff8203610873576108726107a4565b5b600182019050919050565b7f4e487b7100000000000000000000000000000000000000000000000000000000600052604160045260246000fd5b600080fd5b6000601f19601f8301169050919050565b6108cc826108b2565b810181811067ffffffffffffffff821117156108eb576108ea61087e565b5b80604052505050565b60006108fe6104eb565b905061090a82826108c3565b919050565b6109188161057d565b811461092357600080fd5b50565b6000815190506109358161090f565b92915050565b60008151905061094a81610504565b92915050565b60006101408284031215610967576109666108ad565b5b6109726101406108f4565b9050600061098284828501610926565b600083015250602061099684828501610926565b60208301525060406109aa84828501610926565b60408301525060606109be8482850161093b565b60608301525060806109d28482850161093b565b60808301525060a06109e68482850161093b565b60a08301525060c06109fa8482850161093b565b60c08301525060e0610a0e8482850161093b565b60e083015250610100610a2384828501610926565b61010083015250610120610a398482850161093b565b6101208301525092915050565b60006101408284031215610a5d57610a5c6104f5565b5b6000610a6b84828501610950565b9150509291505056fea2646970667358221220621698f992876ebc06040785520f6d185ff2a7e431bdea224df51ed672e049f464736f6c63430008110033",
  "linkReferences": {},
  "deployedLinkReferences": {}
}